{"contracts/CarryChainMarketplace.sol":{"CarryChainMarketplace":{"abi":[{"inputs":[{"internalType":"address","name":"_stablecoin","type":"address"}],"stateMutability":"nonpayable","type":"constructor"},{"anonymous":false,"inputs":[{"indexed":true,"internalType":"uint256","name":"deliveryId","type":"uint256"},{"indexed":true,"internalType":"uint256","name":"routeId","type":"uint256"},{"indexed":true,"internalType":"address","name":"shipper","type":"address"}],"name":"DeliveryCreated","type":"event"},{"anonymous":false,"inputs":[{"indexed":true,"internalType":"uint256","name":"deliveryId","type":"uint256"}],"name":"DeliveryDisputed","type":"event"},{"anonymous":false,"inputs":[{"indexed":true,"internalType":"uint256","name":"deliveryId","type":"uint256"},{"indexed":false,"internalType":"bool","name":"favorTraveler","type":"bool"}],"name":"DeliveryResolved","type":"event"},{"anonymous":false,"inputs":[{"indexed":true,"internalType":"uint256","name":"deliveryId","type":"uint256"},{"indexed":false,"internalType":"enum CarryChainMarketplace.DeliveryStatus","name":"status","type":"uint8"}],"name":"DeliveryStatusChanged","type":"event"},{"anonymous":false,"inputs":[{"indexed":true,"internalType":"address","name":"previousOwner","type":"address"},{"indexed":true,"internalType":"address","name":"newOwner","type":"address"}],"name":"OwnershipTransferred","type":"event"},{"anonymous":false,"inputs":[{"indexed":true,"internalType":"address","name":"reviewer","type":"address"},{"indexed":true,"internalType":"address","name":"reviewed","type":"address"},{"indexed":false,"internalType":"bool","name":"positive","type":"bool"}],"name":"ReviewSubmitted","type":"event"},{"anonymous":false,"inputs":[{"indexed":true,"internalType":"uint256","name":"routeId","type":"uint256"},{"indexed":true,"internalType":"address","name":"traveler","type":"address"}],"name":"RouteCreated","type":"event"},{"anonymous":false,"inputs":[{"indexed":true,"internalType":"uint256","name":"routeId","type":"uint256"}],"name":"RouteDeactivated","type":"event"},{"anonymous":false,"inputs":[{"indexed":true,"internalType":"uint256","name":"routeId","type":"uint256"}],"name":"RouteUpdated","type":"event"},{"inputs":[{"internalType":"uint256","name":"deliveryId","type":"uint256"}],"name":"acceptDelivery","outputs":[],"stateMutability":"nonpayable","type":"function"},{"inputs":[{"internalType":"uint256","name":"deliveryId","type":"uint256"}],"name":"confirmDelivery","outputs":[],"stateMutability":"nonpayable","type":"function"},{"inputs":[{"internalType":"uint256","name":"routeId","type":"uint256"},{"internalType":"string","name":"packageDescription","type":"string"},{"internalType":"uint256","name":"packageWeight","type":"uint256"}],"name":"createDelivery","outputs":[{"internalType":"uint256","name":"","type":"uint256"}],"stateMutability":"nonpayable","type":"function"},{"inputs":[{"internalType":"string","name":"departureLocation","type":"string"},{"internalType":"string","name":"destinationLocation","type":"string"},{"internalType":"uint256","name":"departureTime","type":"uint256"},{"internalType":"uint256","name":"arrivalTime","type":"uint256"},{"internalType":"uint256","name":"availableSpace","type":"uint256"},{"internalType":"uint256","name":"pricePerKg","type":"uint256"}],"name":"createRoute","outputs":[{"internalType":"uint256","name":"","type":"uint256"}],"stateMutability":"nonpayable","type":"function"},{"inputs":[{"internalType":"uint256","name":"routeId","type":"uint256"}],"name":"deactivateRoute","outputs":[],"stateMutability":"nonpayable","type":"function"},{"inputs":[{"internalType":"uint256","name":"","type":"uint256"}],"name":"deliveries","outputs":[{"internalType":"uint256","name":"id","type":"uint256"},{"internalType":"uint256","name":"routeId","type":"uint256"},{"internalType":"address","name":"traveler","type":"address"},{"internalType":"address","name":"shipper","type":"address"},{"internalType":"string","name":"packageDescription","type":"string"},{"internalType":"uint256","name":"packageWeight","type":"uint256"},{"internalType":"uint256","name":"totalPrice","type":"uint256"},{"internalType":"enum CarryChainMarketplace.DeliveryStatus","name":"status","type":"uint8"},{"internalType":"uint256","name":"createdAt","type":"uint256"},{"internalType":"bool","name":"disputed","type":"bool"}],"stateMutability":"view","type":"function"},{"inputs":[],"name":"deliveryCount","outputs":[{"internalType":"uint256","name":"","type":"uint256"}],"stateMutability":"view","type":"function"},{"inputs":[{"internalType":"uint256","name":"deliveryId","type":"uint256"}],"name":"disputeDelivery","outputs":[],"stateMutability":"nonpayable","type":"function"},{"inputs":[{"internalType":"uint256","name":"deliveryId","type":"uint256"}],"name":"getDelivery","outputs":[{"components":[{"internalType":"uint256","name":"id","type":"uint256"},{"internalType":"uint256","name":"routeId","type":"uint256"},{"internalType":"address","name":"traveler","type":"address"},{"internalType":"address","name":"shipper","type":"address"},{"internalType":"string","name":"packageDescription","type":"string"},{"internalType":"uint256","name":"packageWeight","type":"uint256"},{"internalType":"uint256","name":"totalPrice","type":"uint256"},{"internalType":"enum CarryChainMarketplace.DeliveryStatus","name":"status","type":"uint8"},{"internalType":"uint256","name":"createdAt","type":"uint256"},{"internalType":"bool","name":"disputed","type":"bool"}],"internalType":"struct CarryChainMarketplace.Delivery","name":"","type":"tuple"}],"stateMutability":"view","type":"function"},{"inputs":[{"internalType":"address","name":"user","type":"address"}],"name":"getReputationScore","outputs":[{"internalType":"uint256","name":"","type":"uint256"}],"stateMutability":"view","type":"function"},{"inputs":[{"internalType":"uint256","name":"routeId","type":"uint256"}],"name":"getRoute","outputs":[{"components":[{"internalType":"uint256","name":"id","type":"uint256"},{"internalType":"address","name":"traveler","type":"address"},{"internalType":"string","name":"departureLocation","type":"string"},{"internalType":"string","name":"destinationLocation","type":"string"},{"internalType":"uint256","name":"departureTime","type":"uint256"},{"internalType":"uint256","name":"arrivalTime","type":"uint256"},{"internalType":"uint256","name":"availableSpace","type":"uint256"},{"internalType":"uint256","name":"pricePerKg","type":"uint256"},{"internalType":"bool","name":"isActive","type":"bool"}],"internalType":"struct CarryChainMarketplace.TravelRoute","name":"","type":"tuple"}],"stateMutability":"view","type":"function"},{"inputs":[{"internalType":"uint256","name":"deliveryId","type":"uint256"}],"name":"markAsDelivered","outputs":[],"stateMutability":"nonpayable","type":"function"},{"inputs":[{"internalType":"uint256","name":"deliveryId","type":"uint256"}],"name":"markAsPickedUp","outputs":[],"stateMutability":"nonpayable","type":"function"},{"inputs":[],"name":"owner","outputs":[{"internalType":"address","name":"","type":"address"}],"stateMutability":"view","type":"function"},{"inputs":[],"name":"platformFeePercent","outputs":[{"internalType":"uint256","name":"","type":"uint256"}],"stateMutability":"view","type":"function"},{"inputs":[{"internalType":"address","name":"","type":"address"}],"name":"positiveReviews","outputs":[{"internalType":"uint256","name":"","type":"uint256"}],"stateMutability":"view","type":"function"},{"inputs":[],"name":"renounceOwnership","outputs":[],"stateMutability":"nonpayable","type":"function"},{"inputs":[{"internalType":"uint256","name":"deliveryId","type":"uint256"},{"internalType":"bool","name":"favorTraveler","type":"bool"}],"name":"resolveDispute","outputs":[],"stateMutability":"nonpayable","type":"function"},{"inputs":[],"name":"routeCount","outputs":[{"internalType":"uint256","name":"","type":"uint256"}],"stateMutability":"view","type":"function"},{"inputs":[{"internalType":"uint256","name":"","type":"uint256"}],"name":"routes","outputs":[{"internalType":"uint256","name":"id","type":"uint256"},{"internalType":"address","name":"traveler","type":"address"},{"internalType":"string","name":"departureLocation","type":"string"},{"internalType":"string","name":"destinationLocation","type":"string"},{"internalType":"uint256","name":"departureTime","type":"uint256"},{"internalType":"uint256","name":"arrivalTime","type":"uint256"},{"internalType":"uint256","name":"availableSpace","type":"uint256"},{"internalType":"uint256","name":"pricePerKg","type":"uint256"},{"internalType":"bool","name":"isActive","type":"bool"}],"stateMutability":"view","type":"function"},{"inputs":[],"name":"stablecoin","outputs":[{"internalType":"contract IERC20","name":"","type":"address"}],"stateMutability":"view","type":"function"},{"inputs":[{"internalType":"address","name":"reviewed","type":"address"},{"internalType":"bool","name":"positive","type":"bool"}],"name":"submitReview","outputs":[],"stateMutability":"nonpayable","type":"function"},{"inputs":[{"internalType":"address","name":"","type":"address"}],"name":"totalReviews","outputs":[{"internalType":"uint256","name":"","type":"uint256"}],"stateMutability":"view","type":"function"},{"inputs":[{"internalType":"address","name":"newOwner","type":"address"}],"name":"transferOwnership","outputs":[],"stateMutability":"nonpayable","type":"function"},{"inputs":[{"internalType":"uint256","name":"newFeePercent","type":"uint256"}],"name":"updatePlatformFee","outputs":[],"stateMutability":"nonpayable","type":"function"},{"inputs":[{"internalType":"uint256","name":"routeId","type":"uint256"},{"internalType":"string","name":"departureLocation","type":"string"},{"internalType":"string","name":"destinationLocation","type":"string"},{"internalType":"uint256","name":"departureTime","type":"uint256"},{"internalType":"uint256","name":"arrivalTime","type":"uint256"},{"internalType":"uint256","name":"availableSpace","type":"uint256"},{"internalType":"uint256","name":"pricePerKg","type":"uint256"}],"name":"updateRoute","outputs":[],"stateMutability":"nonpayable","type":"function"},{"inputs":[{"internalType":"address","name":"newStablecoin","type":"address"}],"name":"updateStablecoin","outputs":[],"stateMutability":"nonpayable","type":"function"}],"evm":{"bytecode":{"linkReferences":{},"object":"60806040526005600355600160045560016005553480156200002057600080fd5b5060405162005230380380620052308339818101604052810190620000469190620001eb565b620000666200005a620000b560201b60201c565b620000bd60201b60201c565b6001808190555080600260006101000a81548173ffffffffffffffffffffffffffffffffffffffff021916908373ffffffffffffffffffffffffffffffffffffffff160217905550506200021d565b600033905090565b60008060009054906101000a900473ffffffffffffffffffffffffffffffffffffffff169050816000806101000a81548173ffffffffffffffffffffffffffffffffffffffff021916908373ffffffffffffffffffffffffffffffffffffffff1602179055508173ffffffffffffffffffffffffffffffffffffffff168173ffffffffffffffffffffffffffffffffffffffff167f8be0079c531659141344cd1fd0a4f28419497f9722a3daafe3b4186f6b6457e060405160405180910390a35050565b600080fd5b600073ffffffffffffffffffffffffffffffffffffffff82169050919050565b6000620001b38262000186565b9050919050565b620001c581620001a6565b8114620001d157600080fd5b50565b600081519050620001e581620001ba565b92915050565b60006020828403121562000204576200020362000181565b5b60006200021484828501620001d4565b91505092915050565b615003806200022d6000396000f3fe608060405234801561001057600080fd5b50600436106101a95760003560e01c80638da5cb5b116100f9578063de8211a911610097578063f2fde38b11610071578063f2fde38b146104db578063fa66358a146104f7578063fc8f20fa14610527578063fd84cb9714610543576101a9565b8063de8211a914610471578063e9cbd822146104a1578063ebc4010a146104bf576101a9565b8063aa0b5988116100d3578063aa0b5988146103eb578063adcb9f0414610407578063bf539cb414610423578063d8f097ab14610441576101a9565b80638da5cb5b14610378578063968ee6ed14610396578063a9e4a324146103b2576101a9565b80635b77b6a61161016657806375a67d5c1161014057806375a67d5c146102de5780637b422c4c1461030e578063897cf9051461032a5780638c639a851461035a576101a9565b80635b77b6a61461027e578063715018a61461029c578063726f16d8146102a6576101a9565b806321e9c317146101ae578063279b6d31146101ca57806334b25ee2146101e6578063488c76b9146102025780634ddd05c814610232578063516ac5201461024e575b600080fd5b6101c860048036038101906101c391906132d0565b61055f565b005b6101e460048036038101906101df91906132d0565b6106ea565b005b61020060048036038101906101fb9190613335565b610832565b005b61021c600480360381019061021791906133d3565b610b53565b604051610229919061340f565b60405180910390f35b61024c6004803603810190610247919061342a565b610b6b565b005b610268600480360381019061026391906134cf565b610f22565b604051610275919061340f565b60405180910390f35b61028661125a565b604051610293919061340f565b60405180910390f35b6102a4611270565b005b6102c060048036038101906102bb91906132d0565b611284565b6040516102d59998979695949392919061364c565b60405180910390f35b6102f860048036038101906102f391906133d3565b61140f565b604051610305919061340f565b60405180910390f35b610328600480360381019061032391906132d0565b6114fe565b005b610344600480360381019061033f91906136e7565b611689565b604051610351919061340f565b60405180910390f35b610362611b2a565b60405161036f919061340f565b60405180910390f35b610380611b30565b60405161038d919061375b565b60405180910390f35b6103b060048036038101906103ab91906132d0565b611b59565b005b6103cc60048036038101906103c791906132d0565b611ce4565b6040516103e29a999897969594939291906137ed565b60405180910390f35b610405600480360381019061040091906132d0565b611e1a565b005b610421600480360381019061041c91906132d0565b611e70565b005b61042b612171565b604051610438919061340f565b60405180910390f35b61045b600480360381019061045691906133d3565b612187565b604051610468919061340f565b60405180910390f35b61048b600480360381019061048691906132d0565b61219f565b60405161049891906139f0565b60405180910390f35b6104a9612393565b6040516104b69190613a71565b60405180910390f35b6104d960048036038101906104d49190613a8c565b6123b9565b005b6104f560048036038101906104f091906133d3565b612688565b005b610511600480360381019061050c91906132d0565b61270b565b60405161051e9190613c3a565b60405180910390f35b610541600480360381019061053c91906133d3565b612900565b005b61055d600480360381019061055891906132d0565b6129bb565b005b60006007600083815260200190815260200160002090503373ffffffffffffffffffffffffffffffffffffffff168160020160009054906101000a900473ffffffffffffffffffffffffffffffffffffffff1673ffffffffffffffffffffffffffffffffffffffff1614610608576040517f08c379a00000000000000000000000000000000000000000000000000000000081526004016105ff90613ca8565b60405180910390fd5b6001600681111561061c5761061b613776565b5b8160070160009054906101000a900460ff1660068111156106405761063f613776565b5b14610680576040517f08c379a000000000000000000000000000000000000000000000000000000000815260040161067790613d14565b60405180910390fd5b60028160070160006101000a81548160ff021916908360068111156106a8576106a7613776565b5b0217905550817ff0ae3d24f582980763cba4c6a774ec11622261c096524e28ee8075179a9e09aa60026040516106de9190613d34565b60405180910390a25050565b60006006600083815260200190815260200160002090503373ffffffffffffffffffffffffffffffffffffffff168160010160009054906101000a900473ffffffffffffffffffffffffffffffffffffffff1673ffffffffffffffffffffffffffffffffffffffff1614610793576040517f08c379a000000000000000000000000000000000000000000000000000000000815260040161078a90613d9b565b60405180910390fd5b8060080160009054906101000a900460ff166107e4576040517f08c379a00000000000000000000000000000000000000000000000000000000081526004016107db90613e07565b60405180910390fd5b60008160080160006101000a81548160ff021916908315150217905550817f9f561157c75fa5e0e6c41640120907ab19ecaf36e8f8368a6fccdfff1f5a0b3760405160405180910390a25050565b61083a612c53565b610842612cd1565b600060076000848152602001908152602001600020905060068081111561086c5761086b613776565b5b8160070160009054906101000a900460ff1660068111156108905761088f613776565b5b146108d0576040517f08c379a00000000000000000000000000000000000000000000000000000000081526004016108c790613e73565b60405180910390fd5b8115610a05576000606460035483600601546108ec9190613ec2565b6108f69190613f33565b9050600081836006015461090a9190613f64565b905061097d8360020160009054906101000a900473ffffffffffffffffffffffffffffffffffffffff1682600260009054906101000a900473ffffffffffffffffffffffffffffffffffffffff1673ffffffffffffffffffffffffffffffffffffffff16612d209092919063ffffffff16565b6109d1610988611b30565b83600260009054906101000a900473ffffffffffffffffffffffffffffffffffffffff1673ffffffffffffffffffffffffffffffffffffffff16612d209092919063ffffffff16565b60048360070160006101000a81548160ff021916908360068111156109f9576109f8613776565b5b02179055505050610aa8565b610a7a8160030160009054906101000a900473ffffffffffffffffffffffffffffffffffffffff168260060154600260009054906101000a900473ffffffffffffffffffffffffffffffffffffffff1673ffffffffffffffffffffffffffffffffffffffff16612d209092919063ffffffff16565b60058160070160006101000a81548160ff02191690836006811115610aa257610aa1613776565b5b02179055505b60008160090160006101000a81548160ff021916908315150217905550827f09231f7efef3140fd357c674878a8e13ca737c7d3ade427ef98ec0f8f1bdba7f83604051610af59190613f98565b60405180910390a2827ff0ae3d24f582980763cba4c6a774ec11622261c096524e28ee8075179a9e09aa8260070160009054906101000a900460ff16604051610b3e9190613d34565b60405180910390a250610b4f612da6565b5050565b60086020528060005260406000206000915090505481565b3373ffffffffffffffffffffffffffffffffffffffff168273ffffffffffffffffffffffffffffffffffffffff1603610bd9576040517f08c379a0000000000000000000000000000000000000000000000000000000008152600401610bd090613fff565b60405180910390fd5b600080600190505b600554811015610dc657600060076000838152602001908152602001600020905060046006811115610c1657610c15613776565b5b8160070160009054906101000a900460ff166006811115610c3a57610c39613776565b5b03610db2573373ffffffffffffffffffffffffffffffffffffffff168160020160009054906101000a900473ffffffffffffffffffffffffffffffffffffffff1673ffffffffffffffffffffffffffffffffffffffff16148015610ced57508473ffffffffffffffffffffffffffffffffffffffff168160030160009054906101000a900473ffffffffffffffffffffffffffffffffffffffff1673ffffffffffffffffffffffffffffffffffffffff16145b80610da257503373ffffffffffffffffffffffffffffffffffffffff168160030160009054906101000a900473ffffffffffffffffffffffffffffffffffffffff1673ffffffffffffffffffffffffffffffffffffffff16148015610da157508473ffffffffffffffffffffffffffffffffffffffff168160020160009054906101000a900473ffffffffffffffffffffffffffffffffffffffff1673ffffffffffffffffffffffffffffffffffffffff16145b5b15610db1576001925050610dc6565b5b508080610dbe9061401f565b915050610be1565b5080610e07576040517f08c379a0000000000000000000000000000000000000000000000000000000008152600401610dfe906140d9565b60405180910390fd5b600960008473ffffffffffffffffffffffffffffffffffffffff1673ffffffffffffffffffffffffffffffffffffffff1681526020019081526020016000206000815480929190610e579061401f565b91905055508115610eb857600860008473ffffffffffffffffffffffffffffffffffffffff1673ffffffffffffffffffffffffffffffffffffffff1681526020019081526020016000206000815480929190610eb29061401f565b91905055505b8273ffffffffffffffffffffffffffffffffffffffff163373ffffffffffffffffffffffffffffffffffffffff167f0259e1551339ec763826d488867a15312a343949beedeee70ebc40842c3a17c284604051610f159190613f98565b60405180910390a3505050565b6000428511610f66576040517f08c379a0000000000000000000000000000000000000000000000000000000008152600401610f5d9061416b565b60405180910390fd5b848411610fa8576040517f08c379a0000000000000000000000000000000000000000000000000000000008152600401610f9f906141fd565b60405180910390fd5b60008311610feb576040517f08c379a0000000000000000000000000000000000000000000000000000000008152600401610fe29061428f565b60405180910390fd5b6000821161102e576040517f08c379a000000000000000000000000000000000000000000000000000000000815260040161102590614321565b60405180910390fd5b6000600460008154809291906110439061401f565b9190505590506040518061012001604052808281526020013373ffffffffffffffffffffffffffffffffffffffff1681526020018b8b8080601f016020809104026020016040519081016040528093929190818152602001838380828437600081840152601f19601f82011690508083019250505050505050815260200189898080601f016020809104026020016040519081016040528093929190818152602001838380828437600081840152601f19601f82011690508083019250505050505050815260200187815260200186815260200185815260200184815260200160011515815250600660008381526020019081526020016000206000820151816000015560208201518160010160006101000a81548173ffffffffffffffffffffffffffffffffffffffff021916908373ffffffffffffffffffffffffffffffffffffffff16021790555060408201518160020190816111a39190614572565b5060608201518160030190816111b99190614572565b506080820151816004015560a0820151816005015560c0820151816006015560e082015181600701556101008201518160080160006101000a81548160ff0219169083151502179055509050503373ffffffffffffffffffffffffffffffffffffffff16817f0a96e30b24cb5b4b1a74eddfcc41cebbf0151d31ccd4cac2d89a0882211704e460405160405180910390a38091505098975050505050505050565b6000600160055461126b9190613f64565b905090565b611278612c53565b6112826000612daf565b565b60066020528060005260406000206000915090508060000154908060010160009054906101000a900473ffffffffffffffffffffffffffffffffffffffff16908060020180546112d39061439f565b80601f01602080910402602001604051908101604052809291908181526020018280546112ff9061439f565b801561134c5780601f106113215761010080835404028352916020019161134c565b820191906000526020600020905b81548152906001019060200180831161132f57829003601f168201915b5050505050908060030180546113619061439f565b80601f016020809104026020016040519081016040528092919081815260200182805461138d9061439f565b80156113da5780601f106113af576101008083540402835291602001916113da565b820191906000526020600020905b8154815290600101906020018083116113bd57829003601f168201915b5050505050908060040154908060050154908060060154908060070154908060080160009054906101000a900460ff16905089565b600080600960008473ffffffffffffffffffffffffffffffffffffffff1673ffffffffffffffffffffffffffffffffffffffff168152602001908152602001600020540361146057600090506114f9565b600960008373ffffffffffffffffffffffffffffffffffffffff1673ffffffffffffffffffffffffffffffffffffffff168152602001908152602001600020546064600860008573ffffffffffffffffffffffffffffffffffffffff1673ffffffffffffffffffffffffffffffffffffffff168152602001908152602001600020546114ec9190613ec2565b6114f69190613f33565b90505b919050565b60006007600083815260200190815260200160002090503373ffffffffffffffffffffffffffffffffffffffff168160020160009054906101000a900473ffffffffffffffffffffffffffffffffffffffff1673ffffffffffffffffffffffffffffffffffffffff16146115a7576040517f08c379a000000000000000000000000000000000000000000000000000000000815260040161159e90613ca8565b60405180910390fd5b600060068111156115bb576115ba613776565b5b8160070160009054906101000a900460ff1660068111156115df576115de613776565b5b1461161f576040517f08c379a000000000000000000000000000000000000000000000000000000000815260040161161690613d14565b60405180910390fd5b60018160070160006101000a81548160ff0219169083600681111561164757611646613776565b5b0217905550817ff0ae3d24f582980763cba4c6a774ec11622261c096524e28ee8075179a9e09aa600160405161167d9190613d34565b60405180910390a25050565b6000611693612cd1565b60006006600087815260200190815260200160002090508060080160009054906101000a900460ff166116fb576040517f08c379a00000000000000000000000000000000000000000000000000000000081526004016116f290614690565b60405180910390fd5b42816004015411611741576040517f08c379a0000000000000000000000000000000000000000000000000000000008152600401611738906146fc565b60405180910390fd5b60008311611784576040517f08c379a000000000000000000000000000000000000000000000000000000000815260040161177b9061478e565b60405180910390fd5b80600601548311156117cb576040517f08c379a00000000000000000000000000000000000000000000000000000000081526004016117c2906147fa565b60405180910390fd5b60006103e88260070154856117e09190613ec2565b6117ea9190613f33565b905060006064600354836117fe9190613ec2565b6118089190613f33565b905060008183611818919061481a565b9050611869333083600260009054906101000a900473ffffffffffffffffffffffffffffffffffffffff1673ffffffffffffffffffffffffffffffffffffffff16612e73909392919063ffffffff16565b60006005600081548092919061187e9061401f565b9190505590506040518061014001604052808281526020018b81526020018660010160009054906101000a900473ffffffffffffffffffffffffffffffffffffffff1673ffffffffffffffffffffffffffffffffffffffff1681526020013373ffffffffffffffffffffffffffffffffffffffff1681526020018a8a8080601f016020809104026020016040519081016040528093929190818152602001838380828437600081840152601f19601f8201169050808301925050505050505081526020018881526020018381526020016000600681111561196257611961613776565b5b81526020014281526020016000151581525060076000838152602001908152602001600020600082015181600001556020820151816001015560408201518160020160006101000a81548173ffffffffffffffffffffffffffffffffffffffff021916908373ffffffffffffffffffffffffffffffffffffffff16021790555060608201518160030160006101000a81548173ffffffffffffffffffffffffffffffffffffffff021916908373ffffffffffffffffffffffffffffffffffffffff1602179055506080820151816004019081611a3e9190614572565b5060a0820151816005015560c0820151816006015560e08201518160070160006101000a81548160ff02191690836006811115611a7e57611a7d613776565b5b021790555061010082015181600801556101208201518160090160006101000a81548160ff02191690831515021790555090505086856006016000828254611ac69190613f64565b925050819055503373ffffffffffffffffffffffffffffffffffffffff168a827f874dce5cee3087b1ecc98fe48589050785d293c374f6b183e9d94c978950bb4960405160405180910390a48095505050505050611b22612da6565b949350505050565b60035481565b60008060009054906101000a900473ffffffffffffffffffffffffffffffffffffffff16905090565b60006007600083815260200190815260200160002090503373ffffffffffffffffffffffffffffffffffffffff168160020160009054906101000a900473ffffffffffffffffffffffffffffffffffffffff1673ffffffffffffffffffffffffffffffffffffffff1614611c02576040517f08c379a0000000000000000000000000000000000000000000000000000000008152600401611bf990613ca8565b60405180910390fd5b60026006811115611c1657611c15613776565b5b8160070160009054906101000a900460ff166006811115611c3a57611c39613776565b5b14611c7a576040517f08c379a0000000000000000000000000000000000000000000000000000000008152600401611c7190613d14565b60405180910390fd5b60038160070160006101000a81548160ff02191690836006811115611ca257611ca1613776565b5b0217905550817ff0ae3d24f582980763cba4c6a774ec11622261c096524e28ee8075179a9e09aa6003604051611cd89190613d34565b60405180910390a25050565b60076020528060005260406000206000915090508060000154908060010154908060020160009054906101000a900473ffffffffffffffffffffffffffffffffffffffff16908060030160009054906101000a900473ffffffffffffffffffffffffffffffffffffffff1690806004018054611d5f9061439f565b80601f0160208091040260200160405190810160405280929190818152602001828054611d8b9061439f565b8015611dd85780601f10611dad57610100808354040283529160200191611dd8565b820191906000526020600020905b815481529060010190602001808311611dbb57829003601f168201915b5050505050908060050154908060060154908060070160009054906101000a900460ff16908060080154908060090160009054906101000a900460ff1690508a565b611e22612c53565b6014811115611e66576040517f08c379a0000000000000000000000000000000000000000000000000000000008152600401611e5d9061489a565b60405180910390fd5b8060038190555050565b60006007600083815260200190815260200160002090503373ffffffffffffffffffffffffffffffffffffffff168160030160009054906101000a900473ffffffffffffffffffffffffffffffffffffffff1673ffffffffffffffffffffffffffffffffffffffff161480611f3457503373ffffffffffffffffffffffffffffffffffffffff168160020160009054906101000a900473ffffffffffffffffffffffffffffffffffffffff1673ffffffffffffffffffffffffffffffffffffffff16145b611f73576040517f08c379a0000000000000000000000000000000000000000000000000000000008152600401611f6a90614906565b60405180910390fd5b60016006811115611f8757611f86613776565b5b8160070160009054906101000a900460ff166006811115611fab57611faa613776565b5b1480611fec575060026006811115611fc657611fc5613776565b5b8160070160009054906101000a900460ff166006811115611fea57611fe9613776565b5b145b8061202c57506003600681111561200657612005613776565b5b8160070160009054906101000a900460ff16600681111561202a57612029613776565b5b145b61206b576040517f08c379a000000000000000000000000000000000000000000000000000000000815260040161206290614972565b60405180910390fd5b8060090160009054906101000a900460ff16156120bd576040517f08c379a00000000000000000000000000000000000000000000000000000000081526004016120b4906149de565b60405180910390fd5b60018160090160006101000a81548160ff02191690831515021790555060068160070160006101000a81548160ff0219169083600681111561210257612101613776565b5b0217905550817fcfafbd891419413dfa324d3261503128c4ee2ef0d3671867eaebb6d1e91e7f7c60405160405180910390a2817ff0ae3d24f582980763cba4c6a774ec11622261c096524e28ee8075179a9e09aa60066040516121659190613d34565b60405180910390a25050565b600060016004546121829190613f64565b905090565b60096020528060005260406000206000915090505481565b6121a7613199565b600760008381526020019081526020016000206040518061014001604052908160008201548152602001600182015481526020016002820160009054906101000a900473ffffffffffffffffffffffffffffffffffffffff1673ffffffffffffffffffffffffffffffffffffffff1673ffffffffffffffffffffffffffffffffffffffff1681526020016003820160009054906101000a900473ffffffffffffffffffffffffffffffffffffffff1673ffffffffffffffffffffffffffffffffffffffff1673ffffffffffffffffffffffffffffffffffffffff1681526020016004820180546122969061439f565b80601f01602080910402602001604051908101604052809291908181526020018280546122c29061439f565b801561230f5780601f106122e45761010080835404028352916020019161230f565b820191906000526020600020905b8154815290600101906020018083116122f257829003601f168201915b5050505050815260200160058201548152602001600682015481526020016007820160009054906101000a900460ff16600681111561235157612350613776565b5b600681111561236357612362613776565b5b8152602001600882015481526020016009820160009054906101000a900460ff1615151515815250509050919050565b600260009054906101000a900473ffffffffffffffffffffffffffffffffffffffff1681565b6000600660008b815260200190815260200160002090503373ffffffffffffffffffffffffffffffffffffffff168160010160009054906101000a900473ffffffffffffffffffffffffffffffffffffffff1673ffffffffffffffffffffffffffffffffffffffff1614612462576040517f08c379a000000000000000000000000000000000000000000000000000000000815260040161245990613d9b565b60405180910390fd5b8060080160009054906101000a900460ff166124b3576040517f08c379a00000000000000000000000000000000000000000000000000000000081526004016124aa90614690565b60405180910390fd5b428160040154116124f9576040517f08c379a00000000000000000000000000000000000000000000000000000000081526004016124f0906146fc565b60405180910390fd5b42851161253b576040517f08c379a00000000000000000000000000000000000000000000000000000000081526004016125329061416b565b60405180910390fd5b84841161257d576040517f08c379a0000000000000000000000000000000000000000000000000000000008152600401612574906141fd565b60405180910390fd5b600083116125c0576040517f08c379a00000000000000000000000000000000000000000000000000000000081526004016125b79061428f565b60405180910390fd5b60008211612603576040517f08c379a00000000000000000000000000000000000000000000000000000000081526004016125fa90614321565b60405180910390fd5b8888826002019182612616929190614a09565b50868682600301918261262a929190614a09565b50848160040181905550838160050181905550828160060181905550818160070181905550897f42ebf045e5f0681865f7bc06550cec341c58f349577b5a315b067c632fe8100a60405160405180910390a250505050505050505050565b612690612c53565b600073ffffffffffffffffffffffffffffffffffffffff168173ffffffffffffffffffffffffffffffffffffffff16036126ff576040517f08c379a00000000000000000000000000000000000000000000000000000000081526004016126f690614b4b565b60405180910390fd5b61270881612daf565b50565b61271361322c565b6006600083815260200190815260200160002060405180610120016040529081600082015481526020016001820160009054906101000a900473ffffffffffffffffffffffffffffffffffffffff1673ffffffffffffffffffffffffffffffffffffffff1673ffffffffffffffffffffffffffffffffffffffff1681526020016002820180546127a29061439f565b80601f01602080910402602001604051908101604052809291908181526020018280546127ce9061439f565b801561281b5780601f106127f05761010080835404028352916020019161281b565b820191906000526020600020905b8154815290600101906020018083116127fe57829003601f168201915b505050505081526020016003820180546128349061439f565b80601f01602080910402602001604051908101604052809291908181526020018280546128609061439f565b80156128ad5780601f10612882576101008083540402835291602001916128ad565b820191906000526020600020905b81548152906001019060200180831161289057829003601f168201915b50505050508152602001600482015481526020016005820154815260200160068201548152602001600782015481526020016008820160009054906101000a900460ff1615151515815250509050919050565b612908612c53565b600073ffffffffffffffffffffffffffffffffffffffff168173ffffffffffffffffffffffffffffffffffffffff1603612977576040517f08c379a000000000000000000000000000000000000000000000000000000000815260040161296e90614bb7565b60405180910390fd5b80600260006101000a81548173ffffffffffffffffffffffffffffffffffffffff021916908373ffffffffffffffffffffffffffffffffffffffff16021790555050565b6129c3612cd1565b60006007600083815260200190815260200160002090503373ffffffffffffffffffffffffffffffffffffffff168160030160009054906101000a900473ffffffffffffffffffffffffffffffffffffffff1673ffffffffffffffffffffffffffffffffffffffff1614612a6c576040517f08c379a0000000000000000000000000000000000000000000000000000000008152600401612a6390614c23565b60405180910390fd5b60036006811115612a8057612a7f613776565b5b8160070160009054906101000a900460ff166006811115612aa457612aa3613776565b5b14612ae4576040517f08c379a0000000000000000000000000000000000000000000000000000000008152600401612adb90613d14565b60405180910390fd5b60048160070160006101000a81548160ff02191690836006811115612b0c57612b0b613776565b5b0217905550600060646003548360060154612b279190613ec2565b612b319190613f33565b90506000818360060154612b459190613f64565b9050612bb88360020160009054906101000a900473ffffffffffffffffffffffffffffffffffffffff1682600260009054906101000a900473ffffffffffffffffffffffffffffffffffffffff1673ffffffffffffffffffffffffffffffffffffffff16612d209092919063ffffffff16565b612c0c612bc3611b30565b83600260009054906101000a900473ffffffffffffffffffffffffffffffffffffffff1673ffffffffffffffffffffffffffffffffffffffff16612d209092919063ffffffff16565b837ff0ae3d24f582980763cba4c6a774ec11622261c096524e28ee8075179a9e09aa6004604051612c3d9190613d34565b60405180910390a2505050612c50612da6565b50565b612c5b612efc565b73ffffffffffffffffffffffffffffffffffffffff16612c79611b30565b73ffffffffffffffffffffffffffffffffffffffff1614612ccf576040517f08c379a0000000000000000000000000000000000000000000000000000000008152600401612cc690614c8f565b60405180910390fd5b565b600260015403612d16576040517f08c379a0000000000000000000000000000000000000000000000000000000008152600401612d0d90614cfb565b60405180910390fd5b6002600181905550565b612da18363a9059cbb60e01b8484604051602401612d3f929190614d1b565b604051602081830303815290604052907bffffffffffffffffffffffffffffffffffffffffffffffffffffffff19166020820180517bffffffffffffffffffffffffffffffffffffffffffffffffffffffff8381831617835250505050612f04565b505050565b60018081905550565b60008060009054906101000a900473ffffffffffffffffffffffffffffffffffffffff169050816000806101000a81548173ffffffffffffffffffffffffffffffffffffffff021916908373ffffffffffffffffffffffffffffffffffffffff1602179055508173ffffffffffffffffffffffffffffffffffffffff168173ffffffffffffffffffffffffffffffffffffffff167f8be0079c531659141344cd1fd0a4f28419497f9722a3daafe3b4186f6b6457e060405160405180910390a35050565b612ef6846323b872dd60e01b858585604051602401612e9493929190614d44565b604051602081830303815290604052907bffffffffffffffffffffffffffffffffffffffffffffffffffffffff19166020820180517bffffffffffffffffffffffffffffffffffffffffffffffffffffffff8381831617835250505050612f04565b50505050565b600033905090565b6000612f66826040518060400160405280602081526020017f5361666545524332303a206c6f772d6c6576656c2063616c6c206661696c65648152508573ffffffffffffffffffffffffffffffffffffffff16612fcc9092919063ffffffff16565b9050600081511480612f88575080806020019051810190612f879190614d90565b5b612fc7576040517f08c379a0000000000000000000000000000000000000000000000000000000008152600401612fbe90614e2f565b60405180910390fd5b505050565b6060612fdb8484600085612fe4565b90509392505050565b606082471015613029576040517f08c379a000000000000000000000000000000000000000000000000000000000815260040161302090614ec1565b60405180910390fd5b6000808673ffffffffffffffffffffffffffffffffffffffff1685876040516130529190614f28565b60006040518083038185875af1925050503d806000811461308f576040519150601f19603f3d011682016040523d82523d6000602084013e613094565b606091505b50915091506130a5878383876130b1565b92505050949350505050565b6060831561311357600083510361310b576130cb85613126565b61310a576040517f08c379a000000000000000000000000000000000000000000000000000000000815260040161310190614f8b565b60405180910390fd5b5b82905061311e565b61311d8383613149565b5b949350505050565b6000808273ffffffffffffffffffffffffffffffffffffffff163b119050919050565b60008251111561315c5781518083602001fd5b806040517f08c379a00000000000000000000000000000000000000000000000000000000081526004016131909190614fab565b60405180910390fd5b6040518061014001604052806000815260200160008152602001600073ffffffffffffffffffffffffffffffffffffffff168152602001600073ffffffffffffffffffffffffffffffffffffffff1681526020016060815260200160008152602001600081526020016000600681111561321657613215613776565b5b8152602001600081526020016000151581525090565b60405180610120016040528060008152602001600073ffffffffffffffffffffffffffffffffffffffff1681526020016060815260200160608152602001600081526020016000815260200160008152602001600081526020016000151581525090565b600080fd5b600080fd5b6000819050919050565b6132ad8161329a565b81146132b857600080fd5b50565b6000813590506132ca816132a4565b92915050565b6000602082840312156132e6576132e5613290565b5b60006132f4848285016132bb565b91505092915050565b60008115159050919050565b613312816132fd565b811461331d57600080fd5b50565b60008135905061332f81613309565b92915050565b6000806040838503121561334c5761334b613290565b5b600061335a858286016132bb565b925050602061336b85828601613320565b9150509250929050565b600073ffffffffffffffffffffffffffffffffffffffff82169050919050565b60006133a082613375565b9050919050565b6133b081613395565b81146133bb57600080fd5b50565b6000813590506133cd816133a7565b92915050565b6000602082840312156133e9576133e8613290565b5b60006133f7848285016133be565b91505092915050565b6134098161329a565b82525050565b60006020820190506134246000830184613400565b92915050565b6000806040838503121561344157613440613290565b5b600061344f858286016133be565b925050602061346085828601613320565b9150509250929050565b600080fd5b600080fd5b600080fd5b60008083601f84011261348f5761348e61346a565b5b8235905067ffffffffffffffff8111156134ac576134ab61346f565b5b6020830191508360018202830111156134c8576134c7613474565b5b9250929050565b60008060008060008060008060c0898b0312156134ef576134ee613290565b5b600089013567ffffffffffffffff81111561350d5761350c613295565b5b6135198b828c01613479565b9850985050602089013567ffffffffffffffff81111561353c5761353b613295565b5b6135488b828c01613479565b9650965050604061355b8b828c016132bb565b945050606061356c8b828c016132bb565b935050608061357d8b828c016132bb565b92505060a061358e8b828c016132bb565b9150509295985092959890939650565b6135a781613395565b82525050565b600081519050919050565b600082825260208201905092915050565b60005b838110156135e75780820151818401526020810190506135cc565b60008484015250505050565b6000601f19601f8301169050919050565b600061360f826135ad565b61361981856135b8565b93506136298185602086016135c9565b613632816135f3565b840191505092915050565b613646816132fd565b82525050565b600061012082019050613662600083018c613400565b61366f602083018b61359e565b8181036040830152613681818a613604565b905081810360608301526136958189613604565b90506136a46080830188613400565b6136b160a0830187613400565b6136be60c0830186613400565b6136cb60e0830185613400565b6136d961010083018461363d565b9a9950505050505050505050565b6000806000806060858703121561370157613700613290565b5b600061370f878288016132bb565b945050602085013567ffffffffffffffff8111156137305761372f613295565b5b61373c87828801613479565b9350935050604061374f878288016132bb565b91505092959194509250565b6000602082019050613770600083018461359e565b92915050565b7f4e487b7100000000000000000000000000000000000000000000000000000000600052602160045260246000fd5b600781106137b6576137b5613776565b5b50565b60008190506137c7826137a5565b919050565b60006137d7826137b9565b9050919050565b6137e7816137cc565b82525050565b600061014082019050613803600083018d613400565b613810602083018c613400565b61381d604083018b61359e565b61382a606083018a61359e565b818103608083015261383c8189613604565b905061384b60a0830188613400565b61385860c0830187613400565b61386560e08301866137de565b613873610100830185613400565b61388161012083018461363d565b9b9a5050505050505050505050565b6138998161329a565b82525050565b6138a881613395565b82525050565b600082825260208201905092915050565b60006138ca826135ad565b6138d481856138ae565b93506138e48185602086016135c9565b6138ed816135f3565b840191505092915050565b613901816137cc565b82525050565b613910816132fd565b82525050565b60006101408301600083015161392f6000860182613890565b5060208301516139426020860182613890565b506040830151613955604086018261389f565b506060830151613968606086018261389f565b506080830151848203608086015261398082826138bf565b91505060a083015161399560a0860182613890565b5060c08301516139a860c0860182613890565b5060e08301516139bb60e08601826138f8565b506101008301516139d0610100860182613890565b506101208301516139e5610120860182613907565b508091505092915050565b60006020820190508181036000830152613a0a8184613916565b905092915050565b6000819050919050565b6000613a37613a32613a2d84613375565b613a12565b613375565b9050919050565b6000613a4982613a1c565b9050919050565b6000613a5b82613a3e565b9050919050565b613a6b81613a50565b82525050565b6000602082019050613a866000830184613a62565b92915050565b600080600080600080600080600060e08a8c031215613aae57613aad613290565b5b6000613abc8c828d016132bb565b99505060208a013567ffffffffffffffff811115613add57613adc613295565b5b613ae98c828d01613479565b985098505060408a013567ffffffffffffffff811115613b0c57613b0b613295565b5b613b188c828d01613479565b96509650506060613b2b8c828d016132bb565b9450506080613b3c8c828d016132bb565b93505060a0613b4d8c828d016132bb565b92505060c0613b5e8c828d016132bb565b9150509295985092959850929598565b600061012083016000830151613b876000860182613890565b506020830151613b9a602086018261389f565b5060408301518482036040860152613bb282826138bf565b91505060608301518482036060860152613bcc82826138bf565b9150506080830151613be16080860182613890565b5060a0830151613bf460a0860182613890565b5060c0830151613c0760c0860182613890565b5060e0830151613c1a60e0860182613890565b50610100830151613c2f610100860182613907565b508091505092915050565b60006020820190508181036000830152613c548184613b6e565b905092915050565b7f4e6f74207468652074726176656c657200000000000000000000000000000000600082015250565b6000613c926010836135b8565b9150613c9d82613c5c565b602082019050919050565b60006020820190508181036000830152613cc181613c85565b9050919050565b7f496e76616c696420737461747573000000000000000000000000000000000000600082015250565b6000613cfe600e836135b8565b9150613d0982613cc8565b602082019050919050565b60006020820190508181036000830152613d2d81613cf1565b9050919050565b6000602082019050613d4960008301846137de565b92915050565b7f4e6f742074686520726f757465206f776e657200000000000000000000000000600082015250565b6000613d856013836135b8565b9150613d9082613d4f565b602082019050919050565b60006020820190508181036000830152613db481613d78565b9050919050565b7f526f75746520616c726561647920696e61637469766500000000000000000000600082015250565b6000613df16016836135b8565b9150613dfc82613dbb565b602082019050919050565b60006020820190508181036000830152613e2081613de4565b9050919050565b7f4e6f742064697370757465640000000000000000000000000000000000000000600082015250565b6000613e5d600c836135b8565b9150613e6882613e27565b602082019050919050565b60006020820190508181036000830152613e8c81613e50565b9050919050565b7f4e487b7100000000000000000000000000000000000000000000000000000000600052601160045260246000fd5b6000613ecd8261329a565b9150613ed88361329a565b9250828202613ee68161329a565b91508282048414831517613efd57613efc613e93565b5b5092915050565b7f4e487b7100000000000000000000000000000000000000000000000000000000600052601260045260246000fd5b6000613f3e8261329a565b9150613f498361329a565b925082613f5957613f58613f04565b5b828204905092915050565b6000613f6f8261329a565b9150613f7a8361329a565b9250828203905081811115613f9257613f91613e93565b5b92915050565b6000602082019050613fad600083018461363d565b92915050565b7f43616e6e6f742072657669657720796f757273656c6600000000000000000000600082015250565b6000613fe96016836135b8565b9150613ff482613fb3565b602082019050919050565b6000602082019050818103600083015261401881613fdc565b9050919050565b600061402a8261329a565b91507fffffffffffffffffffffffffffffffffffffffffffffffffffffffffffffffff820361405c5761405b613e93565b5b600182019050919050565b7f4e6f20636f6d706c657465642064656c6976657269657320776974682074686960008201527f7320757365720000000000000000000000000000000000000000000000000000602082015250565b60006140c36026836135b8565b91506140ce82614067565b604082019050919050565b600060208201905081810360008301526140f2816140b6565b9050919050565b7f4465706172747572652074696d65206d75737420626520696e2074686520667560008201527f7475726500000000000000000000000000000000000000000000000000000000602082015250565b60006141556024836135b8565b9150614160826140f9565b604082019050919050565b6000602082019050818103600083015261418481614148565b9050919050565b7f4172726976616c2074696d65206d75737420626520616674657220646570617260008201527f747572652074696d650000000000000000000000000000000000000000000000602082015250565b60006141e76029836135b8565b91506141f28261418b565b604082019050919050565b60006020820190508181036000830152614216816141da565b9050919050565b7f417661696c61626c65207370616365206d75737420626520677265617465722060008201527f7468616e20300000000000000000000000000000000000000000000000000000602082015250565b60006142796026836135b8565b91506142848261421d565b604082019050919050565b600060208201905081810360008301526142a88161426c565b9050919050565b7f507269636520706572206b67206d75737420626520677265617465722074686160008201527f6e20300000000000000000000000000000000000000000000000000000000000602082015250565b600061430b6023836135b8565b9150614316826142af565b604082019050919050565b6000602082019050818103600083015261433a816142fe565b9050919050565b7f4e487b7100000000000000000000000000000000000000000000000000000000600052604160045260246000fd5b7f4e487b7100000000000000000000000000000000000000000000000000000000600052602260045260246000fd5b600060028204905060018216806143b757607f821691505b6020821081036143ca576143c9614370565b5b50919050565b60008190508160005260206000209050919050565b60006020601f8301049050919050565b600082821b905092915050565b6000600883026144327fffffffffffffffffffffffffffffffffffffffffffffffffffffffffffffffff826143f5565b61443c86836143f5565b95508019841693508086168417925050509392505050565b600061446f61446a6144658461329a565b613a12565b61329a565b9050919050565b6000819050919050565b61448983614454565b61449d61449582614476565b848454614402565b825550505050565b600090565b6144b26144a5565b6144bd818484614480565b505050565b5b818110156144e1576144d66000826144aa565b6001810190506144c3565b5050565b601f821115614526576144f7816143d0565b614500846143e5565b8101602085101561450f578190505b61452361451b856143e5565b8301826144c2565b50505b505050565b600082821c905092915050565b60006145496000198460080261452b565b1980831691505092915050565b60006145628383614538565b9150826002028217905092915050565b61457b826135ad565b67ffffffffffffffff81111561459457614593614341565b5b61459e825461439f565b6145a98282856144e5565b600060209050601f8311600181146145dc57600084156145ca578287015190505b6145d48582614556565b86555061463c565b601f1984166145ea866143d0565b60005b82811015614612578489015182556001820191506020850194506020810190506145ed565b8683101561462f578489015161462b601f891682614538565b8355505b6001600288020188555050505b505050505050565b7f526f757465206973206e6f742061637469766500000000000000000000000000600082015250565b600061467a6013836135b8565b915061468582614644565b602082019050919050565b600060208201905081810360008301526146a98161466d565b9050919050565b7f526f7574652068617320616c7265616479207374617274656400000000000000600082015250565b60006146e66019836135b8565b91506146f1826146b0565b602082019050919050565b60006020820190508181036000830152614715816146d9565b9050919050565b7f5061636b61676520776569676874206d7573742062652067726561746572207460008201527f68616e2030000000000000000000000000000000000000000000000000000000602082015250565b60006147786025836135b8565b91506147838261471c565b604082019050919050565b600060208201905081810360008301526147a78161476b565b9050919050565b7f4e6f7420656e6f75676820737061636520617661696c61626c65000000000000600082015250565b60006147e4601a836135b8565b91506147ef826147ae565b602082019050919050565b60006020820190508181036000830152614813816147d7565b9050919050565b60006148258261329a565b91506148308361329a565b925082820190508082111561484857614847613e93565b5b92915050565b7f46656520746f6f20686967680000000000000000000000000000000000000000600082015250565b6000614884600c836135b8565b915061488f8261484e565b602082019050919050565b600060208201905081810360008301526148b381614877565b9050919050565b7f4e6f7420696e766f6c76656420696e2064656c69766572790000000000000000600082015250565b60006148f06018836135b8565b91506148fb826148ba565b602082019050919050565b6000602082019050818103600083015261491f816148e3565b9050919050565b7f43616e6e6f74206469737075746520696e2063757272656e7420737461747573600082015250565b600061495c6020836135b8565b915061496782614926565b602082019050919050565b6000602082019050818103600083015261498b8161494f565b9050919050565b7f416c726561647920646973707574656400000000000000000000000000000000600082015250565b60006149c86010836135b8565b91506149d382614992565b602082019050919050565b600060208201905081810360008301526149f7816149bb565b9050919050565b600082905092915050565b614a1383836149fe565b67ffffffffffffffff811115614a2c57614a2b614341565b5b614a36825461439f565b614a418282856144e5565b6000601f831160018114614a705760008415614a5e578287013590505b614a688582614556565b865550614ad0565b601f198416614a7e866143d0565b60005b82811015614aa657848901358255600182019150602085019450602081019050614a81565b86831015614ac35784890135614abf601f891682614538565b8355505b6001600288020188555050505b50505050505050565b7f4f776e61626c653a206e6577206f776e657220697320746865207a65726f206160008201527f6464726573730000000000000000000000000000000000000000000000000000602082015250565b6000614b356026836135b8565b9150614b4082614ad9565b604082019050919050565b60006020820190508181036000830152614b6481614b28565b9050919050565b7f496e76616c696420616464726573730000000000000000000000000000000000600082015250565b6000614ba1600f836135b8565b9150614bac82614b6b565b602082019050919050565b60006020820190508181036000830152614bd081614b94565b9050919050565b7f4e6f742074686520736869707065720000000000000000000000000000000000600082015250565b6000614c0d600f836135b8565b9150614c1882614bd7565b602082019050919050565b60006020820190508181036000830152614c3c81614c00565b9050919050565b7f4f776e61626c653a2063616c6c6572206973206e6f7420746865206f776e6572600082015250565b6000614c796020836135b8565b9150614c8482614c43565b602082019050919050565b60006020820190508181036000830152614ca881614c6c565b9050919050565b7f5265656e7472616e637947756172643a207265656e7472616e742063616c6c00600082015250565b6000614ce5601f836135b8565b9150614cf082614caf565b602082019050919050565b60006020820190508181036000830152614d1481614cd8565b9050919050565b6000604082019050614d30600083018561359e565b614d3d6020830184613400565b9392505050565b6000606082019050614d59600083018661359e565b614d66602083018561359e565b614d736040830184613400565b949350505050565b600081519050614d8a81613309565b92915050565b600060208284031215614da657614da5613290565b5b6000614db484828501614d7b565b91505092915050565b7f5361666545524332303a204552433230206f7065726174696f6e20646964206e60008201527f6f74207375636365656400000000000000000000000000000000000000000000602082015250565b6000614e19602a836135b8565b9150614e2482614dbd565b604082019050919050565b60006020820190508181036000830152614e4881614e0c565b9050919050565b7f416464726573733a20696e73756666696369656e742062616c616e636520666f60008201527f722063616c6c0000000000000000000000000000000000000000000000000000602082015250565b6000614eab6026836135b8565b9150614eb682614e4f565b604082019050919050565b60006020820190508181036000830152614eda81614e9e565b9050919050565b600081519050919050565b600081905092915050565b6000614f0282614ee1565b614f0c8185614eec565b9350614f1c8185602086016135c9565b80840191505092915050565b6000614f348284614ef7565b915081905092915050565b7f416464726573733a2063616c6c20746f206e6f6e2d636f6e7472616374000000600082015250565b6000614f75601d836135b8565b9150614f8082614f3f565b602082019050919050565b60006020820190508181036000830152614fa481614f68565b9050919050565b60006020820190508181036000830152614fc58184613604565b90509291505056fea2646970667358221220d054b2ba7ceb5d62b7268dbe263eb8857bfcf858fc1db9f2eb9e817790cf9f9a64736f6c63430008140033","opcodes":"PUSH1 0x80 PUSH1 0x40 MSTORE PUSH1 0x5 PUSH1 0x3 SSTORE PUSH1 0x1 PUSH1 0x4 SSTORE PUSH1 0x1 PUSH1 0x5 SSTORE CALLVALUE DUP1 ISZERO PUSH3 0x20 JUMPI PUSH1 0x0 DUP1 REVERT JUMPDEST POP PUSH1 0x40 MLOAD PUSH3 0x5230 CODESIZE SUB DUP1 PUSH3 0x5230 DUP4 CODECOPY DUP2 DUP2 ADD PUSH1 0x40 MSTORE DUP2 ADD SWAP1 PUSH3 0x46 SWAP2 SWAP1 PUSH3 0x1EB JUMP JUMPDEST PUSH3 0x66 PUSH3 0x5A PUSH3 0xB5 PUSH1 0x20 SHL PUSH1 0x20 SHR JUMP JUMPDEST PUSH3 0xBD PUSH1 0x20 SHL PUSH1 0x20 SHR JUMP JUMPDEST PUSH1 0x1 DUP1 DUP2 SWAP1 SSTORE POP DUP1 PUSH1 0x2 PUSH1 0x0 PUSH2 0x100 EXP DUP2 SLOAD DUP2 PUSH20 0xFFFFFFFFFFFFFFFFFFFFFFFFFFFFFFFFFFFFFFFF MUL NOT AND SWAP1 DUP4 PUSH20 0xFFFFFFFFFFFFFFFFFFFFFFFFFFFFFFFFFFFFFFFF AND MUL OR SWAP1 SSTORE POP POP PUSH3 0x21D JUMP JUMPDEST PUSH1 0x0 CALLER SWAP1 POP SWAP1 JUMP JUMPDEST PUSH1 0x0 DUP1 PUSH1 0x0 SWAP1 SLOAD SWAP1 PUSH2 0x100 EXP SWAP1 DIV PUSH20 0xFFFFFFFFFFFFFFFFFFFFFFFFFFFFFFFFFFFFFFFF AND SWAP1 POP DUP2 PUSH1 0x0 DUP1 PUSH2 0x100 EXP DUP2 SLOAD DUP2 PUSH20 0xFFFFFFFFFFFFFFFFFFFFFFFFFFFFFFFFFFFFFFFF MUL NOT AND SWAP1 DUP4 PUSH20 0xFFFFFFFFFFFFFFFFFFFFFFFFFFFFFFFFFFFFFFFF AND MUL OR SWAP1 SSTORE POP DUP2 PUSH20 0xFFFFFFFFFFFFFFFFFFFFFFFFFFFFFFFFFFFFFFFF AND DUP2 PUSH20 0xFFFFFFFFFFFFFFFFFFFFFFFFFFFFFFFFFFFFFFFF AND PUSH32 0x8BE0079C531659141344CD1FD0A4F28419497F9722A3DAAFE3B4186F6B6457E0 PUSH1 0x40 MLOAD PUSH1 0x40 MLOAD DUP1 SWAP2 SUB SWAP1 LOG3 POP POP JUMP JUMPDEST PUSH1 0x0 DUP1 REVERT JUMPDEST PUSH1 0x0 PUSH20 0xFFFFFFFFFFFFFFFFFFFFFFFFFFFFFFFFFFFFFFFF DUP3 AND SWAP1 POP SWAP2 SWAP1 POP JUMP JUMPDEST PUSH1 0x0 PUSH3 0x1B3 DUP3 PUSH3 0x186 JUMP JUMPDEST SWAP1 POP SWAP2 SWAP1 POP JUMP JUMPDEST PUSH3 0x1C5 DUP2 PUSH3 0x1A6 JUMP JUMPDEST DUP2 EQ PUSH3 0x1D1 JUMPI PUSH1 0x0 DUP1 REVERT JUMPDEST POP JUMP JUMPDEST PUSH1 0x0 DUP2 MLOAD SWAP1 POP PUSH3 0x1E5 DUP2 PUSH3 0x1BA JUMP JUMPDEST SWAP3 SWAP2 POP POP JUMP JUMPDEST PUSH1 0x0 PUSH1 0x20 DUP3 DUP5 SUB SLT ISZERO PUSH3 0x204 JUMPI PUSH3 0x203 PUSH3 0x181 JUMP JUMPDEST JUMPDEST PUSH1 0x0 PUSH3 0x214 DUP5 DUP3 DUP6 ADD PUSH3 0x1D4 JUMP JUMPDEST SWAP2 POP POP SWAP3 SWAP2 POP POP JUMP JUMPDEST PUSH2 0x5003 DUP1 PUSH3 0x22D PUSH1 0x0 CODECOPY PUSH1 0x0 RETURN INVALID PUSH1 0x80 PUSH1 0x40 MSTORE CALLVALUE DUP1 ISZERO PUSH2 0x10 JUMPI PUSH1 0x0 DUP1 REVERT JUMPDEST POP PUSH1 0x4 CALLDATASIZE LT PUSH2 0x1A9 JUMPI PUSH1 0x0 CALLDATALOAD PUSH1 0xE0 SHR DUP1 PUSH4 0x8DA5CB5B GT PUSH2 0xF9 JUMPI DUP1 PUSH4 0xDE8211A9 GT PUSH2 0x97 JUMPI DUP1 PUSH4 0xF2FDE38B GT PUSH2 0x71 JUMPI DUP1 PUSH4 0xF2FDE38B EQ PUSH2 0x4DB JUMPI DUP1 PUSH4 0xFA66358A EQ PUSH2 0x4F7 JUMPI DUP1 PUSH4 0xFC8F20FA EQ PUSH2 0x527 JUMPI DUP1 PUSH4 0xFD84CB97 EQ PUSH2 0x543 JUMPI PUSH2 0x1A9 JUMP JUMPDEST DUP1 PUSH4 0xDE8211A9 EQ PUSH2 0x471 JUMPI DUP1 PUSH4 0xE9CBD822 EQ PUSH2 0x4A1 JUMPI DUP1 PUSH4 0xEBC4010A EQ PUSH2 0x4BF JUMPI PUSH2 0x1A9 JUMP JUMPDEST DUP1 PUSH4 0xAA0B5988 GT PUSH2 0xD3 JUMPI DUP1 PUSH4 0xAA0B5988 EQ PUSH2 0x3EB JUMPI DUP1 PUSH4 0xADCB9F04 EQ PUSH2 0x407 JUMPI DUP1 PUSH4 0xBF539CB4 EQ PUSH2 0x423 JUMPI DUP1 PUSH4 0xD8F097AB EQ PUSH2 0x441 JUMPI PUSH2 0x1A9 JUMP JUMPDEST DUP1 PUSH4 0x8DA5CB5B EQ PUSH2 0x378 JUMPI DUP1 PUSH4 0x968EE6ED EQ PUSH2 0x396 JUMPI DUP1 PUSH4 0xA9E4A324 EQ PUSH2 0x3B2 JUMPI PUSH2 0x1A9 JUMP JUMPDEST DUP1 PUSH4 0x5B77B6A6 GT PUSH2 0x166 JUMPI DUP1 PUSH4 0x75A67D5C GT PUSH2 0x140 JUMPI DUP1 PUSH4 0x75A67D5C EQ PUSH2 0x2DE JUMPI DUP1 PUSH4 0x7B422C4C EQ PUSH2 0x30E JUMPI DUP1 PUSH4 0x897CF905 EQ PUSH2 0x32A JUMPI DUP1 PUSH4 0x8C639A85 EQ PUSH2 0x35A JUMPI PUSH2 0x1A9 JUMP JUMPDEST DUP1 PUSH4 0x5B77B6A6 EQ PUSH2 0x27E JUMPI DUP1 PUSH4 0x715018A6 EQ PUSH2 0x29C JUMPI DUP1 PUSH4 0x726F16D8 EQ PUSH2 0x2A6 JUMPI PUSH2 0x1A9 JUMP JUMPDEST DUP1 PUSH4 0x21E9C317 EQ PUSH2 0x1AE JUMPI DUP1 PUSH4 0x279B6D31 EQ PUSH2 0x1CA JUMPI DUP1 PUSH4 0x34B25EE2 EQ PUSH2 0x1E6 JUMPI DUP1 PUSH4 0x488C76B9 EQ PUSH2 0x202 JUMPI DUP1 PUSH4 0x4DDD05C8 EQ PUSH2 0x232 JUMPI DUP1 PUSH4 0x516AC520 EQ PUSH2 0x24E JUMPI JUMPDEST PUSH1 0x0 DUP1 REVERT JUMPDEST PUSH2 0x1C8 PUSH1 0x4 DUP1 CALLDATASIZE SUB DUP2 ADD SWAP1 PUSH2 0x1C3 SWAP2 SWAP1 PUSH2 0x32D0 JUMP JUMPDEST PUSH2 0x55F JUMP JUMPDEST STOP JUMPDEST PUSH2 0x1E4 PUSH1 0x4 DUP1 CALLDATASIZE SUB DUP2 ADD SWAP1 PUSH2 0x1DF SWAP2 SWAP1 PUSH2 0x32D0 JUMP JUMPDEST PUSH2 0x6EA JUMP JUMPDEST STOP JUMPDEST PUSH2 0x200 PUSH1 0x4 DUP1 CALLDATASIZE SUB DUP2 ADD SWAP1 PUSH2 0x1FB SWAP2 SWAP1 PUSH2 0x3335 JUMP JUMPDEST PUSH2 0x832 JUMP JUMPDEST STOP JUMPDEST PUSH2 0x21C PUSH1 0x4 DUP1 CALLDATASIZE SUB DUP2 ADD SWAP1 PUSH2 0x217 SWAP2 SWAP1 PUSH2 0x33D3 JUMP JUMPDEST PUSH2 0xB53 JUMP JUMPDEST PUSH1 0x40 MLOAD PUSH2 0x229 SWAP2 SWAP1 PUSH2 0x340F JUMP JUMPDEST PUSH1 0x40 MLOAD DUP1 SWAP2 SUB SWAP1 RETURN JUMPDEST PUSH2 0x24C PUSH1 0x4 DUP1 CALLDATASIZE SUB DUP2 ADD SWAP1 PUSH2 0x247 SWAP2 SWAP1 PUSH2 0x342A JUMP JUMPDEST PUSH2 0xB6B JUMP JUMPDEST STOP JUMPDEST PUSH2 0x268 PUSH1 0x4 DUP1 CALLDATASIZE SUB DUP2 ADD SWAP1 PUSH2 0x263 SWAP2 SWAP1 PUSH2 0x34CF JUMP JUMPDEST PUSH2 0xF22 JUMP JUMPDEST PUSH1 0x40 MLOAD PUSH2 0x275 SWAP2 SWAP1 PUSH2 0x340F JUMP JUMPDEST PUSH1 0x40 MLOAD DUP1 SWAP2 SUB SWAP1 RETURN JUMPDEST PUSH2 0x286 PUSH2 0x125A JUMP JUMPDEST PUSH1 0x40 MLOAD PUSH2 0x293 SWAP2 SWAP1 PUSH2 0x340F JUMP JUMPDEST PUSH1 0x40 MLOAD DUP1 SWAP2 SUB SWAP1 RETURN JUMPDEST PUSH2 0x2A4 PUSH2 0x1270 JUMP JUMPDEST STOP JUMPDEST PUSH2 0x2C0 PUSH1 0x4 DUP1 CALLDATASIZE SUB DUP2 ADD SWAP1 PUSH2 0x2BB SWAP2 SWAP1 PUSH2 0x32D0 JUMP JUMPDEST PUSH2 0x1284 JUMP JUMPDEST PUSH1 0x40 MLOAD PUSH2 0x2D5 SWAP10 SWAP9 SWAP8 SWAP7 SWAP6 SWAP5 SWAP4 SWAP3 SWAP2 SWAP1 PUSH2 0x364C JUMP JUMPDEST PUSH1 0x40 MLOAD DUP1 SWAP2 SUB SWAP1 RETURN JUMPDEST PUSH2 0x2F8 PUSH1 0x4 DUP1 CALLDATASIZE SUB DUP2 ADD SWAP1 PUSH2 0x2F3 SWAP2 SWAP1 PUSH2 0x33D3 JUMP JUMPDEST PUSH2 0x140F JUMP JUMPDEST PUSH1 0x40 MLOAD PUSH2 0x305 SWAP2 SWAP1 PUSH2 0x340F JUMP JUMPDEST PUSH1 0x40 MLOAD DUP1 SWAP2 SUB SWAP1 RETURN JUMPDEST PUSH2 0x328 PUSH1 0x4 DUP1 CALLDATASIZE SUB DUP2 ADD SWAP1 PUSH2 0x323 SWAP2 SWAP1 PUSH2 0x32D0 JUMP JUMPDEST PUSH2 0x14FE JUMP JUMPDEST STOP JUMPDEST PUSH2 0x344 PUSH1 0x4 DUP1 CALLDATASIZE SUB DUP2 ADD SWAP1 PUSH2 0x33F SWAP2 SWAP1 PUSH2 0x36E7 JUMP JUMPDEST PUSH2 0x1689 JUMP JUMPDEST PUSH1 0x40 MLOAD PUSH2 0x351 SWAP2 SWAP1 PUSH2 0x340F JUMP JUMPDEST PUSH1 0x40 MLOAD DUP1 SWAP2 SUB SWAP1 RETURN JUMPDEST PUSH2 0x362 PUSH2 0x1B2A JUMP JUMPDEST PUSH1 0x40 MLOAD PUSH2 0x36F SWAP2 SWAP1 PUSH2 0x340F JUMP JUMPDEST PUSH1 0x40 MLOAD DUP1 SWAP2 SUB SWAP1 RETURN JUMPDEST PUSH2 0x380 PUSH2 0x1B30 JUMP JUMPDEST PUSH1 0x40 MLOAD PUSH2 0x38D SWAP2 SWAP1 PUSH2 0x375B JUMP JUMPDEST PUSH1 0x40 MLOAD DUP1 SWAP2 SUB SWAP1 RETURN JUMPDEST PUSH2 0x3B0 PUSH1 0x4 DUP1 CALLDATASIZE SUB DUP2 ADD SWAP1 PUSH2 0x3AB SWAP2 SWAP1 PUSH2 0x32D0 JUMP JUMPDEST PUSH2 0x1B59 JUMP JUMPDEST STOP JUMPDEST PUSH2 0x3CC PUSH1 0x4 DUP1 CALLDATASIZE SUB DUP2 ADD SWAP1 PUSH2 0x3C7 SWAP2 SWAP1 PUSH2 0x32D0 JUMP JUMPDEST PUSH2 0x1CE4 JUMP JUMPDEST PUSH1 0x40 MLOAD PUSH2 0x3E2 SWAP11 SWAP10 SWAP9 SWAP8 SWAP7 SWAP6 SWAP5 SWAP4 SWAP3 SWAP2 SWAP1 PUSH2 0x37ED JUMP JUMPDEST PUSH1 0x40 MLOAD DUP1 SWAP2 SUB SWAP1 RETURN JUMPDEST PUSH2 0x405 PUSH1 0x4 DUP1 CALLDATASIZE SUB DUP2 ADD SWAP1 PUSH2 0x400 SWAP2 SWAP1 PUSH2 0x32D0 JUMP JUMPDEST PUSH2 0x1E1A JUMP JUMPDEST STOP JUMPDEST PUSH2 0x421 PUSH1 0x4 DUP1 CALLDATASIZE SUB DUP2 ADD SWAP1 PUSH2 0x41C SWAP2 SWAP1 PUSH2 0x32D0 JUMP JUMPDEST PUSH2 0x1E70 JUMP JUMPDEST STOP JUMPDEST PUSH2 0x42B PUSH2 0x2171 JUMP JUMPDEST PUSH1 0x40 MLOAD PUSH2 0x438 SWAP2 SWAP1 PUSH2 0x340F JUMP JUMPDEST PUSH1 0x40 MLOAD DUP1 SWAP2 SUB SWAP1 RETURN JUMPDEST PUSH2 0x45B PUSH1 0x4 DUP1 CALLDATASIZE SUB DUP2 ADD SWAP1 PUSH2 0x456 SWAP2 SWAP1 PUSH2 0x33D3 JUMP JUMPDEST PUSH2 0x2187 JUMP JUMPDEST PUSH1 0x40 MLOAD PUSH2 0x468 SWAP2 SWAP1 PUSH2 0x340F JUMP JUMPDEST PUSH1 0x40 MLOAD DUP1 SWAP2 SUB SWAP1 RETURN JUMPDEST PUSH2 0x48B PUSH1 0x4 DUP1 CALLDATASIZE SUB DUP2 ADD SWAP1 PUSH2 0x486 SWAP2 SWAP1 PUSH2 0x32D0 JUMP JUMPDEST PUSH2 0x219F JUMP JUMPDEST PUSH1 0x40 MLOAD PUSH2 0x498 SWAP2 SWAP1 PUSH2 0x39F0 JUMP JUMPDEST PUSH1 0x40 MLOAD DUP1 SWAP2 SUB SWAP1 RETURN JUMPDEST PUSH2 0x4A9 PUSH2 0x2393 JUMP JUMPDEST PUSH1 0x40 MLOAD PUSH2 0x4B6 SWAP2 SWAP1 PUSH2 0x3A71 JUMP JUMPDEST PUSH1 0x40 MLOAD DUP1 SWAP2 SUB SWAP1 RETURN JUMPDEST PUSH2 0x4D9 PUSH1 0x4 DUP1 CALLDATASIZE SUB DUP2 ADD SWAP1 PUSH2 0x4D4 SWAP2 SWAP1 PUSH2 0x3A8C JUMP JUMPDEST PUSH2 0x23B9 JUMP JUMPDEST STOP JUMPDEST PUSH2 0x4F5 PUSH1 0x4 DUP1 CALLDATASIZE SUB DUP2 ADD SWAP1 PUSH2 0x4F0 SWAP2 SWAP1 PUSH2 0x33D3 JUMP JUMPDEST PUSH2 0x2688 JUMP JUMPDEST STOP JUMPDEST PUSH2 0x511 PUSH1 0x4 DUP1 CALLDATASIZE SUB DUP2 ADD SWAP1 PUSH2 0x50C SWAP2 SWAP1 PUSH2 0x32D0 JUMP JUMPDEST PUSH2 0x270B JUMP JUMPDEST PUSH1 0x40 MLOAD PUSH2 0x51E SWAP2 SWAP1 PUSH2 0x3C3A JUMP JUMPDEST PUSH1 0x40 MLOAD DUP1 SWAP2 SUB SWAP1 RETURN JUMPDEST PUSH2 0x541 PUSH1 0x4 DUP1 CALLDATASIZE SUB DUP2 ADD SWAP1 PUSH2 0x53C SWAP2 SWAP1 PUSH2 0x33D3 JUMP JUMPDEST PUSH2 0x2900 JUMP JUMPDEST STOP JUMPDEST PUSH2 0x55D PUSH1 0x4 DUP1 CALLDATASIZE SUB DUP2 ADD SWAP1 PUSH2 0x558 SWAP2 SWAP1 PUSH2 0x32D0 JUMP JUMPDEST PUSH2 0x29BB JUMP JUMPDEST STOP JUMPDEST PUSH1 0x0 PUSH1 0x7 PUSH1 0x0 DUP4 DUP2 MSTORE PUSH1 0x20 ADD SWAP1 DUP2 MSTORE PUSH1 0x20 ADD PUSH1 0x0 KECCAK256 SWAP1 POP CALLER PUSH20 0xFFFFFFFFFFFFFFFFFFFFFFFFFFFFFFFFFFFFFFFF AND DUP2 PUSH1 0x2 ADD PUSH1 0x0 SWAP1 SLOAD SWAP1 PUSH2 0x100 EXP SWAP1 DIV PUSH20 0xFFFFFFFFFFFFFFFFFFFFFFFFFFFFFFFFFFFFFFFF AND PUSH20 0xFFFFFFFFFFFFFFFFFFFFFFFFFFFFFFFFFFFFFFFF AND EQ PUSH2 0x608 JUMPI PUSH1 0x40 MLOAD PUSH32 0x8C379A000000000000000000000000000000000000000000000000000000000 DUP2 MSTORE PUSH1 0x4 ADD PUSH2 0x5FF SWAP1 PUSH2 0x3CA8 JUMP JUMPDEST PUSH1 0x40 MLOAD DUP1 SWAP2 SUB SWAP1 REVERT JUMPDEST PUSH1 0x1 PUSH1 0x6 DUP2 GT ISZERO PUSH2 0x61C JUMPI PUSH2 0x61B PUSH2 0x3776 JUMP JUMPDEST JUMPDEST DUP2 PUSH1 0x7 ADD PUSH1 0x0 SWAP1 SLOAD SWAP1 PUSH2 0x100 EXP SWAP1 DIV PUSH1 0xFF AND PUSH1 0x6 DUP2 GT ISZERO PUSH2 0x640 JUMPI PUSH2 0x63F PUSH2 0x3776 JUMP JUMPDEST JUMPDEST EQ PUSH2 0x680 JUMPI PUSH1 0x40 MLOAD PUSH32 0x8C379A000000000000000000000000000000000000000000000000000000000 DUP2 MSTORE PUSH1 0x4 ADD PUSH2 0x677 SWAP1 PUSH2 0x3D14 JUMP JUMPDEST PUSH1 0x40 MLOAD DUP1 SWAP2 SUB SWAP1 REVERT JUMPDEST PUSH1 0x2 DUP2 PUSH1 0x7 ADD PUSH1 0x0 PUSH2 0x100 EXP DUP2 SLOAD DUP2 PUSH1 0xFF MUL NOT AND SWAP1 DUP4 PUSH1 0x6 DUP2 GT ISZERO PUSH2 0x6A8 JUMPI PUSH2 0x6A7 PUSH2 0x3776 JUMP JUMPDEST JUMPDEST MUL OR SWAP1 SSTORE POP DUP2 PUSH32 0xF0AE3D24F582980763CBA4C6A774EC11622261C096524E28EE8075179A9E09AA PUSH1 0x2 PUSH1 0x40 MLOAD PUSH2 0x6DE SWAP2 SWAP1 PUSH2 0x3D34 JUMP JUMPDEST PUSH1 0x40 MLOAD DUP1 SWAP2 SUB SWAP1 LOG2 POP POP JUMP JUMPDEST PUSH1 0x0 PUSH1 0x6 PUSH1 0x0 DUP4 DUP2 MSTORE PUSH1 0x20 ADD SWAP1 DUP2 MSTORE PUSH1 0x20 ADD PUSH1 0x0 KECCAK256 SWAP1 POP CALLER PUSH20 0xFFFFFFFFFFFFFFFFFFFFFFFFFFFFFFFFFFFFFFFF AND DUP2 PUSH1 0x1 ADD PUSH1 0x0 SWAP1 SLOAD SWAP1 PUSH2 0x100 EXP SWAP1 DIV PUSH20 0xFFFFFFFFFFFFFFFFFFFFFFFFFFFFFFFFFFFFFFFF AND PUSH20 0xFFFFFFFFFFFFFFFFFFFFFFFFFFFFFFFFFFFFFFFF AND EQ PUSH2 0x793 JUMPI PUSH1 0x40 MLOAD PUSH32 0x8C379A000000000000000000000000000000000000000000000000000000000 DUP2 MSTORE PUSH1 0x4 ADD PUSH2 0x78A SWAP1 PUSH2 0x3D9B JUMP JUMPDEST PUSH1 0x40 MLOAD DUP1 SWAP2 SUB SWAP1 REVERT JUMPDEST DUP1 PUSH1 0x8 ADD PUSH1 0x0 SWAP1 SLOAD SWAP1 PUSH2 0x100 EXP SWAP1 DIV PUSH1 0xFF AND PUSH2 0x7E4 JUMPI PUSH1 0x40 MLOAD PUSH32 0x8C379A000000000000000000000000000000000000000000000000000000000 DUP2 MSTORE PUSH1 0x4 ADD PUSH2 0x7DB SWAP1 PUSH2 0x3E07 JUMP JUMPDEST PUSH1 0x40 MLOAD DUP1 SWAP2 SUB SWAP1 REVERT JUMPDEST PUSH1 0x0 DUP2 PUSH1 0x8 ADD PUSH1 0x0 PUSH2 0x100 EXP DUP2 SLOAD DUP2 PUSH1 0xFF MUL NOT AND SWAP1 DUP4 ISZERO ISZERO MUL OR SWAP1 SSTORE POP DUP2 PUSH32 0x9F561157C75FA5E0E6C41640120907AB19ECAF36E8F8368A6FCCDFFF1F5A0B37 PUSH1 0x40 MLOAD PUSH1 0x40 MLOAD DUP1 SWAP2 SUB SWAP1 LOG2 POP POP JUMP JUMPDEST PUSH2 0x83A PUSH2 0x2C53 JUMP JUMPDEST PUSH2 0x842 PUSH2 0x2CD1 JUMP JUMPDEST PUSH1 0x0 PUSH1 0x7 PUSH1 0x0 DUP5 DUP2 MSTORE PUSH1 0x20 ADD SWAP1 DUP2 MSTORE PUSH1 0x20 ADD PUSH1 0x0 KECCAK256 SWAP1 POP PUSH1 0x6 DUP1 DUP2 GT ISZERO PUSH2 0x86C JUMPI PUSH2 0x86B PUSH2 0x3776 JUMP JUMPDEST JUMPDEST DUP2 PUSH1 0x7 ADD PUSH1 0x0 SWAP1 SLOAD SWAP1 PUSH2 0x100 EXP SWAP1 DIV PUSH1 0xFF AND PUSH1 0x6 DUP2 GT ISZERO PUSH2 0x890 JUMPI PUSH2 0x88F PUSH2 0x3776 JUMP JUMPDEST JUMPDEST EQ PUSH2 0x8D0 JUMPI PUSH1 0x40 MLOAD PUSH32 0x8C379A000000000000000000000000000000000000000000000000000000000 DUP2 MSTORE PUSH1 0x4 ADD PUSH2 0x8C7 SWAP1 PUSH2 0x3E73 JUMP JUMPDEST PUSH1 0x40 MLOAD DUP1 SWAP2 SUB SWAP1 REVERT JUMPDEST DUP2 ISZERO PUSH2 0xA05 JUMPI PUSH1 0x0 PUSH1 0x64 PUSH1 0x3 SLOAD DUP4 PUSH1 0x6 ADD SLOAD PUSH2 0x8EC SWAP2 SWAP1 PUSH2 0x3EC2 JUMP JUMPDEST PUSH2 0x8F6 SWAP2 SWAP1 PUSH2 0x3F33 JUMP JUMPDEST SWAP1 POP PUSH1 0x0 DUP2 DUP4 PUSH1 0x6 ADD SLOAD PUSH2 0x90A SWAP2 SWAP1 PUSH2 0x3F64 JUMP JUMPDEST SWAP1 POP PUSH2 0x97D DUP4 PUSH1 0x2 ADD PUSH1 0x0 SWAP1 SLOAD SWAP1 PUSH2 0x100 EXP SWAP1 DIV PUSH20 0xFFFFFFFFFFFFFFFFFFFFFFFFFFFFFFFFFFFFFFFF AND DUP3 PUSH1 0x2 PUSH1 0x0 SWAP1 SLOAD SWAP1 PUSH2 0x100 EXP SWAP1 DIV PUSH20 0xFFFFFFFFFFFFFFFFFFFFFFFFFFFFFFFFFFFFFFFF AND PUSH20 0xFFFFFFFFFFFFFFFFFFFFFFFFFFFFFFFFFFFFFFFF AND PUSH2 0x2D20 SWAP1 SWAP3 SWAP2 SWAP1 PUSH4 0xFFFFFFFF AND JUMP JUMPDEST PUSH2 0x9D1 PUSH2 0x988 PUSH2 0x1B30 JUMP JUMPDEST DUP4 PUSH1 0x2 PUSH1 0x0 SWAP1 SLOAD SWAP1 PUSH2 0x100 EXP SWAP1 DIV PUSH20 0xFFFFFFFFFFFFFFFFFFFFFFFFFFFFFFFFFFFFFFFF AND PUSH20 0xFFFFFFFFFFFFFFFFFFFFFFFFFFFFFFFFFFFFFFFF AND PUSH2 0x2D20 SWAP1 SWAP3 SWAP2 SWAP1 PUSH4 0xFFFFFFFF AND JUMP JUMPDEST PUSH1 0x4 DUP4 PUSH1 0x7 ADD PUSH1 0x0 PUSH2 0x100 EXP DUP2 SLOAD DUP2 PUSH1 0xFF MUL NOT AND SWAP1 DUP4 PUSH1 0x6 DUP2 GT ISZERO PUSH2 0x9F9 JUMPI PUSH2 0x9F8 PUSH2 0x3776 JUMP JUMPDEST JUMPDEST MUL OR SWAP1 SSTORE POP POP POP PUSH2 0xAA8 JUMP JUMPDEST PUSH2 0xA7A DUP2 PUSH1 0x3 ADD PUSH1 0x0 SWAP1 SLOAD SWAP1 PUSH2 0x100 EXP SWAP1 DIV PUSH20 0xFFFFFFFFFFFFFFFFFFFFFFFFFFFFFFFFFFFFFFFF AND DUP3 PUSH1 0x6 ADD SLOAD PUSH1 0x2 PUSH1 0x0 SWAP1 SLOAD SWAP1 PUSH2 0x100 EXP SWAP1 DIV PUSH20 0xFFFFFFFFFFFFFFFFFFFFFFFFFFFFFFFFFFFFFFFF AND PUSH20 0xFFFFFFFFFFFFFFFFFFFFFFFFFFFFFFFFFFFFFFFF AND PUSH2 0x2D20 SWAP1 SWAP3 SWAP2 SWAP1 PUSH4 0xFFFFFFFF AND JUMP JUMPDEST PUSH1 0x5 DUP2 PUSH1 0x7 ADD PUSH1 0x0 PUSH2 0x100 EXP DUP2 SLOAD DUP2 PUSH1 0xFF MUL NOT AND SWAP1 DUP4 PUSH1 0x6 DUP2 GT ISZERO PUSH2 0xAA2 JUMPI PUSH2 0xAA1 PUSH2 0x3776 JUMP JUMPDEST JUMPDEST MUL OR SWAP1 SSTORE POP JUMPDEST PUSH1 0x0 DUP2 PUSH1 0x9 ADD PUSH1 0x0 PUSH2 0x100 EXP DUP2 SLOAD DUP2 PUSH1 0xFF MUL NOT AND SWAP1 DUP4 ISZERO ISZERO MUL OR SWAP1 SSTORE POP DUP3 PUSH32 0x9231F7EFEF3140FD357C674878A8E13CA737C7D3ADE427EF98EC0F8F1BDBA7F DUP4 PUSH1 0x40 MLOAD PUSH2 0xAF5 SWAP2 SWAP1 PUSH2 0x3F98 JUMP JUMPDEST PUSH1 0x40 MLOAD DUP1 SWAP2 SUB SWAP1 LOG2 DUP3 PUSH32 0xF0AE3D24F582980763CBA4C6A774EC11622261C096524E28EE8075179A9E09AA DUP3 PUSH1 0x7 ADD PUSH1 0x0 SWAP1 SLOAD SWAP1 PUSH2 0x100 EXP SWAP1 DIV PUSH1 0xFF AND PUSH1 0x40 MLOAD PUSH2 0xB3E SWAP2 SWAP1 PUSH2 0x3D34 JUMP JUMPDEST PUSH1 0x40 MLOAD DUP1 SWAP2 SUB SWAP1 LOG2 POP PUSH2 0xB4F PUSH2 0x2DA6 JUMP JUMPDEST POP POP JUMP JUMPDEST PUSH1 0x8 PUSH1 0x20 MSTORE DUP1 PUSH1 0x0 MSTORE PUSH1 0x40 PUSH1 0x0 KECCAK256 PUSH1 0x0 SWAP2 POP SWAP1 POP SLOAD DUP2 JUMP JUMPDEST CALLER PUSH20 0xFFFFFFFFFFFFFFFFFFFFFFFFFFFFFFFFFFFFFFFF AND DUP3 PUSH20 0xFFFFFFFFFFFFFFFFFFFFFFFFFFFFFFFFFFFFFFFF AND SUB PUSH2 0xBD9 JUMPI PUSH1 0x40 MLOAD PUSH32 0x8C379A000000000000000000000000000000000000000000000000000000000 DUP2 MSTORE PUSH1 0x4 ADD PUSH2 0xBD0 SWAP1 PUSH2 0x3FFF JUMP JUMPDEST PUSH1 0x40 MLOAD DUP1 SWAP2 SUB SWAP1 REVERT JUMPDEST PUSH1 0x0 DUP1 PUSH1 0x1 SWAP1 POP JUMPDEST PUSH1 0x5 SLOAD DUP2 LT ISZERO PUSH2 0xDC6 JUMPI PUSH1 0x0 PUSH1 0x7 PUSH1 0x0 DUP4 DUP2 MSTORE PUSH1 0x20 ADD SWAP1 DUP2 MSTORE PUSH1 0x20 ADD PUSH1 0x0 KECCAK256 SWAP1 POP PUSH1 0x4 PUSH1 0x6 DUP2 GT ISZERO PUSH2 0xC16 JUMPI PUSH2 0xC15 PUSH2 0x3776 JUMP JUMPDEST JUMPDEST DUP2 PUSH1 0x7 ADD PUSH1 0x0 SWAP1 SLOAD SWAP1 PUSH2 0x100 EXP SWAP1 DIV PUSH1 0xFF AND PUSH1 0x6 DUP2 GT ISZERO PUSH2 0xC3A JUMPI PUSH2 0xC39 PUSH2 0x3776 JUMP JUMPDEST JUMPDEST SUB PUSH2 0xDB2 JUMPI CALLER PUSH20 0xFFFFFFFFFFFFFFFFFFFFFFFFFFFFFFFFFFFFFFFF AND DUP2 PUSH1 0x2 ADD PUSH1 0x0 SWAP1 SLOAD SWAP1 PUSH2 0x100 EXP SWAP1 DIV PUSH20 0xFFFFFFFFFFFFFFFFFFFFFFFFFFFFFFFFFFFFFFFF AND PUSH20 0xFFFFFFFFFFFFFFFFFFFFFFFFFFFFFFFFFFFFFFFF AND EQ DUP1 ISZERO PUSH2 0xCED JUMPI POP DUP5 PUSH20 0xFFFFFFFFFFFFFFFFFFFFFFFFFFFFFFFFFFFFFFFF AND DUP2 PUSH1 0x3 ADD PUSH1 0x0 SWAP1 SLOAD SWAP1 PUSH2 0x100 EXP SWAP1 DIV PUSH20 0xFFFFFFFFFFFFFFFFFFFFFFFFFFFFFFFFFFFFFFFF AND PUSH20 0xFFFFFFFFFFFFFFFFFFFFFFFFFFFFFFFFFFFFFFFF AND EQ JUMPDEST DUP1 PUSH2 0xDA2 JUMPI POP CALLER PUSH20 0xFFFFFFFFFFFFFFFFFFFFFFFFFFFFFFFFFFFFFFFF AND DUP2 PUSH1 0x3 ADD PUSH1 0x0 SWAP1 SLOAD SWAP1 PUSH2 0x100 EXP SWAP1 DIV PUSH20 0xFFFFFFFFFFFFFFFFFFFFFFFFFFFFFFFFFFFFFFFF AND PUSH20 0xFFFFFFFFFFFFFFFFFFFFFFFFFFFFFFFFFFFFFFFF AND EQ DUP1 ISZERO PUSH2 0xDA1 JUMPI POP DUP5 PUSH20 0xFFFFFFFFFFFFFFFFFFFFFFFFFFFFFFFFFFFFFFFF AND DUP2 PUSH1 0x2 ADD PUSH1 0x0 SWAP1 SLOAD SWAP1 PUSH2 0x100 EXP SWAP1 DIV PUSH20 0xFFFFFFFFFFFFFFFFFFFFFFFFFFFFFFFFFFFFFFFF AND PUSH20 0xFFFFFFFFFFFFFFFFFFFFFFFFFFFFFFFFFFFFFFFF AND EQ JUMPDEST JUMPDEST ISZERO PUSH2 0xDB1 JUMPI PUSH1 0x1 SWAP3 POP POP PUSH2 0xDC6 JUMP JUMPDEST JUMPDEST POP DUP1 DUP1 PUSH2 0xDBE SWAP1 PUSH2 0x401F JUMP JUMPDEST SWAP2 POP POP PUSH2 0xBE1 JUMP JUMPDEST POP DUP1 PUSH2 0xE07 JUMPI PUSH1 0x40 MLOAD PUSH32 0x8C379A000000000000000000000000000000000000000000000000000000000 DUP2 MSTORE PUSH1 0x4 ADD PUSH2 0xDFE SWAP1 PUSH2 0x40D9 JUMP JUMPDEST PUSH1 0x40 MLOAD DUP1 SWAP2 SUB SWAP1 REVERT JUMPDEST PUSH1 0x9 PUSH1 0x0 DUP5 PUSH20 0xFFFFFFFFFFFFFFFFFFFFFFFFFFFFFFFFFFFFFFFF AND PUSH20 0xFFFFFFFFFFFFFFFFFFFFFFFFFFFFFFFFFFFFFFFF AND DUP2 MSTORE PUSH1 0x20 ADD SWAP1 DUP2 MSTORE PUSH1 0x20 ADD PUSH1 0x0 KECCAK256 PUSH1 0x0 DUP2 SLOAD DUP1 SWAP3 SWAP2 SWAP1 PUSH2 0xE57 SWAP1 PUSH2 0x401F JUMP JUMPDEST SWAP2 SWAP1 POP SSTORE POP DUP2 ISZERO PUSH2 0xEB8 JUMPI PUSH1 0x8 PUSH1 0x0 DUP5 PUSH20 0xFFFFFFFFFFFFFFFFFFFFFFFFFFFFFFFFFFFFFFFF AND PUSH20 0xFFFFFFFFFFFFFFFFFFFFFFFFFFFFFFFFFFFFFFFF AND DUP2 MSTORE PUSH1 0x20 ADD SWAP1 DUP2 MSTORE PUSH1 0x20 ADD PUSH1 0x0 KECCAK256 PUSH1 0x0 DUP2 SLOAD DUP1 SWAP3 SWAP2 SWAP1 PUSH2 0xEB2 SWAP1 PUSH2 0x401F JUMP JUMPDEST SWAP2 SWAP1 POP SSTORE POP JUMPDEST DUP3 PUSH20 0xFFFFFFFFFFFFFFFFFFFFFFFFFFFFFFFFFFFFFFFF AND CALLER PUSH20 0xFFFFFFFFFFFFFFFFFFFFFFFFFFFFFFFFFFFFFFFF AND PUSH32 0x259E1551339EC763826D488867A15312A343949BEEDEEE70EBC40842C3A17C2 DUP5 PUSH1 0x40 MLOAD PUSH2 0xF15 SWAP2 SWAP1 PUSH2 0x3F98 JUMP JUMPDEST PUSH1 0x40 MLOAD DUP1 SWAP2 SUB SWAP1 LOG3 POP POP POP JUMP JUMPDEST PUSH1 0x0 TIMESTAMP DUP6 GT PUSH2 0xF66 JUMPI PUSH1 0x40 MLOAD PUSH32 0x8C379A000000000000000000000000000000000000000000000000000000000 DUP2 MSTORE PUSH1 0x4 ADD PUSH2 0xF5D SWAP1 PUSH2 0x416B JUMP JUMPDEST PUSH1 0x40 MLOAD DUP1 SWAP2 SUB SWAP1 REVERT JUMPDEST DUP5 DUP5 GT PUSH2 0xFA8 JUMPI PUSH1 0x40 MLOAD PUSH32 0x8C379A000000000000000000000000000000000000000000000000000000000 DUP2 MSTORE PUSH1 0x4 ADD PUSH2 0xF9F SWAP1 PUSH2 0x41FD JUMP JUMPDEST PUSH1 0x40 MLOAD DUP1 SWAP2 SUB SWAP1 REVERT JUMPDEST PUSH1 0x0 DUP4 GT PUSH2 0xFEB JUMPI PUSH1 0x40 MLOAD PUSH32 0x8C379A000000000000000000000000000000000000000000000000000000000 DUP2 MSTORE PUSH1 0x4 ADD PUSH2 0xFE2 SWAP1 PUSH2 0x428F JUMP JUMPDEST PUSH1 0x40 MLOAD DUP1 SWAP2 SUB SWAP1 REVERT JUMPDEST PUSH1 0x0 DUP3 GT PUSH2 0x102E JUMPI PUSH1 0x40 MLOAD PUSH32 0x8C379A000000000000000000000000000000000000000000000000000000000 DUP2 MSTORE PUSH1 0x4 ADD PUSH2 0x1025 SWAP1 PUSH2 0x4321 JUMP JUMPDEST PUSH1 0x40 MLOAD DUP1 SWAP2 SUB SWAP1 REVERT JUMPDEST PUSH1 0x0 PUSH1 0x4 PUSH1 0x0 DUP2 SLOAD DUP1 SWAP3 SWAP2 SWAP1 PUSH2 0x1043 SWAP1 PUSH2 0x401F JUMP JUMPDEST SWAP2 SWAP1 POP SSTORE SWAP1 POP PUSH1 0x40 MLOAD DUP1 PUSH2 0x120 ADD PUSH1 0x40 MSTORE DUP1 DUP3 DUP2 MSTORE PUSH1 0x20 ADD CALLER PUSH20 0xFFFFFFFFFFFFFFFFFFFFFFFFFFFFFFFFFFFFFFFF AND DUP2 MSTORE PUSH1 0x20 ADD DUP12 DUP12 DUP1 DUP1 PUSH1 0x1F ADD PUSH1 0x20 DUP1 SWAP2 DIV MUL PUSH1 0x20 ADD PUSH1 0x40 MLOAD SWAP1 DUP2 ADD PUSH1 0x40 MSTORE DUP1 SWAP4 SWAP3 SWAP2 SWAP1 DUP2 DUP2 MSTORE PUSH1 0x20 ADD DUP4 DUP4 DUP1 DUP3 DUP5 CALLDATACOPY PUSH1 0x0 DUP2 DUP5 ADD MSTORE PUSH1 0x1F NOT PUSH1 0x1F DUP3 ADD AND SWAP1 POP DUP1 DUP4 ADD SWAP3 POP POP POP POP POP POP POP DUP2 MSTORE PUSH1 0x20 ADD DUP10 DUP10 DUP1 DUP1 PUSH1 0x1F ADD PUSH1 0x20 DUP1 SWAP2 DIV MUL PUSH1 0x20 ADD PUSH1 0x40 MLOAD SWAP1 DUP2 ADD PUSH1 0x40 MSTORE DUP1 SWAP4 SWAP3 SWAP2 SWAP1 DUP2 DUP2 MSTORE PUSH1 0x20 ADD DUP4 DUP4 DUP1 DUP3 DUP5 CALLDATACOPY PUSH1 0x0 DUP2 DUP5 ADD MSTORE PUSH1 0x1F NOT PUSH1 0x1F DUP3 ADD AND SWAP1 POP DUP1 DUP4 ADD SWAP3 POP POP POP POP POP POP POP DUP2 MSTORE PUSH1 0x20 ADD DUP8 DUP2 MSTORE PUSH1 0x20 ADD DUP7 DUP2 MSTORE PUSH1 0x20 ADD DUP6 DUP2 MSTORE PUSH1 0x20 ADD DUP5 DUP2 MSTORE PUSH1 0x20 ADD PUSH1 0x1 ISZERO ISZERO DUP2 MSTORE POP PUSH1 0x6 PUSH1 0x0 DUP4 DUP2 MSTORE PUSH1 0x20 ADD SWAP1 DUP2 MSTORE PUSH1 0x20 ADD PUSH1 0x0 KECCAK256 PUSH1 0x0 DUP3 ADD MLOAD DUP2 PUSH1 0x0 ADD SSTORE PUSH1 0x20 DUP3 ADD MLOAD DUP2 PUSH1 0x1 ADD PUSH1 0x0 PUSH2 0x100 EXP DUP2 SLOAD DUP2 PUSH20 0xFFFFFFFFFFFFFFFFFFFFFFFFFFFFFFFFFFFFFFFF MUL NOT AND SWAP1 DUP4 PUSH20 0xFFFFFFFFFFFFFFFFFFFFFFFFFFFFFFFFFFFFFFFF AND MUL OR SWAP1 SSTORE POP PUSH1 0x40 DUP3 ADD MLOAD DUP2 PUSH1 0x2 ADD SWAP1 DUP2 PUSH2 0x11A3 SWAP2 SWAP1 PUSH2 0x4572 JUMP JUMPDEST POP PUSH1 0x60 DUP3 ADD MLOAD DUP2 PUSH1 0x3 ADD SWAP1 DUP2 PUSH2 0x11B9 SWAP2 SWAP1 PUSH2 0x4572 JUMP JUMPDEST POP PUSH1 0x80 DUP3 ADD MLOAD DUP2 PUSH1 0x4 ADD SSTORE PUSH1 0xA0 DUP3 ADD MLOAD DUP2 PUSH1 0x5 ADD SSTORE PUSH1 0xC0 DUP3 ADD MLOAD DUP2 PUSH1 0x6 ADD SSTORE PUSH1 0xE0 DUP3 ADD MLOAD DUP2 PUSH1 0x7 ADD SSTORE PUSH2 0x100 DUP3 ADD MLOAD DUP2 PUSH1 0x8 ADD PUSH1 0x0 PUSH2 0x100 EXP DUP2 SLOAD DUP2 PUSH1 0xFF MUL NOT AND SWAP1 DUP4 ISZERO ISZERO MUL OR SWAP1 SSTORE POP SWAP1 POP POP CALLER PUSH20 0xFFFFFFFFFFFFFFFFFFFFFFFFFFFFFFFFFFFFFFFF AND DUP2 PUSH32 0xA96E30B24CB5B4B1A74EDDFCC41CEBBF0151D31CCD4CAC2D89A0882211704E4 PUSH1 0x40 MLOAD PUSH1 0x40 MLOAD DUP1 SWAP2 SUB SWAP1 LOG3 DUP1 SWAP2 POP POP SWAP9 SWAP8 POP POP POP POP POP POP POP POP JUMP JUMPDEST PUSH1 0x0 PUSH1 0x1 PUSH1 0x5 SLOAD PUSH2 0x126B SWAP2 SWAP1 PUSH2 0x3F64 JUMP JUMPDEST SWAP1 POP SWAP1 JUMP JUMPDEST PUSH2 0x1278 PUSH2 0x2C53 JUMP JUMPDEST PUSH2 0x1282 PUSH1 0x0 PUSH2 0x2DAF JUMP JUMPDEST JUMP JUMPDEST PUSH1 0x6 PUSH1 0x20 MSTORE DUP1 PUSH1 0x0 MSTORE PUSH1 0x40 PUSH1 0x0 KECCAK256 PUSH1 0x0 SWAP2 POP SWAP1 POP DUP1 PUSH1 0x0 ADD SLOAD SWAP1 DUP1 PUSH1 0x1 ADD PUSH1 0x0 SWAP1 SLOAD SWAP1 PUSH2 0x100 EXP SWAP1 DIV PUSH20 0xFFFFFFFFFFFFFFFFFFFFFFFFFFFFFFFFFFFFFFFF AND SWAP1 DUP1 PUSH1 0x2 ADD DUP1 SLOAD PUSH2 0x12D3 SWAP1 PUSH2 0x439F JUMP JUMPDEST DUP1 PUSH1 0x1F ADD PUSH1 0x20 DUP1 SWAP2 DIV MUL PUSH1 0x20 ADD PUSH1 0x40 MLOAD SWAP1 DUP2 ADD PUSH1 0x40 MSTORE DUP1 SWAP3 SWAP2 SWAP1 DUP2 DUP2 MSTORE PUSH1 0x20 ADD DUP3 DUP1 SLOAD PUSH2 0x12FF SWAP1 PUSH2 0x439F JUMP JUMPDEST DUP1 ISZERO PUSH2 0x134C JUMPI DUP1 PUSH1 0x1F LT PUSH2 0x1321 JUMPI PUSH2 0x100 DUP1 DUP4 SLOAD DIV MUL DUP4 MSTORE SWAP2 PUSH1 0x20 ADD SWAP2 PUSH2 0x134C JUMP JUMPDEST DUP3 ADD SWAP2 SWAP1 PUSH1 0x0 MSTORE PUSH1 0x20 PUSH1 0x0 KECCAK256 SWAP1 JUMPDEST DUP2 SLOAD DUP2 MSTORE SWAP1 PUSH1 0x1 ADD SWAP1 PUSH1 0x20 ADD DUP1 DUP4 GT PUSH2 0x132F JUMPI DUP3 SWAP1 SUB PUSH1 0x1F AND DUP3 ADD SWAP2 JUMPDEST POP POP POP POP POP SWAP1 DUP1 PUSH1 0x3 ADD DUP1 SLOAD PUSH2 0x1361 SWAP1 PUSH2 0x439F JUMP JUMPDEST DUP1 PUSH1 0x1F ADD PUSH1 0x20 DUP1 SWAP2 DIV MUL PUSH1 0x20 ADD PUSH1 0x40 MLOAD SWAP1 DUP2 ADD PUSH1 0x40 MSTORE DUP1 SWAP3 SWAP2 SWAP1 DUP2 DUP2 MSTORE PUSH1 0x20 ADD DUP3 DUP1 SLOAD PUSH2 0x138D SWAP1 PUSH2 0x439F JUMP JUMPDEST DUP1 ISZERO PUSH2 0x13DA JUMPI DUP1 PUSH1 0x1F LT PUSH2 0x13AF JUMPI PUSH2 0x100 DUP1 DUP4 SLOAD DIV MUL DUP4 MSTORE SWAP2 PUSH1 0x20 ADD SWAP2 PUSH2 0x13DA JUMP JUMPDEST DUP3 ADD SWAP2 SWAP1 PUSH1 0x0 MSTORE PUSH1 0x20 PUSH1 0x0 KECCAK256 SWAP1 JUMPDEST DUP2 SLOAD DUP2 MSTORE SWAP1 PUSH1 0x1 ADD SWAP1 PUSH1 0x20 ADD DUP1 DUP4 GT PUSH2 0x13BD JUMPI DUP3 SWAP1 SUB PUSH1 0x1F AND DUP3 ADD SWAP2 JUMPDEST POP POP POP POP POP SWAP1 DUP1 PUSH1 0x4 ADD SLOAD SWAP1 DUP1 PUSH1 0x5 ADD SLOAD SWAP1 DUP1 PUSH1 0x6 ADD SLOAD SWAP1 DUP1 PUSH1 0x7 ADD SLOAD SWAP1 DUP1 PUSH1 0x8 ADD PUSH1 0x0 SWAP1 SLOAD SWAP1 PUSH2 0x100 EXP SWAP1 DIV PUSH1 0xFF AND SWAP1 POP DUP10 JUMP JUMPDEST PUSH1 0x0 DUP1 PUSH1 0x9 PUSH1 0x0 DUP5 PUSH20 0xFFFFFFFFFFFFFFFFFFFFFFFFFFFFFFFFFFFFFFFF AND PUSH20 0xFFFFFFFFFFFFFFFFFFFFFFFFFFFFFFFFFFFFFFFF AND DUP2 MSTORE PUSH1 0x20 ADD SWAP1 DUP2 MSTORE PUSH1 0x20 ADD PUSH1 0x0 KECCAK256 SLOAD SUB PUSH2 0x1460 JUMPI PUSH1 0x0 SWAP1 POP PUSH2 0x14F9 JUMP JUMPDEST PUSH1 0x9 PUSH1 0x0 DUP4 PUSH20 0xFFFFFFFFFFFFFFFFFFFFFFFFFFFFFFFFFFFFFFFF AND PUSH20 0xFFFFFFFFFFFFFFFFFFFFFFFFFFFFFFFFFFFFFFFF AND DUP2 MSTORE PUSH1 0x20 ADD SWAP1 DUP2 MSTORE PUSH1 0x20 ADD PUSH1 0x0 KECCAK256 SLOAD PUSH1 0x64 PUSH1 0x8 PUSH1 0x0 DUP6 PUSH20 0xFFFFFFFFFFFFFFFFFFFFFFFFFFFFFFFFFFFFFFFF AND PUSH20 0xFFFFFFFFFFFFFFFFFFFFFFFFFFFFFFFFFFFFFFFF AND DUP2 MSTORE PUSH1 0x20 ADD SWAP1 DUP2 MSTORE PUSH1 0x20 ADD PUSH1 0x0 KECCAK256 SLOAD PUSH2 0x14EC SWAP2 SWAP1 PUSH2 0x3EC2 JUMP JUMPDEST PUSH2 0x14F6 SWAP2 SWAP1 PUSH2 0x3F33 JUMP JUMPDEST SWAP1 POP JUMPDEST SWAP2 SWAP1 POP JUMP JUMPDEST PUSH1 0x0 PUSH1 0x7 PUSH1 0x0 DUP4 DUP2 MSTORE PUSH1 0x20 ADD SWAP1 DUP2 MSTORE PUSH1 0x20 ADD PUSH1 0x0 KECCAK256 SWAP1 POP CALLER PUSH20 0xFFFFFFFFFFFFFFFFFFFFFFFFFFFFFFFFFFFFFFFF AND DUP2 PUSH1 0x2 ADD PUSH1 0x0 SWAP1 SLOAD SWAP1 PUSH2 0x100 EXP SWAP1 DIV PUSH20 0xFFFFFFFFFFFFFFFFFFFFFFFFFFFFFFFFFFFFFFFF AND PUSH20 0xFFFFFFFFFFFFFFFFFFFFFFFFFFFFFFFFFFFFFFFF AND EQ PUSH2 0x15A7 JUMPI PUSH1 0x40 MLOAD PUSH32 0x8C379A000000000000000000000000000000000000000000000000000000000 DUP2 MSTORE PUSH1 0x4 ADD PUSH2 0x159E SWAP1 PUSH2 0x3CA8 JUMP JUMPDEST PUSH1 0x40 MLOAD DUP1 SWAP2 SUB SWAP1 REVERT JUMPDEST PUSH1 0x0 PUSH1 0x6 DUP2 GT ISZERO PUSH2 0x15BB JUMPI PUSH2 0x15BA PUSH2 0x3776 JUMP JUMPDEST JUMPDEST DUP2 PUSH1 0x7 ADD PUSH1 0x0 SWAP1 SLOAD SWAP1 PUSH2 0x100 EXP SWAP1 DIV PUSH1 0xFF AND PUSH1 0x6 DUP2 GT ISZERO PUSH2 0x15DF JUMPI PUSH2 0x15DE PUSH2 0x3776 JUMP JUMPDEST JUMPDEST EQ PUSH2 0x161F JUMPI PUSH1 0x40 MLOAD PUSH32 0x8C379A000000000000000000000000000000000000000000000000000000000 DUP2 MSTORE PUSH1 0x4 ADD PUSH2 0x1616 SWAP1 PUSH2 0x3D14 JUMP JUMPDEST PUSH1 0x40 MLOAD DUP1 SWAP2 SUB SWAP1 REVERT JUMPDEST PUSH1 0x1 DUP2 PUSH1 0x7 ADD PUSH1 0x0 PUSH2 0x100 EXP DUP2 SLOAD DUP2 PUSH1 0xFF MUL NOT AND SWAP1 DUP4 PUSH1 0x6 DUP2 GT ISZERO PUSH2 0x1647 JUMPI PUSH2 0x1646 PUSH2 0x3776 JUMP JUMPDEST JUMPDEST MUL OR SWAP1 SSTORE POP DUP2 PUSH32 0xF0AE3D24F582980763CBA4C6A774EC11622261C096524E28EE8075179A9E09AA PUSH1 0x1 PUSH1 0x40 MLOAD PUSH2 0x167D SWAP2 SWAP1 PUSH2 0x3D34 JUMP JUMPDEST PUSH1 0x40 MLOAD DUP1 SWAP2 SUB SWAP1 LOG2 POP POP JUMP JUMPDEST PUSH1 0x0 PUSH2 0x1693 PUSH2 0x2CD1 JUMP JUMPDEST PUSH1 0x0 PUSH1 0x6 PUSH1 0x0 DUP8 DUP2 MSTORE PUSH1 0x20 ADD SWAP1 DUP2 MSTORE PUSH1 0x20 ADD PUSH1 0x0 KECCAK256 SWAP1 POP DUP1 PUSH1 0x8 ADD PUSH1 0x0 SWAP1 SLOAD SWAP1 PUSH2 0x100 EXP SWAP1 DIV PUSH1 0xFF AND PUSH2 0x16FB JUMPI PUSH1 0x40 MLOAD PUSH32 0x8C379A000000000000000000000000000000000000000000000000000000000 DUP2 MSTORE PUSH1 0x4 ADD PUSH2 0x16F2 SWAP1 PUSH2 0x4690 JUMP JUMPDEST PUSH1 0x40 MLOAD DUP1 SWAP2 SUB SWAP1 REVERT JUMPDEST TIMESTAMP DUP2 PUSH1 0x4 ADD SLOAD GT PUSH2 0x1741 JUMPI PUSH1 0x40 MLOAD PUSH32 0x8C379A000000000000000000000000000000000000000000000000000000000 DUP2 MSTORE PUSH1 0x4 ADD PUSH2 0x1738 SWAP1 PUSH2 0x46FC JUMP JUMPDEST PUSH1 0x40 MLOAD DUP1 SWAP2 SUB SWAP1 REVERT JUMPDEST PUSH1 0x0 DUP4 GT PUSH2 0x1784 JUMPI PUSH1 0x40 MLOAD PUSH32 0x8C379A000000000000000000000000000000000000000000000000000000000 DUP2 MSTORE PUSH1 0x4 ADD PUSH2 0x177B SWAP1 PUSH2 0x478E JUMP JUMPDEST PUSH1 0x40 MLOAD DUP1 SWAP2 SUB SWAP1 REVERT JUMPDEST DUP1 PUSH1 0x6 ADD SLOAD DUP4 GT ISZERO PUSH2 0x17CB JUMPI PUSH1 0x40 MLOAD PUSH32 0x8C379A000000000000000000000000000000000000000000000000000000000 DUP2 MSTORE PUSH1 0x4 ADD PUSH2 0x17C2 SWAP1 PUSH2 0x47FA JUMP JUMPDEST PUSH1 0x40 MLOAD DUP1 SWAP2 SUB SWAP1 REVERT JUMPDEST PUSH1 0x0 PUSH2 0x3E8 DUP3 PUSH1 0x7 ADD SLOAD DUP6 PUSH2 0x17E0 SWAP2 SWAP1 PUSH2 0x3EC2 JUMP JUMPDEST PUSH2 0x17EA SWAP2 SWAP1 PUSH2 0x3F33 JUMP JUMPDEST SWAP1 POP PUSH1 0x0 PUSH1 0x64 PUSH1 0x3 SLOAD DUP4 PUSH2 0x17FE SWAP2 SWAP1 PUSH2 0x3EC2 JUMP JUMPDEST PUSH2 0x1808 SWAP2 SWAP1 PUSH2 0x3F33 JUMP JUMPDEST SWAP1 POP PUSH1 0x0 DUP2 DUP4 PUSH2 0x1818 SWAP2 SWAP1 PUSH2 0x481A JUMP JUMPDEST SWAP1 POP PUSH2 0x1869 CALLER ADDRESS DUP4 PUSH1 0x2 PUSH1 0x0 SWAP1 SLOAD SWAP1 PUSH2 0x100 EXP SWAP1 DIV PUSH20 0xFFFFFFFFFFFFFFFFFFFFFFFFFFFFFFFFFFFFFFFF AND PUSH20 0xFFFFFFFFFFFFFFFFFFFFFFFFFFFFFFFFFFFFFFFF AND PUSH2 0x2E73 SWAP1 SWAP4 SWAP3 SWAP2 SWAP1 PUSH4 0xFFFFFFFF AND JUMP JUMPDEST PUSH1 0x0 PUSH1 0x5 PUSH1 0x0 DUP2 SLOAD DUP1 SWAP3 SWAP2 SWAP1 PUSH2 0x187E SWAP1 PUSH2 0x401F JUMP JUMPDEST SWAP2 SWAP1 POP SSTORE SWAP1 POP PUSH1 0x40 MLOAD DUP1 PUSH2 0x140 ADD PUSH1 0x40 MSTORE DUP1 DUP3 DUP2 MSTORE PUSH1 0x20 ADD DUP12 DUP2 MSTORE PUSH1 0x20 ADD DUP7 PUSH1 0x1 ADD PUSH1 0x0 SWAP1 SLOAD SWAP1 PUSH2 0x100 EXP SWAP1 DIV PUSH20 0xFFFFFFFFFFFFFFFFFFFFFFFFFFFFFFFFFFFFFFFF AND PUSH20 0xFFFFFFFFFFFFFFFFFFFFFFFFFFFFFFFFFFFFFFFF AND DUP2 MSTORE PUSH1 0x20 ADD CALLER PUSH20 0xFFFFFFFFFFFFFFFFFFFFFFFFFFFFFFFFFFFFFFFF AND DUP2 MSTORE PUSH1 0x20 ADD DUP11 DUP11 DUP1 DUP1 PUSH1 0x1F ADD PUSH1 0x20 DUP1 SWAP2 DIV MUL PUSH1 0x20 ADD PUSH1 0x40 MLOAD SWAP1 DUP2 ADD PUSH1 0x40 MSTORE DUP1 SWAP4 SWAP3 SWAP2 SWAP1 DUP2 DUP2 MSTORE PUSH1 0x20 ADD DUP4 DUP4 DUP1 DUP3 DUP5 CALLDATACOPY PUSH1 0x0 DUP2 DUP5 ADD MSTORE PUSH1 0x1F NOT PUSH1 0x1F DUP3 ADD AND SWAP1 POP DUP1 DUP4 ADD SWAP3 POP POP POP POP POP POP POP DUP2 MSTORE PUSH1 0x20 ADD DUP9 DUP2 MSTORE PUSH1 0x20 ADD DUP4 DUP2 MSTORE PUSH1 0x20 ADD PUSH1 0x0 PUSH1 0x6 DUP2 GT ISZERO PUSH2 0x1962 JUMPI PUSH2 0x1961 PUSH2 0x3776 JUMP JUMPDEST JUMPDEST DUP2 MSTORE PUSH1 0x20 ADD TIMESTAMP DUP2 MSTORE PUSH1 0x20 ADD PUSH1 0x0 ISZERO ISZERO DUP2 MSTORE POP PUSH1 0x7 PUSH1 0x0 DUP4 DUP2 MSTORE PUSH1 0x20 ADD SWAP1 DUP2 MSTORE PUSH1 0x20 ADD PUSH1 0x0 KECCAK256 PUSH1 0x0 DUP3 ADD MLOAD DUP2 PUSH1 0x0 ADD SSTORE PUSH1 0x20 DUP3 ADD MLOAD DUP2 PUSH1 0x1 ADD SSTORE PUSH1 0x40 DUP3 ADD MLOAD DUP2 PUSH1 0x2 ADD PUSH1 0x0 PUSH2 0x100 EXP DUP2 SLOAD DUP2 PUSH20 0xFFFFFFFFFFFFFFFFFFFFFFFFFFFFFFFFFFFFFFFF MUL NOT AND SWAP1 DUP4 PUSH20 0xFFFFFFFFFFFFFFFFFFFFFFFFFFFFFFFFFFFFFFFF AND MUL OR SWAP1 SSTORE POP PUSH1 0x60 DUP3 ADD MLOAD DUP2 PUSH1 0x3 ADD PUSH1 0x0 PUSH2 0x100 EXP DUP2 SLOAD DUP2 PUSH20 0xFFFFFFFFFFFFFFFFFFFFFFFFFFFFFFFFFFFFFFFF MUL NOT AND SWAP1 DUP4 PUSH20 0xFFFFFFFFFFFFFFFFFFFFFFFFFFFFFFFFFFFFFFFF AND MUL OR SWAP1 SSTORE POP PUSH1 0x80 DUP3 ADD MLOAD DUP2 PUSH1 0x4 ADD SWAP1 DUP2 PUSH2 0x1A3E SWAP2 SWAP1 PUSH2 0x4572 JUMP JUMPDEST POP PUSH1 0xA0 DUP3 ADD MLOAD DUP2 PUSH1 0x5 ADD SSTORE PUSH1 0xC0 DUP3 ADD MLOAD DUP2 PUSH1 0x6 ADD SSTORE PUSH1 0xE0 DUP3 ADD MLOAD DUP2 PUSH1 0x7 ADD PUSH1 0x0 PUSH2 0x100 EXP DUP2 SLOAD DUP2 PUSH1 0xFF MUL NOT AND SWAP1 DUP4 PUSH1 0x6 DUP2 GT ISZERO PUSH2 0x1A7E JUMPI PUSH2 0x1A7D PUSH2 0x3776 JUMP JUMPDEST JUMPDEST MUL OR SWAP1 SSTORE POP PUSH2 0x100 DUP3 ADD MLOAD DUP2 PUSH1 0x8 ADD SSTORE PUSH2 0x120 DUP3 ADD MLOAD DUP2 PUSH1 0x9 ADD PUSH1 0x0 PUSH2 0x100 EXP DUP2 SLOAD DUP2 PUSH1 0xFF MUL NOT AND SWAP1 DUP4 ISZERO ISZERO MUL OR SWAP1 SSTORE POP SWAP1 POP POP DUP7 DUP6 PUSH1 0x6 ADD PUSH1 0x0 DUP3 DUP3 SLOAD PUSH2 0x1AC6 SWAP2 SWAP1 PUSH2 0x3F64 JUMP JUMPDEST SWAP3 POP POP DUP2 SWAP1 SSTORE POP CALLER PUSH20 0xFFFFFFFFFFFFFFFFFFFFFFFFFFFFFFFFFFFFFFFF AND DUP11 DUP3 PUSH32 0x874DCE5CEE3087B1ECC98FE48589050785D293C374F6B183E9D94C978950BB49 PUSH1 0x40 MLOAD PUSH1 0x40 MLOAD DUP1 SWAP2 SUB SWAP1 LOG4 DUP1 SWAP6 POP POP POP POP POP POP PUSH2 0x1B22 PUSH2 0x2DA6 JUMP JUMPDEST SWAP5 SWAP4 POP POP POP POP JUMP JUMPDEST PUSH1 0x3 SLOAD DUP2 JUMP JUMPDEST PUSH1 0x0 DUP1 PUSH1 0x0 SWAP1 SLOAD SWAP1 PUSH2 0x100 EXP SWAP1 DIV PUSH20 0xFFFFFFFFFFFFFFFFFFFFFFFFFFFFFFFFFFFFFFFF AND SWAP1 POP SWAP1 JUMP JUMPDEST PUSH1 0x0 PUSH1 0x7 PUSH1 0x0 DUP4 DUP2 MSTORE PUSH1 0x20 ADD SWAP1 DUP2 MSTORE PUSH1 0x20 ADD PUSH1 0x0 KECCAK256 SWAP1 POP CALLER PUSH20 0xFFFFFFFFFFFFFFFFFFFFFFFFFFFFFFFFFFFFFFFF AND DUP2 PUSH1 0x2 ADD PUSH1 0x0 SWAP1 SLOAD SWAP1 PUSH2 0x100 EXP SWAP1 DIV PUSH20 0xFFFFFFFFFFFFFFFFFFFFFFFFFFFFFFFFFFFFFFFF AND PUSH20 0xFFFFFFFFFFFFFFFFFFFFFFFFFFFFFFFFFFFFFFFF AND EQ PUSH2 0x1C02 JUMPI PUSH1 0x40 MLOAD PUSH32 0x8C379A000000000000000000000000000000000000000000000000000000000 DUP2 MSTORE PUSH1 0x4 ADD PUSH2 0x1BF9 SWAP1 PUSH2 0x3CA8 JUMP JUMPDEST PUSH1 0x40 MLOAD DUP1 SWAP2 SUB SWAP1 REVERT JUMPDEST PUSH1 0x2 PUSH1 0x6 DUP2 GT ISZERO PUSH2 0x1C16 JUMPI PUSH2 0x1C15 PUSH2 0x3776 JUMP JUMPDEST JUMPDEST DUP2 PUSH1 0x7 ADD PUSH1 0x0 SWAP1 SLOAD SWAP1 PUSH2 0x100 EXP SWAP1 DIV PUSH1 0xFF AND PUSH1 0x6 DUP2 GT ISZERO PUSH2 0x1C3A JUMPI PUSH2 0x1C39 PUSH2 0x3776 JUMP JUMPDEST JUMPDEST EQ PUSH2 0x1C7A JUMPI PUSH1 0x40 MLOAD PUSH32 0x8C379A000000000000000000000000000000000000000000000000000000000 DUP2 MSTORE PUSH1 0x4 ADD PUSH2 0x1C71 SWAP1 PUSH2 0x3D14 JUMP JUMPDEST PUSH1 0x40 MLOAD DUP1 SWAP2 SUB SWAP1 REVERT JUMPDEST PUSH1 0x3 DUP2 PUSH1 0x7 ADD PUSH1 0x0 PUSH2 0x100 EXP DUP2 SLOAD DUP2 PUSH1 0xFF MUL NOT AND SWAP1 DUP4 PUSH1 0x6 DUP2 GT ISZERO PUSH2 0x1CA2 JUMPI PUSH2 0x1CA1 PUSH2 0x3776 JUMP JUMPDEST JUMPDEST MUL OR SWAP1 SSTORE POP DUP2 PUSH32 0xF0AE3D24F582980763CBA4C6A774EC11622261C096524E28EE8075179A9E09AA PUSH1 0x3 PUSH1 0x40 MLOAD PUSH2 0x1CD8 SWAP2 SWAP1 PUSH2 0x3D34 JUMP JUMPDEST PUSH1 0x40 MLOAD DUP1 SWAP2 SUB SWAP1 LOG2 POP POP JUMP JUMPDEST PUSH1 0x7 PUSH1 0x20 MSTORE DUP1 PUSH1 0x0 MSTORE PUSH1 0x40 PUSH1 0x0 KECCAK256 PUSH1 0x0 SWAP2 POP SWAP1 POP DUP1 PUSH1 0x0 ADD SLOAD SWAP1 DUP1 PUSH1 0x1 ADD SLOAD SWAP1 DUP1 PUSH1 0x2 ADD PUSH1 0x0 SWAP1 SLOAD SWAP1 PUSH2 0x100 EXP SWAP1 DIV PUSH20 0xFFFFFFFFFFFFFFFFFFFFFFFFFFFFFFFFFFFFFFFF AND SWAP1 DUP1 PUSH1 0x3 ADD PUSH1 0x0 SWAP1 SLOAD SWAP1 PUSH2 0x100 EXP SWAP1 DIV PUSH20 0xFFFFFFFFFFFFFFFFFFFFFFFFFFFFFFFFFFFFFFFF AND SWAP1 DUP1 PUSH1 0x4 ADD DUP1 SLOAD PUSH2 0x1D5F SWAP1 PUSH2 0x439F JUMP JUMPDEST DUP1 PUSH1 0x1F ADD PUSH1 0x20 DUP1 SWAP2 DIV MUL PUSH1 0x20 ADD PUSH1 0x40 MLOAD SWAP1 DUP2 ADD PUSH1 0x40 MSTORE DUP1 SWAP3 SWAP2 SWAP1 DUP2 DUP2 MSTORE PUSH1 0x20 ADD DUP3 DUP1 SLOAD PUSH2 0x1D8B SWAP1 PUSH2 0x439F JUMP JUMPDEST DUP1 ISZERO PUSH2 0x1DD8 JUMPI DUP1 PUSH1 0x1F LT PUSH2 0x1DAD JUMPI PUSH2 0x100 DUP1 DUP4 SLOAD DIV MUL DUP4 MSTORE SWAP2 PUSH1 0x20 ADD SWAP2 PUSH2 0x1DD8 JUMP JUMPDEST DUP3 ADD SWAP2 SWAP1 PUSH1 0x0 MSTORE PUSH1 0x20 PUSH1 0x0 KECCAK256 SWAP1 JUMPDEST DUP2 SLOAD DUP2 MSTORE SWAP1 PUSH1 0x1 ADD SWAP1 PUSH1 0x20 ADD DUP1 DUP4 GT PUSH2 0x1DBB JUMPI DUP3 SWAP1 SUB PUSH1 0x1F AND DUP3 ADD SWAP2 JUMPDEST POP POP POP POP POP SWAP1 DUP1 PUSH1 0x5 ADD SLOAD SWAP1 DUP1 PUSH1 0x6 ADD SLOAD SWAP1 DUP1 PUSH1 0x7 ADD PUSH1 0x0 SWAP1 SLOAD SWAP1 PUSH2 0x100 EXP SWAP1 DIV PUSH1 0xFF AND SWAP1 DUP1 PUSH1 0x8 ADD SLOAD SWAP1 DUP1 PUSH1 0x9 ADD PUSH1 0x0 SWAP1 SLOAD SWAP1 PUSH2 0x100 EXP SWAP1 DIV PUSH1 0xFF AND SWAP1 POP DUP11 JUMP JUMPDEST PUSH2 0x1E22 PUSH2 0x2C53 JUMP JUMPDEST PUSH1 0x14 DUP2 GT ISZERO PUSH2 0x1E66 JUMPI PUSH1 0x40 MLOAD PUSH32 0x8C379A000000000000000000000000000000000000000000000000000000000 DUP2 MSTORE PUSH1 0x4 ADD PUSH2 0x1E5D SWAP1 PUSH2 0x489A JUMP JUMPDEST PUSH1 0x40 MLOAD DUP1 SWAP2 SUB SWAP1 REVERT JUMPDEST DUP1 PUSH1 0x3 DUP2 SWAP1 SSTORE POP POP JUMP JUMPDEST PUSH1 0x0 PUSH1 0x7 PUSH1 0x0 DUP4 DUP2 MSTORE PUSH1 0x20 ADD SWAP1 DUP2 MSTORE PUSH1 0x20 ADD PUSH1 0x0 KECCAK256 SWAP1 POP CALLER PUSH20 0xFFFFFFFFFFFFFFFFFFFFFFFFFFFFFFFFFFFFFFFF AND DUP2 PUSH1 0x3 ADD PUSH1 0x0 SWAP1 SLOAD SWAP1 PUSH2 0x100 EXP SWAP1 DIV PUSH20 0xFFFFFFFFFFFFFFFFFFFFFFFFFFFFFFFFFFFFFFFF AND PUSH20 0xFFFFFFFFFFFFFFFFFFFFFFFFFFFFFFFFFFFFFFFF AND EQ DUP1 PUSH2 0x1F34 JUMPI POP CALLER PUSH20 0xFFFFFFFFFFFFFFFFFFFFFFFFFFFFFFFFFFFFFFFF AND DUP2 PUSH1 0x2 ADD PUSH1 0x0 SWAP1 SLOAD SWAP1 PUSH2 0x100 EXP SWAP1 DIV PUSH20 0xFFFFFFFFFFFFFFFFFFFFFFFFFFFFFFFFFFFFFFFF AND PUSH20 0xFFFFFFFFFFFFFFFFFFFFFFFFFFFFFFFFFFFFFFFF AND EQ JUMPDEST PUSH2 0x1F73 JUMPI PUSH1 0x40 MLOAD PUSH32 0x8C379A000000000000000000000000000000000000000000000000000000000 DUP2 MSTORE PUSH1 0x4 ADD PUSH2 0x1F6A SWAP1 PUSH2 0x4906 JUMP JUMPDEST PUSH1 0x40 MLOAD DUP1 SWAP2 SUB SWAP1 REVERT JUMPDEST PUSH1 0x1 PUSH1 0x6 DUP2 GT ISZERO PUSH2 0x1F87 JUMPI PUSH2 0x1F86 PUSH2 0x3776 JUMP JUMPDEST JUMPDEST DUP2 PUSH1 0x7 ADD PUSH1 0x0 SWAP1 SLOAD SWAP1 PUSH2 0x100 EXP SWAP1 DIV PUSH1 0xFF AND PUSH1 0x6 DUP2 GT ISZERO PUSH2 0x1FAB JUMPI PUSH2 0x1FAA PUSH2 0x3776 JUMP JUMPDEST JUMPDEST EQ DUP1 PUSH2 0x1FEC JUMPI POP PUSH1 0x2 PUSH1 0x6 DUP2 GT ISZERO PUSH2 0x1FC6 JUMPI PUSH2 0x1FC5 PUSH2 0x3776 JUMP JUMPDEST JUMPDEST DUP2 PUSH1 0x7 ADD PUSH1 0x0 SWAP1 SLOAD SWAP1 PUSH2 0x100 EXP SWAP1 DIV PUSH1 0xFF AND PUSH1 0x6 DUP2 GT ISZERO PUSH2 0x1FEA JUMPI PUSH2 0x1FE9 PUSH2 0x3776 JUMP JUMPDEST JUMPDEST EQ JUMPDEST DUP1 PUSH2 0x202C JUMPI POP PUSH1 0x3 PUSH1 0x6 DUP2 GT ISZERO PUSH2 0x2006 JUMPI PUSH2 0x2005 PUSH2 0x3776 JUMP JUMPDEST JUMPDEST DUP2 PUSH1 0x7 ADD PUSH1 0x0 SWAP1 SLOAD SWAP1 PUSH2 0x100 EXP SWAP1 DIV PUSH1 0xFF AND PUSH1 0x6 DUP2 GT ISZERO PUSH2 0x202A JUMPI PUSH2 0x2029 PUSH2 0x3776 JUMP JUMPDEST JUMPDEST EQ JUMPDEST PUSH2 0x206B JUMPI PUSH1 0x40 MLOAD PUSH32 0x8C379A000000000000000000000000000000000000000000000000000000000 DUP2 MSTORE PUSH1 0x4 ADD PUSH2 0x2062 SWAP1 PUSH2 0x4972 JUMP JUMPDEST PUSH1 0x40 MLOAD DUP1 SWAP2 SUB SWAP1 REVERT JUMPDEST DUP1 PUSH1 0x9 ADD PUSH1 0x0 SWAP1 SLOAD SWAP1 PUSH2 0x100 EXP SWAP1 DIV PUSH1 0xFF AND ISZERO PUSH2 0x20BD JUMPI PUSH1 0x40 MLOAD PUSH32 0x8C379A000000000000000000000000000000000000000000000000000000000 DUP2 MSTORE PUSH1 0x4 ADD PUSH2 0x20B4 SWAP1 PUSH2 0x49DE JUMP JUMPDEST PUSH1 0x40 MLOAD DUP1 SWAP2 SUB SWAP1 REVERT JUMPDEST PUSH1 0x1 DUP2 PUSH1 0x9 ADD PUSH1 0x0 PUSH2 0x100 EXP DUP2 SLOAD DUP2 PUSH1 0xFF MUL NOT AND SWAP1 DUP4 ISZERO ISZERO MUL OR SWAP1 SSTORE POP PUSH1 0x6 DUP2 PUSH1 0x7 ADD PUSH1 0x0 PUSH2 0x100 EXP DUP2 SLOAD DUP2 PUSH1 0xFF MUL NOT AND SWAP1 DUP4 PUSH1 0x6 DUP2 GT ISZERO PUSH2 0x2102 JUMPI PUSH2 0x2101 PUSH2 0x3776 JUMP JUMPDEST JUMPDEST MUL OR SWAP1 SSTORE POP DUP2 PUSH32 0xCFAFBD891419413DFA324D3261503128C4EE2EF0D3671867EAEBB6D1E91E7F7C PUSH1 0x40 MLOAD PUSH1 0x40 MLOAD DUP1 SWAP2 SUB SWAP1 LOG2 DUP2 PUSH32 0xF0AE3D24F582980763CBA4C6A774EC11622261C096524E28EE8075179A9E09AA PUSH1 0x6 PUSH1 0x40 MLOAD PUSH2 0x2165 SWAP2 SWAP1 PUSH2 0x3D34 JUMP JUMPDEST PUSH1 0x40 MLOAD DUP1 SWAP2 SUB SWAP1 LOG2 POP POP JUMP JUMPDEST PUSH1 0x0 PUSH1 0x1 PUSH1 0x4 SLOAD PUSH2 0x2182 SWAP2 SWAP1 PUSH2 0x3F64 JUMP JUMPDEST SWAP1 POP SWAP1 JUMP JUMPDEST PUSH1 0x9 PUSH1 0x20 MSTORE DUP1 PUSH1 0x0 MSTORE PUSH1 0x40 PUSH1 0x0 KECCAK256 PUSH1 0x0 SWAP2 POP SWAP1 POP SLOAD DUP2 JUMP JUMPDEST PUSH2 0x21A7 PUSH2 0x3199 JUMP JUMPDEST PUSH1 0x7 PUSH1 0x0 DUP4 DUP2 MSTORE PUSH1 0x20 ADD SWAP1 DUP2 MSTORE PUSH1 0x20 ADD PUSH1 0x0 KECCAK256 PUSH1 0x40 MLOAD DUP1 PUSH2 0x140 ADD PUSH1 0x40 MSTORE SWAP1 DUP2 PUSH1 0x0 DUP3 ADD SLOAD DUP2 MSTORE PUSH1 0x20 ADD PUSH1 0x1 DUP3 ADD SLOAD DUP2 MSTORE PUSH1 0x20 ADD PUSH1 0x2 DUP3 ADD PUSH1 0x0 SWAP1 SLOAD SWAP1 PUSH2 0x100 EXP SWAP1 DIV PUSH20 0xFFFFFFFFFFFFFFFFFFFFFFFFFFFFFFFFFFFFFFFF AND PUSH20 0xFFFFFFFFFFFFFFFFFFFFFFFFFFFFFFFFFFFFFFFF AND PUSH20 0xFFFFFFFFFFFFFFFFFFFFFFFFFFFFFFFFFFFFFFFF AND DUP2 MSTORE PUSH1 0x20 ADD PUSH1 0x3 DUP3 ADD PUSH1 0x0 SWAP1 SLOAD SWAP1 PUSH2 0x100 EXP SWAP1 DIV PUSH20 0xFFFFFFFFFFFFFFFFFFFFFFFFFFFFFFFFFFFFFFFF AND PUSH20 0xFFFFFFFFFFFFFFFFFFFFFFFFFFFFFFFFFFFFFFFF AND PUSH20 0xFFFFFFFFFFFFFFFFFFFFFFFFFFFFFFFFFFFFFFFF AND DUP2 MSTORE PUSH1 0x20 ADD PUSH1 0x4 DUP3 ADD DUP1 SLOAD PUSH2 0x2296 SWAP1 PUSH2 0x439F JUMP JUMPDEST DUP1 PUSH1 0x1F ADD PUSH1 0x20 DUP1 SWAP2 DIV MUL PUSH1 0x20 ADD PUSH1 0x40 MLOAD SWAP1 DUP2 ADD PUSH1 0x40 MSTORE DUP1 SWAP3 SWAP2 SWAP1 DUP2 DUP2 MSTORE PUSH1 0x20 ADD DUP3 DUP1 SLOAD PUSH2 0x22C2 SWAP1 PUSH2 0x439F JUMP JUMPDEST DUP1 ISZERO PUSH2 0x230F JUMPI DUP1 PUSH1 0x1F LT PUSH2 0x22E4 JUMPI PUSH2 0x100 DUP1 DUP4 SLOAD DIV MUL DUP4 MSTORE SWAP2 PUSH1 0x20 ADD SWAP2 PUSH2 0x230F JUMP JUMPDEST DUP3 ADD SWAP2 SWAP1 PUSH1 0x0 MSTORE PUSH1 0x20 PUSH1 0x0 KECCAK256 SWAP1 JUMPDEST DUP2 SLOAD DUP2 MSTORE SWAP1 PUSH1 0x1 ADD SWAP1 PUSH1 0x20 ADD DUP1 DUP4 GT PUSH2 0x22F2 JUMPI DUP3 SWAP1 SUB PUSH1 0x1F AND DUP3 ADD SWAP2 JUMPDEST POP POP POP POP POP DUP2 MSTORE PUSH1 0x20 ADD PUSH1 0x5 DUP3 ADD SLOAD DUP2 MSTORE PUSH1 0x20 ADD PUSH1 0x6 DUP3 ADD SLOAD DUP2 MSTORE PUSH1 0x20 ADD PUSH1 0x7 DUP3 ADD PUSH1 0x0 SWAP1 SLOAD SWAP1 PUSH2 0x100 EXP SWAP1 DIV PUSH1 0xFF AND PUSH1 0x6 DUP2 GT ISZERO PUSH2 0x2351 JUMPI PUSH2 0x2350 PUSH2 0x3776 JUMP JUMPDEST JUMPDEST PUSH1 0x6 DUP2 GT ISZERO PUSH2 0x2363 JUMPI PUSH2 0x2362 PUSH2 0x3776 JUMP JUMPDEST JUMPDEST DUP2 MSTORE PUSH1 0x20 ADD PUSH1 0x8 DUP3 ADD SLOAD DUP2 MSTORE PUSH1 0x20 ADD PUSH1 0x9 DUP3 ADD PUSH1 0x0 SWAP1 SLOAD SWAP1 PUSH2 0x100 EXP SWAP1 DIV PUSH1 0xFF AND ISZERO ISZERO ISZERO ISZERO DUP2 MSTORE POP POP SWAP1 POP SWAP2 SWAP1 POP JUMP JUMPDEST PUSH1 0x2 PUSH1 0x0 SWAP1 SLOAD SWAP1 PUSH2 0x100 EXP SWAP1 DIV PUSH20 0xFFFFFFFFFFFFFFFFFFFFFFFFFFFFFFFFFFFFFFFF AND DUP2 JUMP JUMPDEST PUSH1 0x0 PUSH1 0x6 PUSH1 0x0 DUP12 DUP2 MSTORE PUSH1 0x20 ADD SWAP1 DUP2 MSTORE PUSH1 0x20 ADD PUSH1 0x0 KECCAK256 SWAP1 POP CALLER PUSH20 0xFFFFFFFFFFFFFFFFFFFFFFFFFFFFFFFFFFFFFFFF AND DUP2 PUSH1 0x1 ADD PUSH1 0x0 SWAP1 SLOAD SWAP1 PUSH2 0x100 EXP SWAP1 DIV PUSH20 0xFFFFFFFFFFFFFFFFFFFFFFFFFFFFFFFFFFFFFFFF AND PUSH20 0xFFFFFFFFFFFFFFFFFFFFFFFFFFFFFFFFFFFFFFFF AND EQ PUSH2 0x2462 JUMPI PUSH1 0x40 MLOAD PUSH32 0x8C379A000000000000000000000000000000000000000000000000000000000 DUP2 MSTORE PUSH1 0x4 ADD PUSH2 0x2459 SWAP1 PUSH2 0x3D9B JUMP JUMPDEST PUSH1 0x40 MLOAD DUP1 SWAP2 SUB SWAP1 REVERT JUMPDEST DUP1 PUSH1 0x8 ADD PUSH1 0x0 SWAP1 SLOAD SWAP1 PUSH2 0x100 EXP SWAP1 DIV PUSH1 0xFF AND PUSH2 0x24B3 JUMPI PUSH1 0x40 MLOAD PUSH32 0x8C379A000000000000000000000000000000000000000000000000000000000 DUP2 MSTORE PUSH1 0x4 ADD PUSH2 0x24AA SWAP1 PUSH2 0x4690 JUMP JUMPDEST PUSH1 0x40 MLOAD DUP1 SWAP2 SUB SWAP1 REVERT JUMPDEST TIMESTAMP DUP2 PUSH1 0x4 ADD SLOAD GT PUSH2 0x24F9 JUMPI PUSH1 0x40 MLOAD PUSH32 0x8C379A000000000000000000000000000000000000000000000000000000000 DUP2 MSTORE PUSH1 0x4 ADD PUSH2 0x24F0 SWAP1 PUSH2 0x46FC JUMP JUMPDEST PUSH1 0x40 MLOAD DUP1 SWAP2 SUB SWAP1 REVERT JUMPDEST TIMESTAMP DUP6 GT PUSH2 0x253B JUMPI PUSH1 0x40 MLOAD PUSH32 0x8C379A000000000000000000000000000000000000000000000000000000000 DUP2 MSTORE PUSH1 0x4 ADD PUSH2 0x2532 SWAP1 PUSH2 0x416B JUMP JUMPDEST PUSH1 0x40 MLOAD DUP1 SWAP2 SUB SWAP1 REVERT JUMPDEST DUP5 DUP5 GT PUSH2 0x257D JUMPI PUSH1 0x40 MLOAD PUSH32 0x8C379A000000000000000000000000000000000000000000000000000000000 DUP2 MSTORE PUSH1 0x4 ADD PUSH2 0x2574 SWAP1 PUSH2 0x41FD JUMP JUMPDEST PUSH1 0x40 MLOAD DUP1 SWAP2 SUB SWAP1 REVERT JUMPDEST PUSH1 0x0 DUP4 GT PUSH2 0x25C0 JUMPI PUSH1 0x40 MLOAD PUSH32 0x8C379A000000000000000000000000000000000000000000000000000000000 DUP2 MSTORE PUSH1 0x4 ADD PUSH2 0x25B7 SWAP1 PUSH2 0x428F JUMP JUMPDEST PUSH1 0x40 MLOAD DUP1 SWAP2 SUB SWAP1 REVERT JUMPDEST PUSH1 0x0 DUP3 GT PUSH2 0x2603 JUMPI PUSH1 0x40 MLOAD PUSH32 0x8C379A000000000000000000000000000000000000000000000000000000000 DUP2 MSTORE PUSH1 0x4 ADD PUSH2 0x25FA SWAP1 PUSH2 0x4321 JUMP JUMPDEST PUSH1 0x40 MLOAD DUP1 SWAP2 SUB SWAP1 REVERT JUMPDEST DUP9 DUP9 DUP3 PUSH1 0x2 ADD SWAP2 DUP3 PUSH2 0x2616 SWAP3 SWAP2 SWAP1 PUSH2 0x4A09 JUMP JUMPDEST POP DUP7 DUP7 DUP3 PUSH1 0x3 ADD SWAP2 DUP3 PUSH2 0x262A SWAP3 SWAP2 SWAP1 PUSH2 0x4A09 JUMP JUMPDEST POP DUP5 DUP2 PUSH1 0x4 ADD DUP2 SWAP1 SSTORE POP DUP4 DUP2 PUSH1 0x5 ADD DUP2 SWAP1 SSTORE POP DUP3 DUP2 PUSH1 0x6 ADD DUP2 SWAP1 SSTORE POP DUP2 DUP2 PUSH1 0x7 ADD DUP2 SWAP1 SSTORE POP DUP10 PUSH32 0x42EBF045E5F0681865F7BC06550CEC341C58F349577B5A315B067C632FE8100A PUSH1 0x40 MLOAD PUSH1 0x40 MLOAD DUP1 SWAP2 SUB SWAP1 LOG2 POP POP POP POP POP POP POP POP POP POP JUMP JUMPDEST PUSH2 0x2690 PUSH2 0x2C53 JUMP JUMPDEST PUSH1 0x0 PUSH20 0xFFFFFFFFFFFFFFFFFFFFFFFFFFFFFFFFFFFFFFFF AND DUP2 PUSH20 0xFFFFFFFFFFFFFFFFFFFFFFFFFFFFFFFFFFFFFFFF AND SUB PUSH2 0x26FF JUMPI PUSH1 0x40 MLOAD PUSH32 0x8C379A000000000000000000000000000000000000000000000000000000000 DUP2 MSTORE PUSH1 0x4 ADD PUSH2 0x26F6 SWAP1 PUSH2 0x4B4B JUMP JUMPDEST PUSH1 0x40 MLOAD DUP1 SWAP2 SUB SWAP1 REVERT JUMPDEST PUSH2 0x2708 DUP2 PUSH2 0x2DAF JUMP JUMPDEST POP JUMP JUMPDEST PUSH2 0x2713 PUSH2 0x322C JUMP JUMPDEST PUSH1 0x6 PUSH1 0x0 DUP4 DUP2 MSTORE PUSH1 0x20 ADD SWAP1 DUP2 MSTORE PUSH1 0x20 ADD PUSH1 0x0 KECCAK256 PUSH1 0x40 MLOAD DUP1 PUSH2 0x120 ADD PUSH1 0x40 MSTORE SWAP1 DUP2 PUSH1 0x0 DUP3 ADD SLOAD DUP2 MSTORE PUSH1 0x20 ADD PUSH1 0x1 DUP3 ADD PUSH1 0x0 SWAP1 SLOAD SWAP1 PUSH2 0x100 EXP SWAP1 DIV PUSH20 0xFFFFFFFFFFFFFFFFFFFFFFFFFFFFFFFFFFFFFFFF AND PUSH20 0xFFFFFFFFFFFFFFFFFFFFFFFFFFFFFFFFFFFFFFFF AND PUSH20 0xFFFFFFFFFFFFFFFFFFFFFFFFFFFFFFFFFFFFFFFF AND DUP2 MSTORE PUSH1 0x20 ADD PUSH1 0x2 DUP3 ADD DUP1 SLOAD PUSH2 0x27A2 SWAP1 PUSH2 0x439F JUMP JUMPDEST DUP1 PUSH1 0x1F ADD PUSH1 0x20 DUP1 SWAP2 DIV MUL PUSH1 0x20 ADD PUSH1 0x40 MLOAD SWAP1 DUP2 ADD PUSH1 0x40 MSTORE DUP1 SWAP3 SWAP2 SWAP1 DUP2 DUP2 MSTORE PUSH1 0x20 ADD DUP3 DUP1 SLOAD PUSH2 0x27CE SWAP1 PUSH2 0x439F JUMP JUMPDEST DUP1 ISZERO PUSH2 0x281B JUMPI DUP1 PUSH1 0x1F LT PUSH2 0x27F0 JUMPI PUSH2 0x100 DUP1 DUP4 SLOAD DIV MUL DUP4 MSTORE SWAP2 PUSH1 0x20 ADD SWAP2 PUSH2 0x281B JUMP JUMPDEST DUP3 ADD SWAP2 SWAP1 PUSH1 0x0 MSTORE PUSH1 0x20 PUSH1 0x0 KECCAK256 SWAP1 JUMPDEST DUP2 SLOAD DUP2 MSTORE SWAP1 PUSH1 0x1 ADD SWAP1 PUSH1 0x20 ADD DUP1 DUP4 GT PUSH2 0x27FE JUMPI DUP3 SWAP1 SUB PUSH1 0x1F AND DUP3 ADD SWAP2 JUMPDEST POP POP POP POP POP DUP2 MSTORE PUSH1 0x20 ADD PUSH1 0x3 DUP3 ADD DUP1 SLOAD PUSH2 0x2834 SWAP1 PUSH2 0x439F JUMP JUMPDEST DUP1 PUSH1 0x1F ADD PUSH1 0x20 DUP1 SWAP2 DIV MUL PUSH1 0x20 ADD PUSH1 0x40 MLOAD SWAP1 DUP2 ADD PUSH1 0x40 MSTORE DUP1 SWAP3 SWAP2 SWAP1 DUP2 DUP2 MSTORE PUSH1 0x20 ADD DUP3 DUP1 SLOAD PUSH2 0x2860 SWAP1 PUSH2 0x439F JUMP JUMPDEST DUP1 ISZERO PUSH2 0x28AD JUMPI DUP1 PUSH1 0x1F LT PUSH2 0x2882 JUMPI PUSH2 0x100 DUP1 DUP4 SLOAD DIV MUL DUP4 MSTORE SWAP2 PUSH1 0x20 ADD SWAP2 PUSH2 0x28AD JUMP JUMPDEST DUP3 ADD SWAP2 SWAP1 PUSH1 0x0 MSTORE PUSH1 0x20 PUSH1 0x0 KECCAK256 SWAP1 JUMPDEST DUP2 SLOAD DUP2 MSTORE SWAP1 PUSH1 0x1 ADD SWAP1 PUSH1 0x20 ADD DUP1 DUP4 GT PUSH2 0x2890 JUMPI DUP3 SWAP1 SUB PUSH1 0x1F AND DUP3 ADD SWAP2 JUMPDEST POP POP POP POP POP DUP2 MSTORE PUSH1 0x20 ADD PUSH1 0x4 DUP3 ADD SLOAD DUP2 MSTORE PUSH1 0x20 ADD PUSH1 0x5 DUP3 ADD SLOAD DUP2 MSTORE PUSH1 0x20 ADD PUSH1 0x6 DUP3 ADD SLOAD DUP2 MSTORE PUSH1 0x20 ADD PUSH1 0x7 DUP3 ADD SLOAD DUP2 MSTORE PUSH1 0x20 ADD PUSH1 0x8 DUP3 ADD PUSH1 0x0 SWAP1 SLOAD SWAP1 PUSH2 0x100 EXP SWAP1 DIV PUSH1 0xFF AND ISZERO ISZERO ISZERO ISZERO DUP2 MSTORE POP POP SWAP1 POP SWAP2 SWAP1 POP JUMP JUMPDEST PUSH2 0x2908 PUSH2 0x2C53 JUMP JUMPDEST PUSH1 0x0 PUSH20 0xFFFFFFFFFFFFFFFFFFFFFFFFFFFFFFFFFFFFFFFF AND DUP2 PUSH20 0xFFFFFFFFFFFFFFFFFFFFFFFFFFFFFFFFFFFFFFFF AND SUB PUSH2 0x2977 JUMPI PUSH1 0x40 MLOAD PUSH32 0x8C379A000000000000000000000000000000000000000000000000000000000 DUP2 MSTORE PUSH1 0x4 ADD PUSH2 0x296E SWAP1 PUSH2 0x4BB7 JUMP JUMPDEST PUSH1 0x40 MLOAD DUP1 SWAP2 SUB SWAP1 REVERT JUMPDEST DUP1 PUSH1 0x2 PUSH1 0x0 PUSH2 0x100 EXP DUP2 SLOAD DUP2 PUSH20 0xFFFFFFFFFFFFFFFFFFFFFFFFFFFFFFFFFFFFFFFF MUL NOT AND SWAP1 DUP4 PUSH20 0xFFFFFFFFFFFFFFFFFFFFFFFFFFFFFFFFFFFFFFFF AND MUL OR SWAP1 SSTORE POP POP JUMP JUMPDEST PUSH2 0x29C3 PUSH2 0x2CD1 JUMP JUMPDEST PUSH1 0x0 PUSH1 0x7 PUSH1 0x0 DUP4 DUP2 MSTORE PUSH1 0x20 ADD SWAP1 DUP2 MSTORE PUSH1 0x20 ADD PUSH1 0x0 KECCAK256 SWAP1 POP CALLER PUSH20 0xFFFFFFFFFFFFFFFFFFFFFFFFFFFFFFFFFFFFFFFF AND DUP2 PUSH1 0x3 ADD PUSH1 0x0 SWAP1 SLOAD SWAP1 PUSH2 0x100 EXP SWAP1 DIV PUSH20 0xFFFFFFFFFFFFFFFFFFFFFFFFFFFFFFFFFFFFFFFF AND PUSH20 0xFFFFFFFFFFFFFFFFFFFFFFFFFFFFFFFFFFFFFFFF AND EQ PUSH2 0x2A6C JUMPI PUSH1 0x40 MLOAD PUSH32 0x8C379A000000000000000000000000000000000000000000000000000000000 DUP2 MSTORE PUSH1 0x4 ADD PUSH2 0x2A63 SWAP1 PUSH2 0x4C23 JUMP JUMPDEST PUSH1 0x40 MLOAD DUP1 SWAP2 SUB SWAP1 REVERT JUMPDEST PUSH1 0x3 PUSH1 0x6 DUP2 GT ISZERO PUSH2 0x2A80 JUMPI PUSH2 0x2A7F PUSH2 0x3776 JUMP JUMPDEST JUMPDEST DUP2 PUSH1 0x7 ADD PUSH1 0x0 SWAP1 SLOAD SWAP1 PUSH2 0x100 EXP SWAP1 DIV PUSH1 0xFF AND PUSH1 0x6 DUP2 GT ISZERO PUSH2 0x2AA4 JUMPI PUSH2 0x2AA3 PUSH2 0x3776 JUMP JUMPDEST JUMPDEST EQ PUSH2 0x2AE4 JUMPI PUSH1 0x40 MLOAD PUSH32 0x8C379A000000000000000000000000000000000000000000000000000000000 DUP2 MSTORE PUSH1 0x4 ADD PUSH2 0x2ADB SWAP1 PUSH2 0x3D14 JUMP JUMPDEST PUSH1 0x40 MLOAD DUP1 SWAP2 SUB SWAP1 REVERT JUMPDEST PUSH1 0x4 DUP2 PUSH1 0x7 ADD PUSH1 0x0 PUSH2 0x100 EXP DUP2 SLOAD DUP2 PUSH1 0xFF MUL NOT AND SWAP1 DUP4 PUSH1 0x6 DUP2 GT ISZERO PUSH2 0x2B0C JUMPI PUSH2 0x2B0B PUSH2 0x3776 JUMP JUMPDEST JUMPDEST MUL OR SWAP1 SSTORE POP PUSH1 0x0 PUSH1 0x64 PUSH1 0x3 SLOAD DUP4 PUSH1 0x6 ADD SLOAD PUSH2 0x2B27 SWAP2 SWAP1 PUSH2 0x3EC2 JUMP JUMPDEST PUSH2 0x2B31 SWAP2 SWAP1 PUSH2 0x3F33 JUMP JUMPDEST SWAP1 POP PUSH1 0x0 DUP2 DUP4 PUSH1 0x6 ADD SLOAD PUSH2 0x2B45 SWAP2 SWAP1 PUSH2 0x3F64 JUMP JUMPDEST SWAP1 POP PUSH2 0x2BB8 DUP4 PUSH1 0x2 ADD PUSH1 0x0 SWAP1 SLOAD SWAP1 PUSH2 0x100 EXP SWAP1 DIV PUSH20 0xFFFFFFFFFFFFFFFFFFFFFFFFFFFFFFFFFFFFFFFF AND DUP3 PUSH1 0x2 PUSH1 0x0 SWAP1 SLOAD SWAP1 PUSH2 0x100 EXP SWAP1 DIV PUSH20 0xFFFFFFFFFFFFFFFFFFFFFFFFFFFFFFFFFFFFFFFF AND PUSH20 0xFFFFFFFFFFFFFFFFFFFFFFFFFFFFFFFFFFFFFFFF AND PUSH2 0x2D20 SWAP1 SWAP3 SWAP2 SWAP1 PUSH4 0xFFFFFFFF AND JUMP JUMPDEST PUSH2 0x2C0C PUSH2 0x2BC3 PUSH2 0x1B30 JUMP JUMPDEST DUP4 PUSH1 0x2 PUSH1 0x0 SWAP1 SLOAD SWAP1 PUSH2 0x100 EXP SWAP1 DIV PUSH20 0xFFFFFFFFFFFFFFFFFFFFFFFFFFFFFFFFFFFFFFFF AND PUSH20 0xFFFFFFFFFFFFFFFFFFFFFFFFFFFFFFFFFFFFFFFF AND PUSH2 0x2D20 SWAP1 SWAP3 SWAP2 SWAP1 PUSH4 0xFFFFFFFF AND JUMP JUMPDEST DUP4 PUSH32 0xF0AE3D24F582980763CBA4C6A774EC11622261C096524E28EE8075179A9E09AA PUSH1 0x4 PUSH1 0x40 MLOAD PUSH2 0x2C3D SWAP2 SWAP1 PUSH2 0x3D34 JUMP JUMPDEST PUSH1 0x40 MLOAD DUP1 SWAP2 SUB SWAP1 LOG2 POP POP POP PUSH2 0x2C50 PUSH2 0x2DA6 JUMP JUMPDEST POP JUMP JUMPDEST PUSH2 0x2C5B PUSH2 0x2EFC JUMP JUMPDEST PUSH20 0xFFFFFFFFFFFFFFFFFFFFFFFFFFFFFFFFFFFFFFFF AND PUSH2 0x2C79 PUSH2 0x1B30 JUMP JUMPDEST PUSH20 0xFFFFFFFFFFFFFFFFFFFFFFFFFFFFFFFFFFFFFFFF AND EQ PUSH2 0x2CCF JUMPI PUSH1 0x40 MLOAD PUSH32 0x8C379A000000000000000000000000000000000000000000000000000000000 DUP2 MSTORE PUSH1 0x4 ADD PUSH2 0x2CC6 SWAP1 PUSH2 0x4C8F JUMP JUMPDEST PUSH1 0x40 MLOAD DUP1 SWAP2 SUB SWAP1 REVERT JUMPDEST JUMP JUMPDEST PUSH1 0x2 PUSH1 0x1 SLOAD SUB PUSH2 0x2D16 JUMPI PUSH1 0x40 MLOAD PUSH32 0x8C379A000000000000000000000000000000000000000000000000000000000 DUP2 MSTORE PUSH1 0x4 ADD PUSH2 0x2D0D SWAP1 PUSH2 0x4CFB JUMP JUMPDEST PUSH1 0x40 MLOAD DUP1 SWAP2 SUB SWAP1 REVERT JUMPDEST PUSH1 0x2 PUSH1 0x1 DUP2 SWAP1 SSTORE POP JUMP JUMPDEST PUSH2 0x2DA1 DUP4 PUSH4 0xA9059CBB PUSH1 0xE0 SHL DUP5 DUP5 PUSH1 0x40 MLOAD PUSH1 0x24 ADD PUSH2 0x2D3F SWAP3 SWAP2 SWAP1 PUSH2 0x4D1B JUMP JUMPDEST PUSH1 0x40 MLOAD PUSH1 0x20 DUP2 DUP4 SUB SUB DUP2 MSTORE SWAP1 PUSH1 0x40 MSTORE SWAP1 PUSH28 0xFFFFFFFFFFFFFFFFFFFFFFFFFFFFFFFFFFFFFFFFFFFFFFFFFFFFFFFF NOT AND PUSH1 0x20 DUP3 ADD DUP1 MLOAD PUSH28 0xFFFFFFFFFFFFFFFFFFFFFFFFFFFFFFFFFFFFFFFFFFFFFFFFFFFFFFFF DUP4 DUP2 DUP4 AND OR DUP4 MSTORE POP POP POP POP PUSH2 0x2F04 JUMP JUMPDEST POP POP POP JUMP JUMPDEST PUSH1 0x1 DUP1 DUP2 SWAP1 SSTORE POP JUMP JUMPDEST PUSH1 0x0 DUP1 PUSH1 0x0 SWAP1 SLOAD SWAP1 PUSH2 0x100 EXP SWAP1 DIV PUSH20 0xFFFFFFFFFFFFFFFFFFFFFFFFFFFFFFFFFFFFFFFF AND SWAP1 POP DUP2 PUSH1 0x0 DUP1 PUSH2 0x100 EXP DUP2 SLOAD DUP2 PUSH20 0xFFFFFFFFFFFFFFFFFFFFFFFFFFFFFFFFFFFFFFFF MUL NOT AND SWAP1 DUP4 PUSH20 0xFFFFFFFFFFFFFFFFFFFFFFFFFFFFFFFFFFFFFFFF AND MUL OR SWAP1 SSTORE POP DUP2 PUSH20 0xFFFFFFFFFFFFFFFFFFFFFFFFFFFFFFFFFFFFFFFF AND DUP2 PUSH20 0xFFFFFFFFFFFFFFFFFFFFFFFFFFFFFFFFFFFFFFFF AND PUSH32 0x8BE0079C531659141344CD1FD0A4F28419497F9722A3DAAFE3B4186F6B6457E0 PUSH1 0x40 MLOAD PUSH1 0x40 MLOAD DUP1 SWAP2 SUB SWAP1 LOG3 POP POP JUMP JUMPDEST PUSH2 0x2EF6 DUP5 PUSH4 0x23B872DD PUSH1 0xE0 SHL DUP6 DUP6 DUP6 PUSH1 0x40 MLOAD PUSH1 0x24 ADD PUSH2 0x2E94 SWAP4 SWAP3 SWAP2 SWAP1 PUSH2 0x4D44 JUMP JUMPDEST PUSH1 0x40 MLOAD PUSH1 0x20 DUP2 DUP4 SUB SUB DUP2 MSTORE SWAP1 PUSH1 0x40 MSTORE SWAP1 PUSH28 0xFFFFFFFFFFFFFFFFFFFFFFFFFFFFFFFFFFFFFFFFFFFFFFFFFFFFFFFF NOT AND PUSH1 0x20 DUP3 ADD DUP1 MLOAD PUSH28 0xFFFFFFFFFFFFFFFFFFFFFFFFFFFFFFFFFFFFFFFFFFFFFFFFFFFFFFFF DUP4 DUP2 DUP4 AND OR DUP4 MSTORE POP POP POP POP PUSH2 0x2F04 JUMP JUMPDEST POP POP POP POP JUMP JUMPDEST PUSH1 0x0 CALLER SWAP1 POP SWAP1 JUMP JUMPDEST PUSH1 0x0 PUSH2 0x2F66 DUP3 PUSH1 0x40 MLOAD DUP1 PUSH1 0x40 ADD PUSH1 0x40 MSTORE DUP1 PUSH1 0x20 DUP2 MSTORE PUSH1 0x20 ADD PUSH32 0x5361666545524332303A206C6F772D6C6576656C2063616C6C206661696C6564 DUP2 MSTORE POP DUP6 PUSH20 0xFFFFFFFFFFFFFFFFFFFFFFFFFFFFFFFFFFFFFFFF AND PUSH2 0x2FCC SWAP1 SWAP3 SWAP2 SWAP1 PUSH4 0xFFFFFFFF AND JUMP JUMPDEST SWAP1 POP PUSH1 0x0 DUP2 MLOAD EQ DUP1 PUSH2 0x2F88 JUMPI POP DUP1 DUP1 PUSH1 0x20 ADD SWAP1 MLOAD DUP2 ADD SWAP1 PUSH2 0x2F87 SWAP2 SWAP1 PUSH2 0x4D90 JUMP JUMPDEST JUMPDEST PUSH2 0x2FC7 JUMPI PUSH1 0x40 MLOAD PUSH32 0x8C379A000000000000000000000000000000000000000000000000000000000 DUP2 MSTORE PUSH1 0x4 ADD PUSH2 0x2FBE SWAP1 PUSH2 0x4E2F JUMP JUMPDEST PUSH1 0x40 MLOAD DUP1 SWAP2 SUB SWAP1 REVERT JUMPDEST POP POP POP JUMP JUMPDEST PUSH1 0x60 PUSH2 0x2FDB DUP5 DUP5 PUSH1 0x0 DUP6 PUSH2 0x2FE4 JUMP JUMPDEST SWAP1 POP SWAP4 SWAP3 POP POP POP JUMP JUMPDEST PUSH1 0x60 DUP3 SELFBALANCE LT ISZERO PUSH2 0x3029 JUMPI PUSH1 0x40 MLOAD PUSH32 0x8C379A000000000000000000000000000000000000000000000000000000000 DUP2 MSTORE PUSH1 0x4 ADD PUSH2 0x3020 SWAP1 PUSH2 0x4EC1 JUMP JUMPDEST PUSH1 0x40 MLOAD DUP1 SWAP2 SUB SWAP1 REVERT JUMPDEST PUSH1 0x0 DUP1 DUP7 PUSH20 0xFFFFFFFFFFFFFFFFFFFFFFFFFFFFFFFFFFFFFFFF AND DUP6 DUP8 PUSH1 0x40 MLOAD PUSH2 0x3052 SWAP2 SWAP1 PUSH2 0x4F28 JUMP JUMPDEST PUSH1 0x0 PUSH1 0x40 MLOAD DUP1 DUP4 SUB DUP2 DUP6 DUP8 GAS CALL SWAP3 POP POP POP RETURNDATASIZE DUP1 PUSH1 0x0 DUP2 EQ PUSH2 0x308F JUMPI PUSH1 0x40 MLOAD SWAP2 POP PUSH1 0x1F NOT PUSH1 0x3F RETURNDATASIZE ADD AND DUP3 ADD PUSH1 0x40 MSTORE RETURNDATASIZE DUP3 MSTORE RETURNDATASIZE PUSH1 0x0 PUSH1 0x20 DUP5 ADD RETURNDATACOPY PUSH2 0x3094 JUMP JUMPDEST PUSH1 0x60 SWAP2 POP JUMPDEST POP SWAP2 POP SWAP2 POP PUSH2 0x30A5 DUP8 DUP4 DUP4 DUP8 PUSH2 0x30B1 JUMP JUMPDEST SWAP3 POP POP POP SWAP5 SWAP4 POP POP POP POP JUMP JUMPDEST PUSH1 0x60 DUP4 ISZERO PUSH2 0x3113 JUMPI PUSH1 0x0 DUP4 MLOAD SUB PUSH2 0x310B JUMPI PUSH2 0x30CB DUP6 PUSH2 0x3126 JUMP JUMPDEST PUSH2 0x310A JUMPI PUSH1 0x40 MLOAD PUSH32 0x8C379A000000000000000000000000000000000000000000000000000000000 DUP2 MSTORE PUSH1 0x4 ADD PUSH2 0x3101 SWAP1 PUSH2 0x4F8B JUMP JUMPDEST PUSH1 0x40 MLOAD DUP1 SWAP2 SUB SWAP1 REVERT JUMPDEST JUMPDEST DUP3 SWAP1 POP PUSH2 0x311E JUMP JUMPDEST PUSH2 0x311D DUP4 DUP4 PUSH2 0x3149 JUMP JUMPDEST JUMPDEST SWAP5 SWAP4 POP POP POP POP JUMP JUMPDEST PUSH1 0x0 DUP1 DUP3 PUSH20 0xFFFFFFFFFFFFFFFFFFFFFFFFFFFFFFFFFFFFFFFF AND EXTCODESIZE GT SWAP1 POP SWAP2 SWAP1 POP JUMP JUMPDEST PUSH1 0x0 DUP3 MLOAD GT ISZERO PUSH2 0x315C JUMPI DUP2 MLOAD DUP1 DUP4 PUSH1 0x20 ADD REVERT JUMPDEST DUP1 PUSH1 0x40 MLOAD PUSH32 0x8C379A000000000000000000000000000000000000000000000000000000000 DUP2 MSTORE PUSH1 0x4 ADD PUSH2 0x3190 SWAP2 SWAP1 PUSH2 0x4FAB JUMP JUMPDEST PUSH1 0x40 MLOAD DUP1 SWAP2 SUB SWAP1 REVERT JUMPDEST PUSH1 0x40 MLOAD DUP1 PUSH2 0x140 ADD PUSH1 0x40 MSTORE DUP1 PUSH1 0x0 DUP2 MSTORE PUSH1 0x20 ADD PUSH1 0x0 DUP2 MSTORE PUSH1 0x20 ADD PUSH1 0x0 PUSH20 0xFFFFFFFFFFFFFFFFFFFFFFFFFFFFFFFFFFFFFFFF AND DUP2 MSTORE PUSH1 0x20 ADD PUSH1 0x0 PUSH20 0xFFFFFFFFFFFFFFFFFFFFFFFFFFFFFFFFFFFFFFFF AND DUP2 MSTORE PUSH1 0x20 ADD PUSH1 0x60 DUP2 MSTORE PUSH1 0x20 ADD PUSH1 0x0 DUP2 MSTORE PUSH1 0x20 ADD PUSH1 0x0 DUP2 MSTORE PUSH1 0x20 ADD PUSH1 0x0 PUSH1 0x6 DUP2 GT ISZERO PUSH2 0x3216 JUMPI PUSH2 0x3215 PUSH2 0x3776 JUMP JUMPDEST JUMPDEST DUP2 MSTORE PUSH1 0x20 ADD PUSH1 0x0 DUP2 MSTORE PUSH1 0x20 ADD PUSH1 0x0 ISZERO ISZERO DUP2 MSTORE POP SWAP1 JUMP JUMPDEST PUSH1 0x40 MLOAD DUP1 PUSH2 0x120 ADD PUSH1 0x40 MSTORE DUP1 PUSH1 0x0 DUP2 MSTORE PUSH1 0x20 ADD PUSH1 0x0 PUSH20 0xFFFFFFFFFFFFFFFFFFFFFFFFFFFFFFFFFFFFFFFF AND DUP2 MSTORE PUSH1 0x20 ADD PUSH1 0x60 DUP2 MSTORE PUSH1 0x20 ADD PUSH1 0x60 DUP2 MSTORE PUSH1 0x20 ADD PUSH1 0x0 DUP2 MSTORE PUSH1 0x20 ADD PUSH1 0x0 DUP2 MSTORE PUSH1 0x20 ADD PUSH1 0x0 DUP2 MSTORE PUSH1 0x20 ADD PUSH1 0x0 DUP2 MSTORE PUSH1 0x20 ADD PUSH1 0x0 ISZERO ISZERO DUP2 MSTORE POP SWAP1 JUMP JUMPDEST PUSH1 0x0 DUP1 REVERT JUMPDEST PUSH1 0x0 DUP1 REVERT JUMPDEST PUSH1 0x0 DUP2 SWAP1 POP SWAP2 SWAP1 POP JUMP JUMPDEST PUSH2 0x32AD DUP2 PUSH2 0x329A JUMP JUMPDEST DUP2 EQ PUSH2 0x32B8 JUMPI PUSH1 0x0 DUP1 REVERT JUMPDEST POP JUMP JUMPDEST PUSH1 0x0 DUP2 CALLDATALOAD SWAP1 POP PUSH2 0x32CA DUP2 PUSH2 0x32A4 JUMP JUMPDEST SWAP3 SWAP2 POP POP JUMP JUMPDEST PUSH1 0x0 PUSH1 0x20 DUP3 DUP5 SUB SLT ISZERO PUSH2 0x32E6 JUMPI PUSH2 0x32E5 PUSH2 0x3290 JUMP JUMPDEST JUMPDEST PUSH1 0x0 PUSH2 0x32F4 DUP5 DUP3 DUP6 ADD PUSH2 0x32BB JUMP JUMPDEST SWAP2 POP POP SWAP3 SWAP2 POP POP JUMP JUMPDEST PUSH1 0x0 DUP2 ISZERO ISZERO SWAP1 POP SWAP2 SWAP1 POP JUMP JUMPDEST PUSH2 0x3312 DUP2 PUSH2 0x32FD JUMP JUMPDEST DUP2 EQ PUSH2 0x331D JUMPI PUSH1 0x0 DUP1 REVERT JUMPDEST POP JUMP JUMPDEST PUSH1 0x0 DUP2 CALLDATALOAD SWAP1 POP PUSH2 0x332F DUP2 PUSH2 0x3309 JUMP JUMPDEST SWAP3 SWAP2 POP POP JUMP JUMPDEST PUSH1 0x0 DUP1 PUSH1 0x40 DUP4 DUP6 SUB SLT ISZERO PUSH2 0x334C JUMPI PUSH2 0x334B PUSH2 0x3290 JUMP JUMPDEST JUMPDEST PUSH1 0x0 PUSH2 0x335A DUP6 DUP3 DUP7 ADD PUSH2 0x32BB JUMP JUMPDEST SWAP3 POP POP PUSH1 0x20 PUSH2 0x336B DUP6 DUP3 DUP7 ADD PUSH2 0x3320 JUMP JUMPDEST SWAP2 POP POP SWAP3 POP SWAP3 SWAP1 POP JUMP JUMPDEST PUSH1 0x0 PUSH20 0xFFFFFFFFFFFFFFFFFFFFFFFFFFFFFFFFFFFFFFFF DUP3 AND SWAP1 POP SWAP2 SWAP1 POP JUMP JUMPDEST PUSH1 0x0 PUSH2 0x33A0 DUP3 PUSH2 0x3375 JUMP JUMPDEST SWAP1 POP SWAP2 SWAP1 POP JUMP JUMPDEST PUSH2 0x33B0 DUP2 PUSH2 0x3395 JUMP JUMPDEST DUP2 EQ PUSH2 0x33BB JUMPI PUSH1 0x0 DUP1 REVERT JUMPDEST POP JUMP JUMPDEST PUSH1 0x0 DUP2 CALLDATALOAD SWAP1 POP PUSH2 0x33CD DUP2 PUSH2 0x33A7 JUMP JUMPDEST SWAP3 SWAP2 POP POP JUMP JUMPDEST PUSH1 0x0 PUSH1 0x20 DUP3 DUP5 SUB SLT ISZERO PUSH2 0x33E9 JUMPI PUSH2 0x33E8 PUSH2 0x3290 JUMP JUMPDEST JUMPDEST PUSH1 0x0 PUSH2 0x33F7 DUP5 DUP3 DUP6 ADD PUSH2 0x33BE JUMP JUMPDEST SWAP2 POP POP SWAP3 SWAP2 POP POP JUMP JUMPDEST PUSH2 0x3409 DUP2 PUSH2 0x329A JUMP JUMPDEST DUP3 MSTORE POP POP JUMP JUMPDEST PUSH1 0x0 PUSH1 0x20 DUP3 ADD SWAP1 POP PUSH2 0x3424 PUSH1 0x0 DUP4 ADD DUP5 PUSH2 0x3400 JUMP JUMPDEST SWAP3 SWAP2 POP POP JUMP JUMPDEST PUSH1 0x0 DUP1 PUSH1 0x40 DUP4 DUP6 SUB SLT ISZERO PUSH2 0x3441 JUMPI PUSH2 0x3440 PUSH2 0x3290 JUMP JUMPDEST JUMPDEST PUSH1 0x0 PUSH2 0x344F DUP6 DUP3 DUP7 ADD PUSH2 0x33BE JUMP JUMPDEST SWAP3 POP POP PUSH1 0x20 PUSH2 0x3460 DUP6 DUP3 DUP7 ADD PUSH2 0x3320 JUMP JUMPDEST SWAP2 POP POP SWAP3 POP SWAP3 SWAP1 POP JUMP JUMPDEST PUSH1 0x0 DUP1 REVERT JUMPDEST PUSH1 0x0 DUP1 REVERT JUMPDEST PUSH1 0x0 DUP1 REVERT JUMPDEST PUSH1 0x0 DUP1 DUP4 PUSH1 0x1F DUP5 ADD SLT PUSH2 0x348F JUMPI PUSH2 0x348E PUSH2 0x346A JUMP JUMPDEST JUMPDEST DUP3 CALLDATALOAD SWAP1 POP PUSH8 0xFFFFFFFFFFFFFFFF DUP2 GT ISZERO PUSH2 0x34AC JUMPI PUSH2 0x34AB PUSH2 0x346F JUMP JUMPDEST JUMPDEST PUSH1 0x20 DUP4 ADD SWAP2 POP DUP4 PUSH1 0x1 DUP3 MUL DUP4 ADD GT ISZERO PUSH2 0x34C8 JUMPI PUSH2 0x34C7 PUSH2 0x3474 JUMP JUMPDEST JUMPDEST SWAP3 POP SWAP3 SWAP1 POP JUMP JUMPDEST PUSH1 0x0 DUP1 PUSH1 0x0 DUP1 PUSH1 0x0 DUP1 PUSH1 0x0 DUP1 PUSH1 0xC0 DUP10 DUP12 SUB SLT ISZERO PUSH2 0x34EF JUMPI PUSH2 0x34EE PUSH2 0x3290 JUMP JUMPDEST JUMPDEST PUSH1 0x0 DUP10 ADD CALLDATALOAD PUSH8 0xFFFFFFFFFFFFFFFF DUP2 GT ISZERO PUSH2 0x350D JUMPI PUSH2 0x350C PUSH2 0x3295 JUMP JUMPDEST JUMPDEST PUSH2 0x3519 DUP12 DUP3 DUP13 ADD PUSH2 0x3479 JUMP JUMPDEST SWAP9 POP SWAP9 POP POP PUSH1 0x20 DUP10 ADD CALLDATALOAD PUSH8 0xFFFFFFFFFFFFFFFF DUP2 GT ISZERO PUSH2 0x353C JUMPI PUSH2 0x353B PUSH2 0x3295 JUMP JUMPDEST JUMPDEST PUSH2 0x3548 DUP12 DUP3 DUP13 ADD PUSH2 0x3479 JUMP JUMPDEST SWAP7 POP SWAP7 POP POP PUSH1 0x40 PUSH2 0x355B DUP12 DUP3 DUP13 ADD PUSH2 0x32BB JUMP JUMPDEST SWAP5 POP POP PUSH1 0x60 PUSH2 0x356C DUP12 DUP3 DUP13 ADD PUSH2 0x32BB JUMP JUMPDEST SWAP4 POP POP PUSH1 0x80 PUSH2 0x357D DUP12 DUP3 DUP13 ADD PUSH2 0x32BB JUMP JUMPDEST SWAP3 POP POP PUSH1 0xA0 PUSH2 0x358E DUP12 DUP3 DUP13 ADD PUSH2 0x32BB JUMP JUMPDEST SWAP2 POP POP SWAP3 SWAP6 SWAP9 POP SWAP3 SWAP6 SWAP9 SWAP1 SWAP4 SWAP7 POP JUMP JUMPDEST PUSH2 0x35A7 DUP2 PUSH2 0x3395 JUMP JUMPDEST DUP3 MSTORE POP POP JUMP JUMPDEST PUSH1 0x0 DUP2 MLOAD SWAP1 POP SWAP2 SWAP1 POP JUMP JUMPDEST PUSH1 0x0 DUP3 DUP3 MSTORE PUSH1 0x20 DUP3 ADD SWAP1 POP SWAP3 SWAP2 POP POP JUMP JUMPDEST PUSH1 0x0 JUMPDEST DUP4 DUP2 LT ISZERO PUSH2 0x35E7 JUMPI DUP1 DUP3 ADD MLOAD DUP2 DUP5 ADD MSTORE PUSH1 0x20 DUP2 ADD SWAP1 POP PUSH2 0x35CC JUMP JUMPDEST PUSH1 0x0 DUP5 DUP5 ADD MSTORE POP POP POP POP JUMP JUMPDEST PUSH1 0x0 PUSH1 0x1F NOT PUSH1 0x1F DUP4 ADD AND SWAP1 POP SWAP2 SWAP1 POP JUMP JUMPDEST PUSH1 0x0 PUSH2 0x360F DUP3 PUSH2 0x35AD JUMP JUMPDEST PUSH2 0x3619 DUP2 DUP6 PUSH2 0x35B8 JUMP JUMPDEST SWAP4 POP PUSH2 0x3629 DUP2 DUP6 PUSH1 0x20 DUP7 ADD PUSH2 0x35C9 JUMP JUMPDEST PUSH2 0x3632 DUP2 PUSH2 0x35F3 JUMP JUMPDEST DUP5 ADD SWAP2 POP POP SWAP3 SWAP2 POP POP JUMP JUMPDEST PUSH2 0x3646 DUP2 PUSH2 0x32FD JUMP JUMPDEST DUP3 MSTORE POP POP JUMP JUMPDEST PUSH1 0x0 PUSH2 0x120 DUP3 ADD SWAP1 POP PUSH2 0x3662 PUSH1 0x0 DUP4 ADD DUP13 PUSH2 0x3400 JUMP JUMPDEST PUSH2 0x366F PUSH1 0x20 DUP4 ADD DUP12 PUSH2 0x359E JUMP JUMPDEST DUP2 DUP2 SUB PUSH1 0x40 DUP4 ADD MSTORE PUSH2 0x3681 DUP2 DUP11 PUSH2 0x3604 JUMP JUMPDEST SWAP1 POP DUP2 DUP2 SUB PUSH1 0x60 DUP4 ADD MSTORE PUSH2 0x3695 DUP2 DUP10 PUSH2 0x3604 JUMP JUMPDEST SWAP1 POP PUSH2 0x36A4 PUSH1 0x80 DUP4 ADD DUP9 PUSH2 0x3400 JUMP JUMPDEST PUSH2 0x36B1 PUSH1 0xA0 DUP4 ADD DUP8 PUSH2 0x3400 JUMP JUMPDEST PUSH2 0x36BE PUSH1 0xC0 DUP4 ADD DUP7 PUSH2 0x3400 JUMP JUMPDEST PUSH2 0x36CB PUSH1 0xE0 DUP4 ADD DUP6 PUSH2 0x3400 JUMP JUMPDEST PUSH2 0x36D9 PUSH2 0x100 DUP4 ADD DUP5 PUSH2 0x363D JUMP JUMPDEST SWAP11 SWAP10 POP POP POP POP POP POP POP POP POP POP JUMP JUMPDEST PUSH1 0x0 DUP1 PUSH1 0x0 DUP1 PUSH1 0x60 DUP6 DUP8 SUB SLT ISZERO PUSH2 0x3701 JUMPI PUSH2 0x3700 PUSH2 0x3290 JUMP JUMPDEST JUMPDEST PUSH1 0x0 PUSH2 0x370F DUP8 DUP3 DUP9 ADD PUSH2 0x32BB JUMP JUMPDEST SWAP5 POP POP PUSH1 0x20 DUP6 ADD CALLDATALOAD PUSH8 0xFFFFFFFFFFFFFFFF DUP2 GT ISZERO PUSH2 0x3730 JUMPI PUSH2 0x372F PUSH2 0x3295 JUMP JUMPDEST JUMPDEST PUSH2 0x373C DUP8 DUP3 DUP9 ADD PUSH2 0x3479 JUMP JUMPDEST SWAP4 POP SWAP4 POP POP PUSH1 0x40 PUSH2 0x374F DUP8 DUP3 DUP9 ADD PUSH2 0x32BB JUMP JUMPDEST SWAP2 POP POP SWAP3 SWAP6 SWAP2 SWAP5 POP SWAP3 POP JUMP JUMPDEST PUSH1 0x0 PUSH1 0x20 DUP3 ADD SWAP1 POP PUSH2 0x3770 PUSH1 0x0 DUP4 ADD DUP5 PUSH2 0x359E JUMP JUMPDEST SWAP3 SWAP2 POP POP JUMP JUMPDEST PUSH32 0x4E487B7100000000000000000000000000000000000000000000000000000000 PUSH1 0x0 MSTORE PUSH1 0x21 PUSH1 0x4 MSTORE PUSH1 0x24 PUSH1 0x0 REVERT JUMPDEST PUSH1 0x7 DUP2 LT PUSH2 0x37B6 JUMPI PUSH2 0x37B5 PUSH2 0x3776 JUMP JUMPDEST JUMPDEST POP JUMP JUMPDEST PUSH1 0x0 DUP2 SWAP1 POP PUSH2 0x37C7 DUP3 PUSH2 0x37A5 JUMP JUMPDEST SWAP2 SWAP1 POP JUMP JUMPDEST PUSH1 0x0 PUSH2 0x37D7 DUP3 PUSH2 0x37B9 JUMP JUMPDEST SWAP1 POP SWAP2 SWAP1 POP JUMP JUMPDEST PUSH2 0x37E7 DUP2 PUSH2 0x37CC JUMP JUMPDEST DUP3 MSTORE POP POP JUMP JUMPDEST PUSH1 0x0 PUSH2 0x140 DUP3 ADD SWAP1 POP PUSH2 0x3803 PUSH1 0x0 DUP4 ADD DUP14 PUSH2 0x3400 JUMP JUMPDEST PUSH2 0x3810 PUSH1 0x20 DUP4 ADD DUP13 PUSH2 0x3400 JUMP JUMPDEST PUSH2 0x381D PUSH1 0x40 DUP4 ADD DUP12 PUSH2 0x359E JUMP JUMPDEST PUSH2 0x382A PUSH1 0x60 DUP4 ADD DUP11 PUSH2 0x359E JUMP JUMPDEST DUP2 DUP2 SUB PUSH1 0x80 DUP4 ADD MSTORE PUSH2 0x383C DUP2 DUP10 PUSH2 0x3604 JUMP JUMPDEST SWAP1 POP PUSH2 0x384B PUSH1 0xA0 DUP4 ADD DUP9 PUSH2 0x3400 JUMP JUMPDEST PUSH2 0x3858 PUSH1 0xC0 DUP4 ADD DUP8 PUSH2 0x3400 JUMP JUMPDEST PUSH2 0x3865 PUSH1 0xE0 DUP4 ADD DUP7 PUSH2 0x37DE JUMP JUMPDEST PUSH2 0x3873 PUSH2 0x100 DUP4 ADD DUP6 PUSH2 0x3400 JUMP JUMPDEST PUSH2 0x3881 PUSH2 0x120 DUP4 ADD DUP5 PUSH2 0x363D JUMP JUMPDEST SWAP12 SWAP11 POP POP POP POP POP POP POP POP POP POP POP JUMP JUMPDEST PUSH2 0x3899 DUP2 PUSH2 0x329A JUMP JUMPDEST DUP3 MSTORE POP POP JUMP JUMPDEST PUSH2 0x38A8 DUP2 PUSH2 0x3395 JUMP JUMPDEST DUP3 MSTORE POP POP JUMP JUMPDEST PUSH1 0x0 DUP3 DUP3 MSTORE PUSH1 0x20 DUP3 ADD SWAP1 POP SWAP3 SWAP2 POP POP JUMP JUMPDEST PUSH1 0x0 PUSH2 0x38CA DUP3 PUSH2 0x35AD JUMP JUMPDEST PUSH2 0x38D4 DUP2 DUP6 PUSH2 0x38AE JUMP JUMPDEST SWAP4 POP PUSH2 0x38E4 DUP2 DUP6 PUSH1 0x20 DUP7 ADD PUSH2 0x35C9 JUMP JUMPDEST PUSH2 0x38ED DUP2 PUSH2 0x35F3 JUMP JUMPDEST DUP5 ADD SWAP2 POP POP SWAP3 SWAP2 POP POP JUMP JUMPDEST PUSH2 0x3901 DUP2 PUSH2 0x37CC JUMP JUMPDEST DUP3 MSTORE POP POP JUMP JUMPDEST PUSH2 0x3910 DUP2 PUSH2 0x32FD JUMP JUMPDEST DUP3 MSTORE POP POP JUMP JUMPDEST PUSH1 0x0 PUSH2 0x140 DUP4 ADD PUSH1 0x0 DUP4 ADD MLOAD PUSH2 0x392F PUSH1 0x0 DUP7 ADD DUP3 PUSH2 0x3890 JUMP JUMPDEST POP PUSH1 0x20 DUP4 ADD MLOAD PUSH2 0x3942 PUSH1 0x20 DUP7 ADD DUP3 PUSH2 0x3890 JUMP JUMPDEST POP PUSH1 0x40 DUP4 ADD MLOAD PUSH2 0x3955 PUSH1 0x40 DUP7 ADD DUP3 PUSH2 0x389F JUMP JUMPDEST POP PUSH1 0x60 DUP4 ADD MLOAD PUSH2 0x3968 PUSH1 0x60 DUP7 ADD DUP3 PUSH2 0x389F JUMP JUMPDEST POP PUSH1 0x80 DUP4 ADD MLOAD DUP5 DUP3 SUB PUSH1 0x80 DUP7 ADD MSTORE PUSH2 0x3980 DUP3 DUP3 PUSH2 0x38BF JUMP JUMPDEST SWAP2 POP POP PUSH1 0xA0 DUP4 ADD MLOAD PUSH2 0x3995 PUSH1 0xA0 DUP7 ADD DUP3 PUSH2 0x3890 JUMP JUMPDEST POP PUSH1 0xC0 DUP4 ADD MLOAD PUSH2 0x39A8 PUSH1 0xC0 DUP7 ADD DUP3 PUSH2 0x3890 JUMP JUMPDEST POP PUSH1 0xE0 DUP4 ADD MLOAD PUSH2 0x39BB PUSH1 0xE0 DUP7 ADD DUP3 PUSH2 0x38F8 JUMP JUMPDEST POP PUSH2 0x100 DUP4 ADD MLOAD PUSH2 0x39D0 PUSH2 0x100 DUP7 ADD DUP3 PUSH2 0x3890 JUMP JUMPDEST POP PUSH2 0x120 DUP4 ADD MLOAD PUSH2 0x39E5 PUSH2 0x120 DUP7 ADD DUP3 PUSH2 0x3907 JUMP JUMPDEST POP DUP1 SWAP2 POP POP SWAP3 SWAP2 POP POP JUMP JUMPDEST PUSH1 0x0 PUSH1 0x20 DUP3 ADD SWAP1 POP DUP2 DUP2 SUB PUSH1 0x0 DUP4 ADD MSTORE PUSH2 0x3A0A DUP2 DUP5 PUSH2 0x3916 JUMP JUMPDEST SWAP1 POP SWAP3 SWAP2 POP POP JUMP JUMPDEST PUSH1 0x0 DUP2 SWAP1 POP SWAP2 SWAP1 POP JUMP JUMPDEST PUSH1 0x0 PUSH2 0x3A37 PUSH2 0x3A32 PUSH2 0x3A2D DUP5 PUSH2 0x3375 JUMP JUMPDEST PUSH2 0x3A12 JUMP JUMPDEST PUSH2 0x3375 JUMP JUMPDEST SWAP1 POP SWAP2 SWAP1 POP JUMP JUMPDEST PUSH1 0x0 PUSH2 0x3A49 DUP3 PUSH2 0x3A1C JUMP JUMPDEST SWAP1 POP SWAP2 SWAP1 POP JUMP JUMPDEST PUSH1 0x0 PUSH2 0x3A5B DUP3 PUSH2 0x3A3E JUMP JUMPDEST SWAP1 POP SWAP2 SWAP1 POP JUMP JUMPDEST PUSH2 0x3A6B DUP2 PUSH2 0x3A50 JUMP JUMPDEST DUP3 MSTORE POP POP JUMP JUMPDEST PUSH1 0x0 PUSH1 0x20 DUP3 ADD SWAP1 POP PUSH2 0x3A86 PUSH1 0x0 DUP4 ADD DUP5 PUSH2 0x3A62 JUMP JUMPDEST SWAP3 SWAP2 POP POP JUMP JUMPDEST PUSH1 0x0 DUP1 PUSH1 0x0 DUP1 PUSH1 0x0 DUP1 PUSH1 0x0 DUP1 PUSH1 0x0 PUSH1 0xE0 DUP11 DUP13 SUB SLT ISZERO PUSH2 0x3AAE JUMPI PUSH2 0x3AAD PUSH2 0x3290 JUMP JUMPDEST JUMPDEST PUSH1 0x0 PUSH2 0x3ABC DUP13 DUP3 DUP14 ADD PUSH2 0x32BB JUMP JUMPDEST SWAP10 POP POP PUSH1 0x20 DUP11 ADD CALLDATALOAD PUSH8 0xFFFFFFFFFFFFFFFF DUP2 GT ISZERO PUSH2 0x3ADD JUMPI PUSH2 0x3ADC PUSH2 0x3295 JUMP JUMPDEST JUMPDEST PUSH2 0x3AE9 DUP13 DUP3 DUP14 ADD PUSH2 0x3479 JUMP JUMPDEST SWAP9 POP SWAP9 POP POP PUSH1 0x40 DUP11 ADD CALLDATALOAD PUSH8 0xFFFFFFFFFFFFFFFF DUP2 GT ISZERO PUSH2 0x3B0C JUMPI PUSH2 0x3B0B PUSH2 0x3295 JUMP JUMPDEST JUMPDEST PUSH2 0x3B18 DUP13 DUP3 DUP14 ADD PUSH2 0x3479 JUMP JUMPDEST SWAP7 POP SWAP7 POP POP PUSH1 0x60 PUSH2 0x3B2B DUP13 DUP3 DUP14 ADD PUSH2 0x32BB JUMP JUMPDEST SWAP5 POP POP PUSH1 0x80 PUSH2 0x3B3C DUP13 DUP3 DUP14 ADD PUSH2 0x32BB JUMP JUMPDEST SWAP4 POP POP PUSH1 0xA0 PUSH2 0x3B4D DUP13 DUP3 DUP14 ADD PUSH2 0x32BB JUMP JUMPDEST SWAP3 POP POP PUSH1 0xC0 PUSH2 0x3B5E DUP13 DUP3 DUP14 ADD PUSH2 0x32BB JUMP JUMPDEST SWAP2 POP POP SWAP3 SWAP6 SWAP9 POP SWAP3 SWAP6 SWAP9 POP SWAP3 SWAP6 SWAP9 JUMP JUMPDEST PUSH1 0x0 PUSH2 0x120 DUP4 ADD PUSH1 0x0 DUP4 ADD MLOAD PUSH2 0x3B87 PUSH1 0x0 DUP7 ADD DUP3 PUSH2 0x3890 JUMP JUMPDEST POP PUSH1 0x20 DUP4 ADD MLOAD PUSH2 0x3B9A PUSH1 0x20 DUP7 ADD DUP3 PUSH2 0x389F JUMP JUMPDEST POP PUSH1 0x40 DUP4 ADD MLOAD DUP5 DUP3 SUB PUSH1 0x40 DUP7 ADD MSTORE PUSH2 0x3BB2 DUP3 DUP3 PUSH2 0x38BF JUMP JUMPDEST SWAP2 POP POP PUSH1 0x60 DUP4 ADD MLOAD DUP5 DUP3 SUB PUSH1 0x60 DUP7 ADD MSTORE PUSH2 0x3BCC DUP3 DUP3 PUSH2 0x38BF JUMP JUMPDEST SWAP2 POP POP PUSH1 0x80 DUP4 ADD MLOAD PUSH2 0x3BE1 PUSH1 0x80 DUP7 ADD DUP3 PUSH2 0x3890 JUMP JUMPDEST POP PUSH1 0xA0 DUP4 ADD MLOAD PUSH2 0x3BF4 PUSH1 0xA0 DUP7 ADD DUP3 PUSH2 0x3890 JUMP JUMPDEST POP PUSH1 0xC0 DUP4 ADD MLOAD PUSH2 0x3C07 PUSH1 0xC0 DUP7 ADD DUP3 PUSH2 0x3890 JUMP JUMPDEST POP PUSH1 0xE0 DUP4 ADD MLOAD PUSH2 0x3C1A PUSH1 0xE0 DUP7 ADD DUP3 PUSH2 0x3890 JUMP JUMPDEST POP PUSH2 0x100 DUP4 ADD MLOAD PUSH2 0x3C2F PUSH2 0x100 DUP7 ADD DUP3 PUSH2 0x3907 JUMP JUMPDEST POP DUP1 SWAP2 POP POP SWAP3 SWAP2 POP POP JUMP JUMPDEST PUSH1 0x0 PUSH1 0x20 DUP3 ADD SWAP1 POP DUP2 DUP2 SUB PUSH1 0x0 DUP4 ADD MSTORE PUSH2 0x3C54 DUP2 DUP5 PUSH2 0x3B6E JUMP JUMPDEST SWAP1 POP SWAP3 SWAP2 POP POP JUMP JUMPDEST PUSH32 0x4E6F74207468652074726176656C657200000000000000000000000000000000 PUSH1 0x0 DUP3 ADD MSTORE POP JUMP JUMPDEST PUSH1 0x0 PUSH2 0x3C92 PUSH1 0x10 DUP4 PUSH2 0x35B8 JUMP JUMPDEST SWAP2 POP PUSH2 0x3C9D DUP3 PUSH2 0x3C5C JUMP JUMPDEST PUSH1 0x20 DUP3 ADD SWAP1 POP SWAP2 SWAP1 POP JUMP JUMPDEST PUSH1 0x0 PUSH1 0x20 DUP3 ADD SWAP1 POP DUP2 DUP2 SUB PUSH1 0x0 DUP4 ADD MSTORE PUSH2 0x3CC1 DUP2 PUSH2 0x3C85 JUMP JUMPDEST SWAP1 POP SWAP2 SWAP1 POP JUMP JUMPDEST PUSH32 0x496E76616C696420737461747573000000000000000000000000000000000000 PUSH1 0x0 DUP3 ADD MSTORE POP JUMP JUMPDEST PUSH1 0x0 PUSH2 0x3CFE PUSH1 0xE DUP4 PUSH2 0x35B8 JUMP JUMPDEST SWAP2 POP PUSH2 0x3D09 DUP3 PUSH2 0x3CC8 JUMP JUMPDEST PUSH1 0x20 DUP3 ADD SWAP1 POP SWAP2 SWAP1 POP JUMP JUMPDEST PUSH1 0x0 PUSH1 0x20 DUP3 ADD SWAP1 POP DUP2 DUP2 SUB PUSH1 0x0 DUP4 ADD MSTORE PUSH2 0x3D2D DUP2 PUSH2 0x3CF1 JUMP JUMPDEST SWAP1 POP SWAP2 SWAP1 POP JUMP JUMPDEST PUSH1 0x0 PUSH1 0x20 DUP3 ADD SWAP1 POP PUSH2 0x3D49 PUSH1 0x0 DUP4 ADD DUP5 PUSH2 0x37DE JUMP JUMPDEST SWAP3 SWAP2 POP POP JUMP JUMPDEST PUSH32 0x4E6F742074686520726F757465206F776E657200000000000000000000000000 PUSH1 0x0 DUP3 ADD MSTORE POP JUMP JUMPDEST PUSH1 0x0 PUSH2 0x3D85 PUSH1 0x13 DUP4 PUSH2 0x35B8 JUMP JUMPDEST SWAP2 POP PUSH2 0x3D90 DUP3 PUSH2 0x3D4F JUMP JUMPDEST PUSH1 0x20 DUP3 ADD SWAP1 POP SWAP2 SWAP1 POP JUMP JUMPDEST PUSH1 0x0 PUSH1 0x20 DUP3 ADD SWAP1 POP DUP2 DUP2 SUB PUSH1 0x0 DUP4 ADD MSTORE PUSH2 0x3DB4 DUP2 PUSH2 0x3D78 JUMP JUMPDEST SWAP1 POP SWAP2 SWAP1 POP JUMP JUMPDEST PUSH32 0x526F75746520616C726561647920696E61637469766500000000000000000000 PUSH1 0x0 DUP3 ADD MSTORE POP JUMP JUMPDEST PUSH1 0x0 PUSH2 0x3DF1 PUSH1 0x16 DUP4 PUSH2 0x35B8 JUMP JUMPDEST SWAP2 POP PUSH2 0x3DFC DUP3 PUSH2 0x3DBB JUMP JUMPDEST PUSH1 0x20 DUP3 ADD SWAP1 POP SWAP2 SWAP1 POP JUMP JUMPDEST PUSH1 0x0 PUSH1 0x20 DUP3 ADD SWAP1 POP DUP2 DUP2 SUB PUSH1 0x0 DUP4 ADD MSTORE PUSH2 0x3E20 DUP2 PUSH2 0x3DE4 JUMP JUMPDEST SWAP1 POP SWAP2 SWAP1 POP JUMP JUMPDEST PUSH32 0x4E6F742064697370757465640000000000000000000000000000000000000000 PUSH1 0x0 DUP3 ADD MSTORE POP JUMP JUMPDEST PUSH1 0x0 PUSH2 0x3E5D PUSH1 0xC DUP4 PUSH2 0x35B8 JUMP JUMPDEST SWAP2 POP PUSH2 0x3E68 DUP3 PUSH2 0x3E27 JUMP JUMPDEST PUSH1 0x20 DUP3 ADD SWAP1 POP SWAP2 SWAP1 POP JUMP JUMPDEST PUSH1 0x0 PUSH1 0x20 DUP3 ADD SWAP1 POP DUP2 DUP2 SUB PUSH1 0x0 DUP4 ADD MSTORE PUSH2 0x3E8C DUP2 PUSH2 0x3E50 JUMP JUMPDEST SWAP1 POP SWAP2 SWAP1 POP JUMP JUMPDEST PUSH32 0x4E487B7100000000000000000000000000000000000000000000000000000000 PUSH1 0x0 MSTORE PUSH1 0x11 PUSH1 0x4 MSTORE PUSH1 0x24 PUSH1 0x0 REVERT JUMPDEST PUSH1 0x0 PUSH2 0x3ECD DUP3 PUSH2 0x329A JUMP JUMPDEST SWAP2 POP PUSH2 0x3ED8 DUP4 PUSH2 0x329A JUMP JUMPDEST SWAP3 POP DUP3 DUP3 MUL PUSH2 0x3EE6 DUP2 PUSH2 0x329A JUMP JUMPDEST SWAP2 POP DUP3 DUP3 DIV DUP5 EQ DUP4 ISZERO OR PUSH2 0x3EFD JUMPI PUSH2 0x3EFC PUSH2 0x3E93 JUMP JUMPDEST JUMPDEST POP SWAP3 SWAP2 POP POP JUMP JUMPDEST PUSH32 0x4E487B7100000000000000000000000000000000000000000000000000000000 PUSH1 0x0 MSTORE PUSH1 0x12 PUSH1 0x4 MSTORE PUSH1 0x24 PUSH1 0x0 REVERT JUMPDEST PUSH1 0x0 PUSH2 0x3F3E DUP3 PUSH2 0x329A JUMP JUMPDEST SWAP2 POP PUSH2 0x3F49 DUP4 PUSH2 0x329A JUMP JUMPDEST SWAP3 POP DUP3 PUSH2 0x3F59 JUMPI PUSH2 0x3F58 PUSH2 0x3F04 JUMP JUMPDEST JUMPDEST DUP3 DUP3 DIV SWAP1 POP SWAP3 SWAP2 POP POP JUMP JUMPDEST PUSH1 0x0 PUSH2 0x3F6F DUP3 PUSH2 0x329A JUMP JUMPDEST SWAP2 POP PUSH2 0x3F7A DUP4 PUSH2 0x329A JUMP JUMPDEST SWAP3 POP DUP3 DUP3 SUB SWAP1 POP DUP2 DUP2 GT ISZERO PUSH2 0x3F92 JUMPI PUSH2 0x3F91 PUSH2 0x3E93 JUMP JUMPDEST JUMPDEST SWAP3 SWAP2 POP POP JUMP JUMPDEST PUSH1 0x0 PUSH1 0x20 DUP3 ADD SWAP1 POP PUSH2 0x3FAD PUSH1 0x0 DUP4 ADD DUP5 PUSH2 0x363D JUMP JUMPDEST SWAP3 SWAP2 POP POP JUMP JUMPDEST PUSH32 0x43616E6E6F742072657669657720796F757273656C6600000000000000000000 PUSH1 0x0 DUP3 ADD MSTORE POP JUMP JUMPDEST PUSH1 0x0 PUSH2 0x3FE9 PUSH1 0x16 DUP4 PUSH2 0x35B8 JUMP JUMPDEST SWAP2 POP PUSH2 0x3FF4 DUP3 PUSH2 0x3FB3 JUMP JUMPDEST PUSH1 0x20 DUP3 ADD SWAP1 POP SWAP2 SWAP1 POP JUMP JUMPDEST PUSH1 0x0 PUSH1 0x20 DUP3 ADD SWAP1 POP DUP2 DUP2 SUB PUSH1 0x0 DUP4 ADD MSTORE PUSH2 0x4018 DUP2 PUSH2 0x3FDC JUMP JUMPDEST SWAP1 POP SWAP2 SWAP1 POP JUMP JUMPDEST PUSH1 0x0 PUSH2 0x402A DUP3 PUSH2 0x329A JUMP JUMPDEST SWAP2 POP PUSH32 0xFFFFFFFFFFFFFFFFFFFFFFFFFFFFFFFFFFFFFFFFFFFFFFFFFFFFFFFFFFFFFFFF DUP3 SUB PUSH2 0x405C JUMPI PUSH2 0x405B PUSH2 0x3E93 JUMP JUMPDEST JUMPDEST PUSH1 0x1 DUP3 ADD SWAP1 POP SWAP2 SWAP1 POP JUMP JUMPDEST PUSH32 0x4E6F20636F6D706C657465642064656C69766572696573207769746820746869 PUSH1 0x0 DUP3 ADD MSTORE PUSH32 0x7320757365720000000000000000000000000000000000000000000000000000 PUSH1 0x20 DUP3 ADD MSTORE POP JUMP JUMPDEST PUSH1 0x0 PUSH2 0x40C3 PUSH1 0x26 DUP4 PUSH2 0x35B8 JUMP JUMPDEST SWAP2 POP PUSH2 0x40CE DUP3 PUSH2 0x4067 JUMP JUMPDEST PUSH1 0x40 DUP3 ADD SWAP1 POP SWAP2 SWAP1 POP JUMP JUMPDEST PUSH1 0x0 PUSH1 0x20 DUP3 ADD SWAP1 POP DUP2 DUP2 SUB PUSH1 0x0 DUP4 ADD MSTORE PUSH2 0x40F2 DUP2 PUSH2 0x40B6 JUMP JUMPDEST SWAP1 POP SWAP2 SWAP1 POP JUMP JUMPDEST PUSH32 0x4465706172747572652074696D65206D75737420626520696E20746865206675 PUSH1 0x0 DUP3 ADD MSTORE PUSH32 0x7475726500000000000000000000000000000000000000000000000000000000 PUSH1 0x20 DUP3 ADD MSTORE POP JUMP JUMPDEST PUSH1 0x0 PUSH2 0x4155 PUSH1 0x24 DUP4 PUSH2 0x35B8 JUMP JUMPDEST SWAP2 POP PUSH2 0x4160 DUP3 PUSH2 0x40F9 JUMP JUMPDEST PUSH1 0x40 DUP3 ADD SWAP1 POP SWAP2 SWAP1 POP JUMP JUMPDEST PUSH1 0x0 PUSH1 0x20 DUP3 ADD SWAP1 POP DUP2 DUP2 SUB PUSH1 0x0 DUP4 ADD MSTORE PUSH2 0x4184 DUP2 PUSH2 0x4148 JUMP JUMPDEST SWAP1 POP SWAP2 SWAP1 POP JUMP JUMPDEST PUSH32 0x4172726976616C2074696D65206D757374206265206166746572206465706172 PUSH1 0x0 DUP3 ADD MSTORE PUSH32 0x747572652074696D650000000000000000000000000000000000000000000000 PUSH1 0x20 DUP3 ADD MSTORE POP JUMP JUMPDEST PUSH1 0x0 PUSH2 0x41E7 PUSH1 0x29 DUP4 PUSH2 0x35B8 JUMP JUMPDEST SWAP2 POP PUSH2 0x41F2 DUP3 PUSH2 0x418B JUMP JUMPDEST PUSH1 0x40 DUP3 ADD SWAP1 POP SWAP2 SWAP1 POP JUMP JUMPDEST PUSH1 0x0 PUSH1 0x20 DUP3 ADD SWAP1 POP DUP2 DUP2 SUB PUSH1 0x0 DUP4 ADD MSTORE PUSH2 0x4216 DUP2 PUSH2 0x41DA JUMP JUMPDEST SWAP1 POP SWAP2 SWAP1 POP JUMP JUMPDEST PUSH32 0x417661696C61626C65207370616365206D757374206265206772656174657220 PUSH1 0x0 DUP3 ADD MSTORE PUSH32 0x7468616E20300000000000000000000000000000000000000000000000000000 PUSH1 0x20 DUP3 ADD MSTORE POP JUMP JUMPDEST PUSH1 0x0 PUSH2 0x4279 PUSH1 0x26 DUP4 PUSH2 0x35B8 JUMP JUMPDEST SWAP2 POP PUSH2 0x4284 DUP3 PUSH2 0x421D JUMP JUMPDEST PUSH1 0x40 DUP3 ADD SWAP1 POP SWAP2 SWAP1 POP JUMP JUMPDEST PUSH1 0x0 PUSH1 0x20 DUP3 ADD SWAP1 POP DUP2 DUP2 SUB PUSH1 0x0 DUP4 ADD MSTORE PUSH2 0x42A8 DUP2 PUSH2 0x426C JUMP JUMPDEST SWAP1 POP SWAP2 SWAP1 POP JUMP JUMPDEST PUSH32 0x507269636520706572206B67206D757374206265206772656174657220746861 PUSH1 0x0 DUP3 ADD MSTORE PUSH32 0x6E20300000000000000000000000000000000000000000000000000000000000 PUSH1 0x20 DUP3 ADD MSTORE POP JUMP JUMPDEST PUSH1 0x0 PUSH2 0x430B PUSH1 0x23 DUP4 PUSH2 0x35B8 JUMP JUMPDEST SWAP2 POP PUSH2 0x4316 DUP3 PUSH2 0x42AF JUMP JUMPDEST PUSH1 0x40 DUP3 ADD SWAP1 POP SWAP2 SWAP1 POP JUMP JUMPDEST PUSH1 0x0 PUSH1 0x20 DUP3 ADD SWAP1 POP DUP2 DUP2 SUB PUSH1 0x0 DUP4 ADD MSTORE PUSH2 0x433A DUP2 PUSH2 0x42FE JUMP JUMPDEST SWAP1 POP SWAP2 SWAP1 POP JUMP JUMPDEST PUSH32 0x4E487B7100000000000000000000000000000000000000000000000000000000 PUSH1 0x0 MSTORE PUSH1 0x41 PUSH1 0x4 MSTORE PUSH1 0x24 PUSH1 0x0 REVERT JUMPDEST PUSH32 0x4E487B7100000000000000000000000000000000000000000000000000000000 PUSH1 0x0 MSTORE PUSH1 0x22 PUSH1 0x4 MSTORE PUSH1 0x24 PUSH1 0x0 REVERT JUMPDEST PUSH1 0x0 PUSH1 0x2 DUP3 DIV SWAP1 POP PUSH1 0x1 DUP3 AND DUP1 PUSH2 0x43B7 JUMPI PUSH1 0x7F DUP3 AND SWAP2 POP JUMPDEST PUSH1 0x20 DUP3 LT DUP2 SUB PUSH2 0x43CA JUMPI PUSH2 0x43C9 PUSH2 0x4370 JUMP JUMPDEST JUMPDEST POP SWAP2 SWAP1 POP JUMP JUMPDEST PUSH1 0x0 DUP2 SWAP1 POP DUP2 PUSH1 0x0 MSTORE PUSH1 0x20 PUSH1 0x0 KECCAK256 SWAP1 POP SWAP2 SWAP1 POP JUMP JUMPDEST PUSH1 0x0 PUSH1 0x20 PUSH1 0x1F DUP4 ADD DIV SWAP1 POP SWAP2 SWAP1 POP JUMP JUMPDEST PUSH1 0x0 DUP3 DUP3 SHL SWAP1 POP SWAP3 SWAP2 POP POP JUMP JUMPDEST PUSH1 0x0 PUSH1 0x8 DUP4 MUL PUSH2 0x4432 PUSH32 0xFFFFFFFFFFFFFFFFFFFFFFFFFFFFFFFFFFFFFFFFFFFFFFFFFFFFFFFFFFFFFFFF DUP3 PUSH2 0x43F5 JUMP JUMPDEST PUSH2 0x443C DUP7 DUP4 PUSH2 0x43F5 JUMP JUMPDEST SWAP6 POP DUP1 NOT DUP5 AND SWAP4 POP DUP1 DUP7 AND DUP5 OR SWAP3 POP POP POP SWAP4 SWAP3 POP POP POP JUMP JUMPDEST PUSH1 0x0 PUSH2 0x446F PUSH2 0x446A PUSH2 0x4465 DUP5 PUSH2 0x329A JUMP JUMPDEST PUSH2 0x3A12 JUMP JUMPDEST PUSH2 0x329A JUMP JUMPDEST SWAP1 POP SWAP2 SWAP1 POP JUMP JUMPDEST PUSH1 0x0 DUP2 SWAP1 POP SWAP2 SWAP1 POP JUMP JUMPDEST PUSH2 0x4489 DUP4 PUSH2 0x4454 JUMP JUMPDEST PUSH2 0x449D PUSH2 0x4495 DUP3 PUSH2 0x4476 JUMP JUMPDEST DUP5 DUP5 SLOAD PUSH2 0x4402 JUMP JUMPDEST DUP3 SSTORE POP POP POP POP JUMP JUMPDEST PUSH1 0x0 SWAP1 JUMP JUMPDEST PUSH2 0x44B2 PUSH2 0x44A5 JUMP JUMPDEST PUSH2 0x44BD DUP2 DUP5 DUP5 PUSH2 0x4480 JUMP JUMPDEST POP POP POP JUMP JUMPDEST JUMPDEST DUP2 DUP2 LT ISZERO PUSH2 0x44E1 JUMPI PUSH2 0x44D6 PUSH1 0x0 DUP3 PUSH2 0x44AA JUMP JUMPDEST PUSH1 0x1 DUP2 ADD SWAP1 POP PUSH2 0x44C3 JUMP JUMPDEST POP POP JUMP JUMPDEST PUSH1 0x1F DUP3 GT ISZERO PUSH2 0x4526 JUMPI PUSH2 0x44F7 DUP2 PUSH2 0x43D0 JUMP JUMPDEST PUSH2 0x4500 DUP5 PUSH2 0x43E5 JUMP JUMPDEST DUP2 ADD PUSH1 0x20 DUP6 LT ISZERO PUSH2 0x450F JUMPI DUP2 SWAP1 POP JUMPDEST PUSH2 0x4523 PUSH2 0x451B DUP6 PUSH2 0x43E5 JUMP JUMPDEST DUP4 ADD DUP3 PUSH2 0x44C2 JUMP JUMPDEST POP POP JUMPDEST POP POP POP JUMP JUMPDEST PUSH1 0x0 DUP3 DUP3 SHR SWAP1 POP SWAP3 SWAP2 POP POP JUMP JUMPDEST PUSH1 0x0 PUSH2 0x4549 PUSH1 0x0 NOT DUP5 PUSH1 0x8 MUL PUSH2 0x452B JUMP JUMPDEST NOT DUP1 DUP4 AND SWAP2 POP POP SWAP3 SWAP2 POP POP JUMP JUMPDEST PUSH1 0x0 PUSH2 0x4562 DUP4 DUP4 PUSH2 0x4538 JUMP JUMPDEST SWAP2 POP DUP3 PUSH1 0x2 MUL DUP3 OR SWAP1 POP SWAP3 SWAP2 POP POP JUMP JUMPDEST PUSH2 0x457B DUP3 PUSH2 0x35AD JUMP JUMPDEST PUSH8 0xFFFFFFFFFFFFFFFF DUP2 GT ISZERO PUSH2 0x4594 JUMPI PUSH2 0x4593 PUSH2 0x4341 JUMP JUMPDEST JUMPDEST PUSH2 0x459E DUP3 SLOAD PUSH2 0x439F JUMP JUMPDEST PUSH2 0x45A9 DUP3 DUP3 DUP6 PUSH2 0x44E5 JUMP JUMPDEST PUSH1 0x0 PUSH1 0x20 SWAP1 POP PUSH1 0x1F DUP4 GT PUSH1 0x1 DUP2 EQ PUSH2 0x45DC JUMPI PUSH1 0x0 DUP5 ISZERO PUSH2 0x45CA JUMPI DUP3 DUP8 ADD MLOAD SWAP1 POP JUMPDEST PUSH2 0x45D4 DUP6 DUP3 PUSH2 0x4556 JUMP JUMPDEST DUP7 SSTORE POP PUSH2 0x463C JUMP JUMPDEST PUSH1 0x1F NOT DUP5 AND PUSH2 0x45EA DUP7 PUSH2 0x43D0 JUMP JUMPDEST PUSH1 0x0 JUMPDEST DUP3 DUP2 LT ISZERO PUSH2 0x4612 JUMPI DUP5 DUP10 ADD MLOAD DUP3 SSTORE PUSH1 0x1 DUP3 ADD SWAP2 POP PUSH1 0x20 DUP6 ADD SWAP5 POP PUSH1 0x20 DUP2 ADD SWAP1 POP PUSH2 0x45ED JUMP JUMPDEST DUP7 DUP4 LT ISZERO PUSH2 0x462F JUMPI DUP5 DUP10 ADD MLOAD PUSH2 0x462B PUSH1 0x1F DUP10 AND DUP3 PUSH2 0x4538 JUMP JUMPDEST DUP4 SSTORE POP JUMPDEST PUSH1 0x1 PUSH1 0x2 DUP9 MUL ADD DUP9 SSTORE POP POP POP JUMPDEST POP POP POP POP POP POP JUMP JUMPDEST PUSH32 0x526F757465206973206E6F742061637469766500000000000000000000000000 PUSH1 0x0 DUP3 ADD MSTORE POP JUMP JUMPDEST PUSH1 0x0 PUSH2 0x467A PUSH1 0x13 DUP4 PUSH2 0x35B8 JUMP JUMPDEST SWAP2 POP PUSH2 0x4685 DUP3 PUSH2 0x4644 JUMP JUMPDEST PUSH1 0x20 DUP3 ADD SWAP1 POP SWAP2 SWAP1 POP JUMP JUMPDEST PUSH1 0x0 PUSH1 0x20 DUP3 ADD SWAP1 POP DUP2 DUP2 SUB PUSH1 0x0 DUP4 ADD MSTORE PUSH2 0x46A9 DUP2 PUSH2 0x466D JUMP JUMPDEST SWAP1 POP SWAP2 SWAP1 POP JUMP JUMPDEST PUSH32 0x526F7574652068617320616C7265616479207374617274656400000000000000 PUSH1 0x0 DUP3 ADD MSTORE POP JUMP JUMPDEST PUSH1 0x0 PUSH2 0x46E6 PUSH1 0x19 DUP4 PUSH2 0x35B8 JUMP JUMPDEST SWAP2 POP PUSH2 0x46F1 DUP3 PUSH2 0x46B0 JUMP JUMPDEST PUSH1 0x20 DUP3 ADD SWAP1 POP SWAP2 SWAP1 POP JUMP JUMPDEST PUSH1 0x0 PUSH1 0x20 DUP3 ADD SWAP1 POP DUP2 DUP2 SUB PUSH1 0x0 DUP4 ADD MSTORE PUSH2 0x4715 DUP2 PUSH2 0x46D9 JUMP JUMPDEST SWAP1 POP SWAP2 SWAP1 POP JUMP JUMPDEST PUSH32 0x5061636B61676520776569676874206D75737420626520677265617465722074 PUSH1 0x0 DUP3 ADD MSTORE PUSH32 0x68616E2030000000000000000000000000000000000000000000000000000000 PUSH1 0x20 DUP3 ADD MSTORE POP JUMP JUMPDEST PUSH1 0x0 PUSH2 0x4778 PUSH1 0x25 DUP4 PUSH2 0x35B8 JUMP JUMPDEST SWAP2 POP PUSH2 0x4783 DUP3 PUSH2 0x471C JUMP JUMPDEST PUSH1 0x40 DUP3 ADD SWAP1 POP SWAP2 SWAP1 POP JUMP JUMPDEST PUSH1 0x0 PUSH1 0x20 DUP3 ADD SWAP1 POP DUP2 DUP2 SUB PUSH1 0x0 DUP4 ADD MSTORE PUSH2 0x47A7 DUP2 PUSH2 0x476B JUMP JUMPDEST SWAP1 POP SWAP2 SWAP1 POP JUMP JUMPDEST PUSH32 0x4E6F7420656E6F75676820737061636520617661696C61626C65000000000000 PUSH1 0x0 DUP3 ADD MSTORE POP JUMP JUMPDEST PUSH1 0x0 PUSH2 0x47E4 PUSH1 0x1A DUP4 PUSH2 0x35B8 JUMP JUMPDEST SWAP2 POP PUSH2 0x47EF DUP3 PUSH2 0x47AE JUMP JUMPDEST PUSH1 0x20 DUP3 ADD SWAP1 POP SWAP2 SWAP1 POP JUMP JUMPDEST PUSH1 0x0 PUSH1 0x20 DUP3 ADD SWAP1 POP DUP2 DUP2 SUB PUSH1 0x0 DUP4 ADD MSTORE PUSH2 0x4813 DUP2 PUSH2 0x47D7 JUMP JUMPDEST SWAP1 POP SWAP2 SWAP1 POP JUMP JUMPDEST PUSH1 0x0 PUSH2 0x4825 DUP3 PUSH2 0x329A JUMP JUMPDEST SWAP2 POP PUSH2 0x4830 DUP4 PUSH2 0x329A JUMP JUMPDEST SWAP3 POP DUP3 DUP3 ADD SWAP1 POP DUP1 DUP3 GT ISZERO PUSH2 0x4848 JUMPI PUSH2 0x4847 PUSH2 0x3E93 JUMP JUMPDEST JUMPDEST SWAP3 SWAP2 POP POP JUMP JUMPDEST PUSH32 0x46656520746F6F20686967680000000000000000000000000000000000000000 PUSH1 0x0 DUP3 ADD MSTORE POP JUMP JUMPDEST PUSH1 0x0 PUSH2 0x4884 PUSH1 0xC DUP4 PUSH2 0x35B8 JUMP JUMPDEST SWAP2 POP PUSH2 0x488F DUP3 PUSH2 0x484E JUMP JUMPDEST PUSH1 0x20 DUP3 ADD SWAP1 POP SWAP2 SWAP1 POP JUMP JUMPDEST PUSH1 0x0 PUSH1 0x20 DUP3 ADD SWAP1 POP DUP2 DUP2 SUB PUSH1 0x0 DUP4 ADD MSTORE PUSH2 0x48B3 DUP2 PUSH2 0x4877 JUMP JUMPDEST SWAP1 POP SWAP2 SWAP1 POP JUMP JUMPDEST PUSH32 0x4E6F7420696E766F6C76656420696E2064656C69766572790000000000000000 PUSH1 0x0 DUP3 ADD MSTORE POP JUMP JUMPDEST PUSH1 0x0 PUSH2 0x48F0 PUSH1 0x18 DUP4 PUSH2 0x35B8 JUMP JUMPDEST SWAP2 POP PUSH2 0x48FB DUP3 PUSH2 0x48BA JUMP JUMPDEST PUSH1 0x20 DUP3 ADD SWAP1 POP SWAP2 SWAP1 POP JUMP JUMPDEST PUSH1 0x0 PUSH1 0x20 DUP3 ADD SWAP1 POP DUP2 DUP2 SUB PUSH1 0x0 DUP4 ADD MSTORE PUSH2 0x491F DUP2 PUSH2 0x48E3 JUMP JUMPDEST SWAP1 POP SWAP2 SWAP1 POP JUMP JUMPDEST PUSH32 0x43616E6E6F74206469737075746520696E2063757272656E7420737461747573 PUSH1 0x0 DUP3 ADD MSTORE POP JUMP JUMPDEST PUSH1 0x0 PUSH2 0x495C PUSH1 0x20 DUP4 PUSH2 0x35B8 JUMP JUMPDEST SWAP2 POP PUSH2 0x4967 DUP3 PUSH2 0x4926 JUMP JUMPDEST PUSH1 0x20 DUP3 ADD SWAP1 POP SWAP2 SWAP1 POP JUMP JUMPDEST PUSH1 0x0 PUSH1 0x20 DUP3 ADD SWAP1 POP DUP2 DUP2 SUB PUSH1 0x0 DUP4 ADD MSTORE PUSH2 0x498B DUP2 PUSH2 0x494F JUMP JUMPDEST SWAP1 POP SWAP2 SWAP1 POP JUMP JUMPDEST PUSH32 0x416C726561647920646973707574656400000000000000000000000000000000 PUSH1 0x0 DUP3 ADD MSTORE POP JUMP JUMPDEST PUSH1 0x0 PUSH2 0x49C8 PUSH1 0x10 DUP4 PUSH2 0x35B8 JUMP JUMPDEST SWAP2 POP PUSH2 0x49D3 DUP3 PUSH2 0x4992 JUMP JUMPDEST PUSH1 0x20 DUP3 ADD SWAP1 POP SWAP2 SWAP1 POP JUMP JUMPDEST PUSH1 0x0 PUSH1 0x20 DUP3 ADD SWAP1 POP DUP2 DUP2 SUB PUSH1 0x0 DUP4 ADD MSTORE PUSH2 0x49F7 DUP2 PUSH2 0x49BB JUMP JUMPDEST SWAP1 POP SWAP2 SWAP1 POP JUMP JUMPDEST PUSH1 0x0 DUP3 SWAP1 POP SWAP3 SWAP2 POP POP JUMP JUMPDEST PUSH2 0x4A13 DUP4 DUP4 PUSH2 0x49FE JUMP JUMPDEST PUSH8 0xFFFFFFFFFFFFFFFF DUP2 GT ISZERO PUSH2 0x4A2C JUMPI PUSH2 0x4A2B PUSH2 0x4341 JUMP JUMPDEST JUMPDEST PUSH2 0x4A36 DUP3 SLOAD PUSH2 0x439F JUMP JUMPDEST PUSH2 0x4A41 DUP3 DUP3 DUP6 PUSH2 0x44E5 JUMP JUMPDEST PUSH1 0x0 PUSH1 0x1F DUP4 GT PUSH1 0x1 DUP2 EQ PUSH2 0x4A70 JUMPI PUSH1 0x0 DUP5 ISZERO PUSH2 0x4A5E JUMPI DUP3 DUP8 ADD CALLDATALOAD SWAP1 POP JUMPDEST PUSH2 0x4A68 DUP6 DUP3 PUSH2 0x4556 JUMP JUMPDEST DUP7 SSTORE POP PUSH2 0x4AD0 JUMP JUMPDEST PUSH1 0x1F NOT DUP5 AND PUSH2 0x4A7E DUP7 PUSH2 0x43D0 JUMP JUMPDEST PUSH1 0x0 JUMPDEST DUP3 DUP2 LT ISZERO PUSH2 0x4AA6 JUMPI DUP5 DUP10 ADD CALLDATALOAD DUP3 SSTORE PUSH1 0x1 DUP3 ADD SWAP2 POP PUSH1 0x20 DUP6 ADD SWAP5 POP PUSH1 0x20 DUP2 ADD SWAP1 POP PUSH2 0x4A81 JUMP JUMPDEST DUP7 DUP4 LT ISZERO PUSH2 0x4AC3 JUMPI DUP5 DUP10 ADD CALLDATALOAD PUSH2 0x4ABF PUSH1 0x1F DUP10 AND DUP3 PUSH2 0x4538 JUMP JUMPDEST DUP4 SSTORE POP JUMPDEST PUSH1 0x1 PUSH1 0x2 DUP9 MUL ADD DUP9 SSTORE POP POP POP JUMPDEST POP POP POP POP POP POP POP JUMP JUMPDEST PUSH32 0x4F776E61626C653A206E6577206F776E657220697320746865207A65726F2061 PUSH1 0x0 DUP3 ADD MSTORE PUSH32 0x6464726573730000000000000000000000000000000000000000000000000000 PUSH1 0x20 DUP3 ADD MSTORE POP JUMP JUMPDEST PUSH1 0x0 PUSH2 0x4B35 PUSH1 0x26 DUP4 PUSH2 0x35B8 JUMP JUMPDEST SWAP2 POP PUSH2 0x4B40 DUP3 PUSH2 0x4AD9 JUMP JUMPDEST PUSH1 0x40 DUP3 ADD SWAP1 POP SWAP2 SWAP1 POP JUMP JUMPDEST PUSH1 0x0 PUSH1 0x20 DUP3 ADD SWAP1 POP DUP2 DUP2 SUB PUSH1 0x0 DUP4 ADD MSTORE PUSH2 0x4B64 DUP2 PUSH2 0x4B28 JUMP JUMPDEST SWAP1 POP SWAP2 SWAP1 POP JUMP JUMPDEST PUSH32 0x496E76616C696420616464726573730000000000000000000000000000000000 PUSH1 0x0 DUP3 ADD MSTORE POP JUMP JUMPDEST PUSH1 0x0 PUSH2 0x4BA1 PUSH1 0xF DUP4 PUSH2 0x35B8 JUMP JUMPDEST SWAP2 POP PUSH2 0x4BAC DUP3 PUSH2 0x4B6B JUMP JUMPDEST PUSH1 0x20 DUP3 ADD SWAP1 POP SWAP2 SWAP1 POP JUMP JUMPDEST PUSH1 0x0 PUSH1 0x20 DUP3 ADD SWAP1 POP DUP2 DUP2 SUB PUSH1 0x0 DUP4 ADD MSTORE PUSH2 0x4BD0 DUP2 PUSH2 0x4B94 JUMP JUMPDEST SWAP1 POP SWAP2 SWAP1 POP JUMP JUMPDEST PUSH32 0x4E6F742074686520736869707065720000000000000000000000000000000000 PUSH1 0x0 DUP3 ADD MSTORE POP JUMP JUMPDEST PUSH1 0x0 PUSH2 0x4C0D PUSH1 0xF DUP4 PUSH2 0x35B8 JUMP JUMPDEST SWAP2 POP PUSH2 0x4C18 DUP3 PUSH2 0x4BD7 JUMP JUMPDEST PUSH1 0x20 DUP3 ADD SWAP1 POP SWAP2 SWAP1 POP JUMP JUMPDEST PUSH1 0x0 PUSH1 0x20 DUP3 ADD SWAP1 POP DUP2 DUP2 SUB PUSH1 0x0 DUP4 ADD MSTORE PUSH2 0x4C3C DUP2 PUSH2 0x4C00 JUMP JUMPDEST SWAP1 POP SWAP2 SWAP1 POP JUMP JUMPDEST PUSH32 0x4F776E61626C653A2063616C6C6572206973206E6F7420746865206F776E6572 PUSH1 0x0 DUP3 ADD MSTORE POP JUMP JUMPDEST PUSH1 0x0 PUSH2 0x4C79 PUSH1 0x20 DUP4 PUSH2 0x35B8 JUMP JUMPDEST SWAP2 POP PUSH2 0x4C84 DUP3 PUSH2 0x4C43 JUMP JUMPDEST PUSH1 0x20 DUP3 ADD SWAP1 POP SWAP2 SWAP1 POP JUMP JUMPDEST PUSH1 0x0 PUSH1 0x20 DUP3 ADD SWAP1 POP DUP2 DUP2 SUB PUSH1 0x0 DUP4 ADD MSTORE PUSH2 0x4CA8 DUP2 PUSH2 0x4C6C JUMP JUMPDEST SWAP1 POP SWAP2 SWAP1 POP JUMP JUMPDEST PUSH32 0x5265656E7472616E637947756172643A207265656E7472616E742063616C6C00 PUSH1 0x0 DUP3 ADD MSTORE POP JUMP JUMPDEST PUSH1 0x0 PUSH2 0x4CE5 PUSH1 0x1F DUP4 PUSH2 0x35B8 JUMP JUMPDEST SWAP2 POP PUSH2 0x4CF0 DUP3 PUSH2 0x4CAF JUMP JUMPDEST PUSH1 0x20 DUP3 ADD SWAP1 POP SWAP2 SWAP1 POP JUMP JUMPDEST PUSH1 0x0 PUSH1 0x20 DUP3 ADD SWAP1 POP DUP2 DUP2 SUB PUSH1 0x0 DUP4 ADD MSTORE PUSH2 0x4D14 DUP2 PUSH2 0x4CD8 JUMP JUMPDEST SWAP1 POP SWAP2 SWAP1 POP JUMP JUMPDEST PUSH1 0x0 PUSH1 0x40 DUP3 ADD SWAP1 POP PUSH2 0x4D30 PUSH1 0x0 DUP4 ADD DUP6 PUSH2 0x359E JUMP JUMPDEST PUSH2 0x4D3D PUSH1 0x20 DUP4 ADD DUP5 PUSH2 0x3400 JUMP JUMPDEST SWAP4 SWAP3 POP POP POP JUMP JUMPDEST PUSH1 0x0 PUSH1 0x60 DUP3 ADD SWAP1 POP PUSH2 0x4D59 PUSH1 0x0 DUP4 ADD DUP7 PUSH2 0x359E JUMP JUMPDEST PUSH2 0x4D66 PUSH1 0x20 DUP4 ADD DUP6 PUSH2 0x359E JUMP JUMPDEST PUSH2 0x4D73 PUSH1 0x40 DUP4 ADD DUP5 PUSH2 0x3400 JUMP JUMPDEST SWAP5 SWAP4 POP POP POP POP JUMP JUMPDEST PUSH1 0x0 DUP2 MLOAD SWAP1 POP PUSH2 0x4D8A DUP2 PUSH2 0x3309 JUMP JUMPDEST SWAP3 SWAP2 POP POP JUMP JUMPDEST PUSH1 0x0 PUSH1 0x20 DUP3 DUP5 SUB SLT ISZERO PUSH2 0x4DA6 JUMPI PUSH2 0x4DA5 PUSH2 0x3290 JUMP JUMPDEST JUMPDEST PUSH1 0x0 PUSH2 0x4DB4 DUP5 DUP3 DUP6 ADD PUSH2 0x4D7B JUMP JUMPDEST SWAP2 POP POP SWAP3 SWAP2 POP POP JUMP JUMPDEST PUSH32 0x5361666545524332303A204552433230206F7065726174696F6E20646964206E PUSH1 0x0 DUP3 ADD MSTORE PUSH32 0x6F74207375636365656400000000000000000000000000000000000000000000 PUSH1 0x20 DUP3 ADD MSTORE POP JUMP JUMPDEST PUSH1 0x0 PUSH2 0x4E19 PUSH1 0x2A DUP4 PUSH2 0x35B8 JUMP JUMPDEST SWAP2 POP PUSH2 0x4E24 DUP3 PUSH2 0x4DBD JUMP JUMPDEST PUSH1 0x40 DUP3 ADD SWAP1 POP SWAP2 SWAP1 POP JUMP JUMPDEST PUSH1 0x0 PUSH1 0x20 DUP3 ADD SWAP1 POP DUP2 DUP2 SUB PUSH1 0x0 DUP4 ADD MSTORE PUSH2 0x4E48 DUP2 PUSH2 0x4E0C JUMP JUMPDEST SWAP1 POP SWAP2 SWAP1 POP JUMP JUMPDEST PUSH32 0x416464726573733A20696E73756666696369656E742062616C616E636520666F PUSH1 0x0 DUP3 ADD MSTORE PUSH32 0x722063616C6C0000000000000000000000000000000000000000000000000000 PUSH1 0x20 DUP3 ADD MSTORE POP JUMP JUMPDEST PUSH1 0x0 PUSH2 0x4EAB PUSH1 0x26 DUP4 PUSH2 0x35B8 JUMP JUMPDEST SWAP2 POP PUSH2 0x4EB6 DUP3 PUSH2 0x4E4F JUMP JUMPDEST PUSH1 0x40 DUP3 ADD SWAP1 POP SWAP2 SWAP1 POP JUMP JUMPDEST PUSH1 0x0 PUSH1 0x20 DUP3 ADD SWAP1 POP DUP2 DUP2 SUB PUSH1 0x0 DUP4 ADD MSTORE PUSH2 0x4EDA DUP2 PUSH2 0x4E9E JUMP JUMPDEST SWAP1 POP SWAP2 SWAP1 POP JUMP JUMPDEST PUSH1 0x0 DUP2 MLOAD SWAP1 POP SWAP2 SWAP1 POP JUMP JUMPDEST PUSH1 0x0 DUP2 SWAP1 POP SWAP3 SWAP2 POP POP JUMP JUMPDEST PUSH1 0x0 PUSH2 0x4F02 DUP3 PUSH2 0x4EE1 JUMP JUMPDEST PUSH2 0x4F0C DUP2 DUP6 PUSH2 0x4EEC JUMP JUMPDEST SWAP4 POP PUSH2 0x4F1C DUP2 DUP6 PUSH1 0x20 DUP7 ADD PUSH2 0x35C9 JUMP JUMPDEST DUP1 DUP5 ADD SWAP2 POP POP SWAP3 SWAP2 POP POP JUMP JUMPDEST PUSH1 0x0 PUSH2 0x4F34 DUP3 DUP5 PUSH2 0x4EF7 JUMP JUMPDEST SWAP2 POP DUP2 SWAP1 POP SWAP3 SWAP2 POP POP JUMP JUMPDEST PUSH32 0x416464726573733A2063616C6C20746F206E6F6E2D636F6E7472616374000000 PUSH1 0x0 DUP3 ADD MSTORE POP JUMP JUMPDEST PUSH1 0x0 PUSH2 0x4F75 PUSH1 0x1D DUP4 PUSH2 0x35B8 JUMP JUMPDEST SWAP2 POP PUSH2 0x4F80 DUP3 PUSH2 0x4F3F JUMP JUMPDEST PUSH1 0x20 DUP3 ADD SWAP1 POP SWAP2 SWAP1 POP JUMP JUMPDEST PUSH1 0x0 PUSH1 0x20 DUP3 ADD SWAP1 POP DUP2 DUP2 SUB PUSH1 0x0 DUP4 ADD MSTORE PUSH2 0x4FA4 DUP2 PUSH2 0x4F68 JUMP JUMPDEST SWAP1 POP SWAP2 SWAP1 POP JUMP JUMPDEST PUSH1 0x0 PUSH1 0x20 DUP3 ADD SWAP1 POP DUP2 DUP2 SUB PUSH1 0x0 DUP4 ADD MSTORE PUSH2 0x4FC5 DUP2 DUP5 PUSH2 0x3604 JUMP JUMPDEST SWAP1 POP SWAP3 SWAP2 POP POP JUMP INVALID LOG2 PUSH5 0x6970667358 0x22 SLT KECCAK256 0xD0 SLOAD 0xB2 0xBA PUSH29 0xEB5D62B7268DBE263EB8857BFCF858FC1DB9F2EB9E817790CF9F9A6473 PUSH16 0x6C634300081400330000000000000000 "},"methodIdentifiers":{"acceptDelivery(uint256)":"7b422c4c","confirmDelivery(uint256)":"fd84cb97","createDelivery(uint256,string,uint256)":"897cf905","createRoute(string,string,uint256,uint256,uint256,uint256)":"516ac520","deactivateRoute(uint256)":"279b6d31","deliveries(uint256)":"a9e4a324","deliveryCount()":"5b77b6a6","disputeDelivery(uint256)":"adcb9f04","getDelivery(uint256)":"de8211a9","getReputationScore(address)":"75a67d5c","getRoute(uint256)":"fa66358a","markAsDelivered(uint256)":"968ee6ed","markAsPickedUp(uint256)":"21e9c317","owner()":"8da5cb5b","platformFeePercent()":"8c639a85","positiveReviews(address)":"488c76b9","renounceOwnership()":"715018a6","resolveDispute(uint256,bool)":"34b25ee2","routeCount()":"bf539cb4","routes(uint256)":"726f16d8","stablecoin()":"e9cbd822","submitReview(address,bool)":"4ddd05c8","totalReviews(address)":"d8f097ab","transferOwnership(address)":"f2fde38b","updatePlatformFee(uint256)":"aa0b5988","updateRoute(uint256,string,string,uint256,uint256,uint256,uint256)":"ebc4010a","updateStablecoin(address)":"fc8f20fa"}}}}}