{
  "_format": "hh-sol-artifact-1",
  "contractName": "DeliveryVerification",
  "sourceName": "contracts/DeliveryVerification.sol",
  "abi": [
    {
      "inputs": [
        {
          "internalType": "address",
          "name": "_marketplaceContract",
          "type": "address"
        }
      ],
      "stateMutability": "nonpayable",
      "type": "constructor"
    },
    {
      "anonymous": false,
      "inputs": [
        {
          "indexed": true,
          "internalType": "uint256",
          "name": "deliveryId",
          "type": "uint256"
        },
        {
          "indexed": false,
          "internalType": "string",
          "name": "proofCID",
          "type": "string"
        }
      ],
      "name": "DeliveryVerified",
      "type": "event"
    },
    {
      "anonymous": false,
      "inputs": [
        {
          "indexed": true,
          "internalType": "address",
          "name": "newMarketplace",
          "type": "address"
        }
      ],
      "name": "MarketplaceUpdated",
      "type": "event"
    },
    {
      "anonymous": false,
      "inputs": [
        {
          "indexed": true,
          "internalType": "address",
          "name": "previousOwner",
          "type": "address"
        },
        {
          "indexed": true,
          "internalType": "address",
          "name": "newOwner",
          "type": "address"
        }
      ],
      "name": "OwnershipTransferred",
      "type": "event"
    },
    {
      "anonymous": false,
      "inputs": [
        {
          "indexed": true,
          "internalType": "uint256",
          "name": "deliveryId",
          "type": "uint256"
        },
        {
          "indexed": false,
          "internalType": "string",
          "name": "proofCID",
          "type": "string"
        }
      ],
      "name": "PickupVerified",
      "type": "event"
    },
    {
      "anonymous": false,
      "inputs": [
        {
          "indexed": true,
          "internalType": "uint256",
          "name": "deliveryId",
          "type": "uint256"
        }
      ],
      "name": "VerificationCompleted",
      "type": "event"
    },
    {
      "inputs": [
        {
          "internalType": "uint256",
          "name": "deliveryId",
          "type": "uint256"
        }
      ],
      "name": "getVerification",
      "outputs": [
        {
          "components": [
            {
              "internalType": "uint256",
              "name": "deliveryId",
              "type": "uint256"
            },
            {
              "internalType": "string",
              "name": "pickupProofCID",
              "type": "string"
            },
            {
              "internalType": "uint256",
              "name": "pickupTimestamp",
              "type": "uint256"
            },
            {
              "internalType": "string",
              "name": "deliveryProofCID",
              "type": "string"
            },
            {
              "internalType": "uint256",
              "name": "deliveryTimestamp",
              "type": "uint256"
            },
            {
              "internalType": "bool",
              "name": "isVerified",
              "type": "bool"
            }
          ],
          "internalType": "struct DeliveryVerification.Verification",
          "name": "",
          "type": "tuple"
        }
      ],
      "stateMutability": "view",
      "type": "function"
    },
    {
      "inputs": [
        {
          "internalType": "uint256",
          "name": "deliveryId",
          "type": "uint256"
        }
      ],
      "name": "isDeliveryVerified",
      "outputs": [
        {
          "internalType": "bool",
          "name": "",
          "type": "bool"
        }
      ],
      "stateMutability": "view",
      "type": "function"
    },
    {
      "inputs": [],
      "name": "marketplaceContract",
      "outputs": [
        {
          "internalType": "address",
          "name": "",
          "type": "address"
        }
      ],
      "stateMutability": "view",
      "type": "function"
    },
    {
      "inputs": [],
      "name": "owner",
      "outputs": [
        {
          "internalType": "address",
          "name": "",
          "type": "address"
        }
      ],
      "stateMutability": "view",
      "type": "function"
    },
    {
      "inputs": [
        {
          "internalType": "uint256",
          "name": "deliveryId",
          "type": "uint256"
        },
        {
          "internalType": "string",
          "name": "proofCID",
          "type": "string"
        }
      ],
      "name": "recordDelivery",
      "outputs": [],
      "stateMutability": "nonpayable",
      "type": "function"
    },
    {
      "inputs": [
        {
          "internalType": "uint256",
          "name": "deliveryId",
          "type": "uint256"
        },
        {
          "internalType": "string",
          "name": "proofCID",
          "type": "string"
        }
      ],
      "name": "recordPickup",
      "outputs": [],
      "stateMutability": "nonpayable",
      "type": "function"
    },
    {
      "inputs": [],
      "name": "renounceOwnership",
      "outputs": [],
      "stateMutability": "nonpayable",
      "type": "function"
    },
    {
      "inputs": [
        {
          "internalType": "address",
          "name": "newOwner",
          "type": "address"
        }
      ],
      "name": "transferOwnership",
      "outputs": [],
      "stateMutability": "nonpayable",
      "type": "function"
    },
    {
      "inputs": [
        {
          "internalType": "address",
          "name": "_marketplaceContract",
          "type": "address"
        }
      ],
      "name": "updateMarketplaceContract",
      "outputs": [],
      "stateMutability": "nonpayable",
      "type": "function"
    },
    {
      "inputs": [
        {
          "internalType": "uint256",
          "name": "",
          "type": "uint256"
        }
      ],
      "name": "verifications",
      "outputs": [
        {
          "internalType": "uint256",
          "name": "deliveryId",
          "type": "uint256"
        },
        {
          "internalType": "string",
          "name": "pickupProofCID",
          "type": "string"
        },
        {
          "internalType": "uint256",
          "name": "pickupTimestamp",
          "type": "uint256"
        },
        {
          "internalType": "string",
          "name": "deliveryProofCID",
          "type": "string"
        },
        {
          "internalType": "uint256",
          "name": "deliveryTimestamp",
          "type": "uint256"
        },
        {
          "internalType": "bool",
          "name": "isVerified",
          "type": "bool"
        }
      ],
      "stateMutability": "view",
      "type": "function"
    }
  ],
  "bytecode": "0x60806040523480156200001157600080fd5b50604051620016af380380620016af8339818101604052810190620000379190620001d5565b620000576200004b6200009f60201b60201c565b620000a760201b60201c565b80600160006101000a81548173ffffffffffffffffffffffffffffffffffffffff021916908373ffffffffffffffffffffffffffffffffffffffff1602179055505062000207565b600033905090565b60008060009054906101000a900473ffffffffffffffffffffffffffffffffffffffff169050816000806101000a81548173ffffffffffffffffffffffffffffffffffffffff021916908373ffffffffffffffffffffffffffffffffffffffff1602179055508173ffffffffffffffffffffffffffffffffffffffff168173ffffffffffffffffffffffffffffffffffffffff167f8be0079c531659141344cd1fd0a4f28419497f9722a3daafe3b4186f6b6457e060405160405180910390a35050565b600080fd5b600073ffffffffffffffffffffffffffffffffffffffff82169050919050565b60006200019d8262000170565b9050919050565b620001af8162000190565b8114620001bb57600080fd5b50565b600081519050620001cf81620001a4565b92915050565b600060208284031215620001ee57620001ed6200016b565b5b6000620001fe84828501620001be565b91505092915050565b61149880620002176000396000f3fe608060405234801561001057600080fd5b506004361061009e5760003560e01c8063b90b0a1011610066578063b90b0a1014610133578063d1bb5cf114610168578063d7e9dd7c14610186578063f2fde38b146101b6578063f49a52aa146101d25761009e565b806323223deb146100a357806358937cc8146100bf578063715018a6146100ef5780638da5cb5b146100f9578063a5e26e4214610117575b600080fd5b6100bd60048036038101906100b89190610b76565b6101ee565b005b6100d960048036038101906100d49190610bd6565b6102c7565b6040516100e69190610d4d565b60405180910390f35b6100f7610451565b005b610101610465565b60405161010e9190610db0565b60405180910390f35b610131600480360381019061012c9190610b76565b61048e565b005b61014d60048036038101906101489190610bd6565b610567565b60405161015f96959493929190610e33565b60405180910390f35b6101706106c0565b60405161017d9190610db0565b60405180910390f35b6101a0600480360381019061019b9190610bd6565b6106e6565b6040516101ad9190610ea2565b60405180910390f35b6101d060048036038101906101cb9190610ee9565b610713565b005b6101ec60048036038101906101e79190610ee9565b610796565b005b60008282905011610234576040517f08c379a000000000000000000000000000000000000000000000000000000000815260040161022b90610f62565b60405180910390fd5b60006002600085815260200190815260200160002090506000816000015403610261578381600001819055505b82828260010191826102749291906111c8565b50428160020181905550837f7658816ebc569737b93de22a250b04d3be0159ac1e29af91d5f96f6de2ea5d4684846040516102b09291906112d4565b60405180910390a26102c184610894565b50505050565b6102cf610a99565b600260008381526020019081526020016000206040518060c00160405290816000820154815260200160018201805461030790610feb565b80601f016020809104026020016040519081016040528092919081815260200182805461033390610feb565b80156103805780601f1061035557610100808354040283529160200191610380565b820191906000526020600020905b81548152906001019060200180831161036357829003601f168201915b50505050508152602001600282015481526020016003820180546103a390610feb565b80601f01602080910402602001604051908101604052809291908181526020018280546103cf90610feb565b801561041c5780601f106103f15761010080835404028352916020019161041c565b820191906000526020600020905b8154815290600101906020018083116103ff57829003601f168201915b50505050508152602001600482015481526020016005820160009054906101000a900460ff1615151515815250509050919050565b61045961094f565b61046360006109cd565b565b60008060009054906101000a900473ffffffffffffffffffffffffffffffffffffffff16905090565b600082829050116104d4576040517f08c379a00000000000000000000000000000000000000000000000000000000081526004016104cb90610f62565b60405180910390fd5b60006002600085815260200190815260200160002090506000816000015403610501578381600001819055505b82828260030191826105149291906111c8565b50428160040181905550837fb0d16d4c26a6b3c883ee9701c49054fee2f5fc3ffe3c48ffcce22c401b70a5dd84846040516105509291906112d4565b60405180910390a261056184610894565b50505050565b600260205280600052604060002060009150905080600001549080600101805461059090610feb565b80601f01602080910402602001604051908101604052809291908181526020018280546105bc90610feb565b80156106095780601f106105de57610100808354040283529160200191610609565b820191906000526020600020905b8154815290600101906020018083116105ec57829003601f168201915b50505050509080600201549080600301805461062490610feb565b80601f016020809104026020016040519081016040528092919081815260200182805461065090610feb565b801561069d5780601f106106725761010080835404028352916020019161069d565b820191906000526020600020905b81548152906001019060200180831161068057829003601f168201915b5050505050908060040154908060050160009054906101000a900460ff16905086565b600160009054906101000a900473ffffffffffffffffffffffffffffffffffffffff1681565b60006002600083815260200190815260200160002060050160009054906101000a900460ff169050919050565b61071b61094f565b600073ffffffffffffffffffffffffffffffffffffffff168173ffffffffffffffffffffffffffffffffffffffff160361078a576040517f08c379a00000000000000000000000000000000000000000000000000000000081526004016107819061136a565b60405180910390fd5b610793816109cd565b50565b61079e61094f565b600073ffffffffffffffffffffffffffffffffffffffff168173ffffffffffffffffffffffffffffffffffffffff160361080d576040517f08c379a0000000000000000000000000000000000000000000000000000000008152600401610804906113d6565b60405180910390fd5b80600160006101000a81548173ffffffffffffffffffffffffffffffffffffffff021916908373ffffffffffffffffffffffffffffffffffffffff1602179055508073ffffffffffffffffffffffffffffffffffffffff167f210690abd7fd6cdbb8f2beb202b2a253d58d7a0813b2175c4172c14c0c1af6dc60405160405180910390a250565b600060026000838152602001908152602001600020905060008160010180546108bc90610feb565b90501180156108cf575060008160020154115b80156108eb575060008160030180546108e790610feb565b9050115b80156108fb575060008160040154115b1561094b5760018160050160006101000a81548160ff021916908315150217905550817ffa6bf29b85b9c9182f47a518815d1f34b61668f7c550a18bb5c0617689f24ae560405160405180910390a25b5050565b610957610a91565b73ffffffffffffffffffffffffffffffffffffffff16610975610465565b73ffffffffffffffffffffffffffffffffffffffff16146109cb576040517f08c379a00000000000000000000000000000000000000000000000000000000081526004016109c290611442565b60405180910390fd5b565b60008060009054906101000a900473ffffffffffffffffffffffffffffffffffffffff169050816000806101000a81548173ffffffffffffffffffffffffffffffffffffffff021916908373ffffffffffffffffffffffffffffffffffffffff1602179055508173ffffffffffffffffffffffffffffffffffffffff168173ffffffffffffffffffffffffffffffffffffffff167f8be0079c531659141344cd1fd0a4f28419497f9722a3daafe3b4186f6b6457e060405160405180910390a35050565b600033905090565b6040518060c0016040528060008152602001606081526020016000815260200160608152602001600081526020016000151581525090565b600080fd5b600080fd5b6000819050919050565b610aee81610adb565b8114610af957600080fd5b50565b600081359050610b0b81610ae5565b92915050565b600080fd5b600080fd5b600080fd5b60008083601f840112610b3657610b35610b11565b5b8235905067ffffffffffffffff811115610b5357610b52610b16565b5b602083019150836001820283011115610b6f57610b6e610b1b565b5b9250929050565b600080600060408486031215610b8f57610b8e610ad1565b5b6000610b9d86828701610afc565b935050602084013567ffffffffffffffff811115610bbe57610bbd610ad6565b5b610bca86828701610b20565b92509250509250925092565b600060208284031215610bec57610beb610ad1565b5b6000610bfa84828501610afc565b91505092915050565b610c0c81610adb565b82525050565b600081519050919050565b600082825260208201905092915050565b60005b83811015610c4c578082015181840152602081019050610c31565b60008484015250505050565b6000601f19601f8301169050919050565b6000610c7482610c12565b610c7e8185610c1d565b9350610c8e818560208601610c2e565b610c9781610c58565b840191505092915050565b60008115159050919050565b610cb781610ca2565b82525050565b600060c083016000830151610cd56000860182610c03565b5060208301518482036020860152610ced8282610c69565b9150506040830151610d026040860182610c03565b5060608301518482036060860152610d1a8282610c69565b9150506080830151610d2f6080860182610c03565b5060a0830151610d4260a0860182610cae565b508091505092915050565b60006020820190508181036000830152610d678184610cbd565b905092915050565b600073ffffffffffffffffffffffffffffffffffffffff82169050919050565b6000610d9a82610d6f565b9050919050565b610daa81610d8f565b82525050565b6000602082019050610dc56000830184610da1565b92915050565b610dd481610adb565b82525050565b600082825260208201905092915050565b6000610df682610c12565b610e008185610dda565b9350610e10818560208601610c2e565b610e1981610c58565b840191505092915050565b610e2d81610ca2565b82525050565b600060c082019050610e486000830189610dcb565b8181036020830152610e5a8188610deb565b9050610e696040830187610dcb565b8181036060830152610e7b8186610deb565b9050610e8a6080830185610dcb565b610e9760a0830184610e24565b979650505050505050565b6000602082019050610eb76000830184610e24565b92915050565b610ec681610d8f565b8114610ed157600080fd5b50565b600081359050610ee381610ebd565b92915050565b600060208284031215610eff57610efe610ad1565b5b6000610f0d84828501610ed4565b91505092915050565b7f50726f6f66204349442063616e6e6f7420626520656d70747900000000000000600082015250565b6000610f4c601983610dda565b9150610f5782610f16565b602082019050919050565b60006020820190508181036000830152610f7b81610f3f565b9050919050565b600082905092915050565b7f4e487b7100000000000000000000000000000000000000000000000000000000600052604160045260246000fd5b7f4e487b7100000000000000000000000000000000000000000000000000000000600052602260045260246000fd5b6000600282049050600182168061100357607f821691505b60208210810361101657611015610fbc565b5b50919050565b60008190508160005260206000209050919050565b60006020601f8301049050919050565b600082821b905092915050565b60006008830261107e7fffffffffffffffffffffffffffffffffffffffffffffffffffffffffffffffff82611041565b6110888683611041565b95508019841693508086168417925050509392505050565b6000819050919050565b60006110c56110c06110bb84610adb565b6110a0565b610adb565b9050919050565b6000819050919050565b6110df836110aa565b6110f36110eb826110cc565b84845461104e565b825550505050565b600090565b6111086110fb565b6111138184846110d6565b505050565b5b818110156111375761112c600082611100565b600181019050611119565b5050565b601f82111561117c5761114d8161101c565b61115684611031565b81016020851015611165578190505b61117961117185611031565b830182611118565b50505b505050565b600082821c905092915050565b600061119f60001984600802611181565b1980831691505092915050565b60006111b8838361118e565b9150826002028217905092915050565b6111d28383610f82565b67ffffffffffffffff8111156111eb576111ea610f8d565b5b6111f58254610feb565b61120082828561113b565b6000601f83116001811461122f576000841561121d578287013590505b61122785826111ac565b86555061128f565b601f19841661123d8661101c565b60005b8281101561126557848901358255600182019150602085019450602081019050611240565b86831015611282578489013561127e601f89168261118e565b8355505b6001600288020188555050505b50505050505050565b82818337600083830152505050565b60006112b38385610dda565b93506112c0838584611298565b6112c983610c58565b840190509392505050565b600060208201905081810360008301526112ef8184866112a7565b90509392505050565b7f4f776e61626c653a206e6577206f776e657220697320746865207a65726f206160008201527f6464726573730000000000000000000000000000000000000000000000000000602082015250565b6000611354602683610dda565b915061135f826112f8565b604082019050919050565b6000602082019050818103600083015261138381611347565b9050919050565b7f496e76616c6964206d61726b6574706c61636520616464726573730000000000600082015250565b60006113c0601b83610dda565b91506113cb8261138a565b602082019050919050565b600060208201905081810360008301526113ef816113b3565b9050919050565b7f4f776e61626c653a2063616c6c6572206973206e6f7420746865206f776e6572600082015250565b600061142c602083610dda565b9150611437826113f6565b602082019050919050565b6000602082019050818103600083015261145b8161141f565b905091905056fea26469706673582212202d7fb05d815ae6e72e25280e4270c6b9359a1e6bf44a8d528825c98b581f0af864736f6c63430008140033",
  "linkReferences": {},
  "deployedLinkReferences": {}
}