{
  "_format": "hh-sol-artifact-1",
  "contractName": "StablecoinAdapter",
  "sourceName": "contracts/StablecoinAdapter.sol",
  "abi": [
    {
      "inputs": [],
      "stateMutability": "nonpayable",
      "type": "constructor"
    },
    {
      "anonymous": false,
      "inputs": [
        {
          "indexed": true,
          "internalType": "address",
          "name": "previousOwner",
          "type": "address"
        },
        {
          "indexed": true,
          "internalType": "address",
          "name": "newOwner",
          "type": "address"
        }
      ],
      "name": "OwnershipTransferred",
      "type": "event"
    },
    {
      "anonymous": false,
      "inputs": [
        {
          "indexed": true,
          "internalType": "address",
          "name": "from",
          "type": "address"
        },
        {
          "indexed": true,
          "internalType": "address",
          "name": "to",
          "type": "address"
        },
        {
          "indexed": true,
          "internalType": "address",
          "name": "token",
          "type": "address"
        },
        {
          "indexed": false,
          "internalType": "uint256",
          "name": "amount",
          "type": "uint256"
        }
      ],
      "name": "PaymentProcessed",
      "type": "event"
    },
    {
      "anonymous": false,
      "inputs": [
        {
          "indexed": true,
          "internalType": "address",
          "name": "token",
          "type": "address"
        },
        {
          "indexed": false,
          "internalType": "uint256",
          "name": "price",
          "type": "uint256"
        }
      ],
      "name": "PriceUpdated",
      "type": "event"
    },
    {
      "anonymous": false,
      "inputs": [
        {
          "indexed": true,
          "internalType": "address",
          "name": "token",
          "type": "address"
        },
        {
          "indexed": false,
          "internalType": "uint256",
          "name": "decimals",
          "type": "uint256"
        }
      ],
      "name": "TokenAdded",
      "type": "event"
    },
    {
      "anonymous": false,
      "inputs": [
        {
          "indexed": true,
          "internalType": "address",
          "name": "token",
          "type": "address"
        }
      ],
      "name": "TokenRemoved",
      "type": "event"
    },
    {
      "inputs": [
        {
          "internalType": "address",
          "name": "token",
          "type": "address"
        }
      ],
      "name": "addSupportedToken",
      "outputs": [],
      "stateMutability": "nonpayable",
      "type": "function"
    },
    {
      "inputs": [
        {
          "internalType": "address",
          "name": "fromToken",
          "type": "address"
        },
        {
          "internalType": "address",
          "name": "toToken",
          "type": "address"
        },
        {
          "internalType": "uint256",
          "name": "amount",
          "type": "uint256"
        }
      ],
      "name": "convertAmount",
      "outputs": [
        {
          "internalType": "uint256",
          "name": "",
          "type": "uint256"
        }
      ],
      "stateMutability": "view",
      "type": "function"
    },
    {
      "inputs": [
        {
          "internalType": "address",
          "name": "token",
          "type": "address"
        }
      ],
      "name": "getExchangeRate",
      "outputs": [
        {
          "internalType": "uint256",
          "name": "",
          "type": "uint256"
        }
      ],
      "stateMutability": "view",
      "type": "function"
    },
    {
      "inputs": [],
      "name": "getSupportedTokens",
      "outputs": [
        {
          "internalType": "address[]",
          "name": "",
          "type": "address[]"
        }
      ],
      "stateMutability": "view",
      "type": "function"
    },
    {
      "inputs": [
        {
          "internalType": "address",
          "name": "token",
          "type": "address"
        }
      ],
      "name": "isTokenSupported",
      "outputs": [
        {
          "internalType": "bool",
          "name": "",
          "type": "bool"
        }
      ],
      "stateMutability": "view",
      "type": "function"
    },
    {
      "inputs": [],
      "name": "owner",
      "outputs": [
        {
          "internalType": "address",
          "name": "",
          "type": "address"
        }
      ],
      "stateMutability": "view",
      "type": "function"
    },
    {
      "inputs": [
        {
          "internalType": "address",
          "name": "token",
          "type": "address"
        },
        {
          "internalType": "address",
          "name": "from",
          "type": "address"
        },
        {
          "internalType": "address",
          "name": "to",
          "type": "address"
        },
        {
          "internalType": "uint256",
          "name": "amount",
          "type": "uint256"
        }
      ],
      "name": "processPayment",
      "outputs": [],
      "stateMutability": "nonpayable",
      "type": "function"
    },
    {
      "inputs": [
        {
          "internalType": "address",
          "name": "token",
          "type": "address"
        }
      ],
      "name": "removeSupportedToken",
      "outputs": [],
      "stateMutability": "nonpayable",
      "type": "function"
    },
    {
      "inputs": [],
      "name": "renounceOwnership",
      "outputs": [],
      "stateMutability": "nonpayable",
      "type": "function"
    },
    {
      "inputs": [
        {
          "internalType": "address",
          "name": "",
          "type": "address"
        }
      ],
      "name": "supportedTokens",
      "outputs": [
        {
          "internalType": "bool",
          "name": "",
          "type": "bool"
        }
      ],
      "stateMutability": "view",
      "type": "function"
    },
    {
      "inputs": [
        {
          "internalType": "address",
          "name": "",
          "type": "address"
        }
      ],
      "name": "tokenDecimals",
      "outputs": [
        {
          "internalType": "uint256",
          "name": "",
          "type": "uint256"
        }
      ],
      "stateMutability": "view",
      "type": "function"
    },
    {
      "inputs": [
        {
          "internalType": "uint256",
          "name": "",
          "type": "uint256"
        }
      ],
      "name": "tokenList",
      "outputs": [
        {
          "internalType": "address",
          "name": "",
          "type": "address"
        }
      ],
      "stateMutability": "view",
      "type": "function"
    },
    {
      "inputs": [
        {
          "internalType": "address",
          "name": "",
          "type": "address"
        }
      ],
      "name": "tokenPrices",
      "outputs": [
        {
          "internalType": "uint256",
          "name": "",
          "type": "uint256"
        }
      ],
      "stateMutability": "view",
      "type": "function"
    },
    {
      "inputs": [
        {
          "internalType": "address",
          "name": "newOwner",
          "type": "address"
        }
      ],
      "name": "transferOwnership",
      "outputs": [],
      "stateMutability": "nonpayable",
      "type": "function"
    },
    {
      "inputs": [
        {
          "internalType": "address",
          "name": "token",
          "type": "address"
        },
        {
          "internalType": "uint256",
          "name": "price",
          "type": "uint256"
        }
      ],
      "name": "updateTokenPrice",
      "outputs": [],
      "stateMutability": "nonpayable",
      "type": "function"
    }
  ],
  "bytecode": "0x60806040523480156200001157600080fd5b5062000032620000266200003860201b60201c565b6200004060201b60201c565b62000104565b600033905090565b60008060009054906101000a900473ffffffffffffffffffffffffffffffffffffffff169050816000806101000a81548173ffffffffffffffffffffffffffffffffffffffff021916908373ffffffffffffffffffffffffffffffffffffffff1602179055508173ffffffffffffffffffffffffffffffffffffffff168173ffffffffffffffffffffffffffffffffffffffff167f8be0079c531659141344cd1fd0a4f28419497f9722a3daafe3b4186f6b6457e060405160405180910390a35050565b6125ab80620001146000396000f3fe608060405234801561001057600080fd5b50600436106100f55760003560e01c80638da5cb5b11610097578063d4ee651b11610066578063d4ee651b14610298578063e4799ddd146102b4578063efb7601d146102d0578063f2fde38b14610300576100f5565b80638da5cb5b146101fc5780638ee573ac1461021a5780639ead72221461024a578063d3c7c2c71461027a576100f5565b80636d69fcaf116100d35780636d69fcaf1461018a578063715018a6146101a657806375151b63146101b057806376319190146101e0576100f5565b8063204120bc146100fa57806368c4ac261461012a57806369e1829d1461015a575b600080fd5b610114600480360381019061010f9190611764565b61031c565b60405161012191906117aa565b60405180910390f35b610144600480360381019061013f9190611764565b610334565b60405161015191906117e0565b60405180910390f35b610174600480360381019061016f9190611827565b610354565b60405161018191906117aa565b60405180910390f35b6101a4600480360381019061019f9190611764565b610618565b005b6101ae61092a565b005b6101ca60048036038101906101c59190611764565b61093e565b6040516101d791906117e0565b60405180910390f35b6101fa60048036038101906101f59190611764565b610994565b005b610204610cd9565b6040516102119190611889565b60405180910390f35b610234600480360381019061022f9190611764565b610d02565b60405161024191906117aa565b60405180910390f35b610264600480360381019061025f91906118a4565b610d1a565b6040516102719190611889565b60405180910390f35b610282610d59565b60405161028f919061198f565b60405180910390f35b6102b260048036038101906102ad91906119b1565b610de7565b005b6102ce60048036038101906102c991906119f1565b610f54565b005b6102ea60048036038101906102e59190611764565b611141565b6040516102f791906117aa565b60405180910390f35b61031a60048036038101906103159190611764565b611216565b005b60026020528060005260406000206000915090505481565b60016020528060005260406000206000915054906101000a900460ff1681565b6000600160008573ffffffffffffffffffffffffffffffffffffffff1673ffffffffffffffffffffffffffffffffffffffff16815260200190815260200160002060009054906101000a900460ff166103e2576040517f08c379a00000000000000000000000000000000000000000000000000000000081526004016103d990611ab5565b60405180910390fd5b600160008473ffffffffffffffffffffffffffffffffffffffff1673ffffffffffffffffffffffffffffffffffffffff16815260200190815260200160002060009054906101000a900460ff1661046e576040517f08c379a000000000000000000000000000000000000000000000000000000000815260040161046590611b21565b60405180910390fd5b8273ffffffffffffffffffffffffffffffffffffffff168473ffffffffffffffffffffffffffffffffffffffff16036104a957819050610611565b6000600360008673ffffffffffffffffffffffffffffffffffffffff1673ffffffffffffffffffffffffffffffffffffffff1681526020019081526020016000205490506000600360008673ffffffffffffffffffffffffffffffffffffffff1673ffffffffffffffffffffffffffffffffffffffff1681526020019081526020016000205490506000600260008873ffffffffffffffffffffffffffffffffffffffff1673ffffffffffffffffffffffffffffffffffffffff1681526020019081526020016000205490506000600260008873ffffffffffffffffffffffffffffffffffffffff1673ffffffffffffffffffffffffffffffffffffffff168152602001908152602001600020549050600084600a6105c89190611ca3565b83886105d49190611cee565b6105de9190611d5f565b905060008285600a6105f09190611ca3565b836105fb9190611cee565b6106059190611d5f565b90508096505050505050505b9392505050565b610620611299565b600073ffffffffffffffffffffffffffffffffffffffff168173ffffffffffffffffffffffffffffffffffffffff160361068f576040517f08c379a000000000000000000000000000000000000000000000000000000000815260040161068690611ddc565b60405180910390fd5b600160008273ffffffffffffffffffffffffffffffffffffffff1673ffffffffffffffffffffffffffffffffffffffff16815260200190815260200160002060009054906101000a900460ff161561071c576040517f08c379a000000000000000000000000000000000000000000000000000000000815260040161071390611e48565b60405180910390fd5b60018060008373ffffffffffffffffffffffffffffffffffffffff1673ffffffffffffffffffffffffffffffffffffffff16815260200190815260200160002060006101000a81548160ff0219169083151502179055506004819080600181540180825580915050600190039060005260206000200160009091909190916101000a81548173ffffffffffffffffffffffffffffffffffffffff021916908373ffffffffffffffffffffffffffffffffffffffff1602179055506305f5e100600260008373ffffffffffffffffffffffffffffffffffffffff1673ffffffffffffffffffffffffffffffffffffffff1681526020019081526020016000208190555060008173ffffffffffffffffffffffffffffffffffffffff1663313ce5676040518163ffffffff1660e01b8152600401602060405180830381865afa15801561086b573d6000803e3d6000fd5b505050506040513d601f19601f8201168201806040525081019061088f9190611ea1565b60ff16905080600360008473ffffffffffffffffffffffffffffffffffffffff1673ffffffffffffffffffffffffffffffffffffffff168152602001908152602001600020819055508173ffffffffffffffffffffffffffffffffffffffff167ff4c563a3ea86ff1f4275e8c207df0375a51963f2b831b7bf4da8be938d92876c8260405161091e91906117aa565b60405180910390a25050565b610932611299565b61093c6000611317565b565b6000600160008373ffffffffffffffffffffffffffffffffffffffff1673ffffffffffffffffffffffffffffffffffffffff16815260200190815260200160002060009054906101000a900460ff169050919050565b61099c611299565b600160008273ffffffffffffffffffffffffffffffffffffffff1673ffffffffffffffffffffffffffffffffffffffff16815260200190815260200160002060009054906101000a900460ff16610a28576040517f08c379a0000000000000000000000000000000000000000000000000000000008152600401610a1f90611f1a565b60405180910390fd5b6000600160008373ffffffffffffffffffffffffffffffffffffffff1673ffffffffffffffffffffffffffffffffffffffff16815260200190815260200160002060006101000a81548160ff021916908315150217905550600260008273ffffffffffffffffffffffffffffffffffffffff1673ffffffffffffffffffffffffffffffffffffffff16815260200190815260200160002060009055600360008273ffffffffffffffffffffffffffffffffffffffff1673ffffffffffffffffffffffffffffffffffffffff1681526020019081526020016000206000905560005b600480549050811015610c92578173ffffffffffffffffffffffffffffffffffffffff1660048281548110610b4157610b40611f3a565b5b9060005260206000200160009054906101000a900473ffffffffffffffffffffffffffffffffffffffff1673ffffffffffffffffffffffffffffffffffffffff1603610c7f5760046001600480549050610b9b9190611f69565b81548110610bac57610bab611f3a565b5b9060005260206000200160009054906101000a900473ffffffffffffffffffffffffffffffffffffffff1660048281548110610beb57610bea611f3a565b5b9060005260206000200160006101000a81548173ffffffffffffffffffffffffffffffffffffffff021916908373ffffffffffffffffffffffffffffffffffffffff1602179055506004805480610c4557610c44611f9d565b5b6001900381819060005260206000200160006101000a81549073ffffffffffffffffffffffffffffffffffffffff02191690559055610c92565b8080610c8a90611fcc565b915050610b09565b508073ffffffffffffffffffffffffffffffffffffffff167f4c910b69fe65a61f7531b9c5042b2329ca7179c77290aa7e2eb3afa3c8511fd360405160405180910390a250565b60008060009054906101000a900473ffffffffffffffffffffffffffffffffffffffff16905090565b60036020528060005260406000206000915090505481565b60048181548110610d2a57600080fd5b906000526020600020016000915054906101000a900473ffffffffffffffffffffffffffffffffffffffff1681565b60606004805480602002602001604051908101604052809291908181526020018280548015610ddd57602002820191906000526020600020905b8160009054906101000a900473ffffffffffffffffffffffffffffffffffffffff1673ffffffffffffffffffffffffffffffffffffffff1681526020019060010190808311610d93575b5050505050905090565b610def611299565b600160008373ffffffffffffffffffffffffffffffffffffffff1673ffffffffffffffffffffffffffffffffffffffff16815260200190815260200160002060009054906101000a900460ff16610e7b576040517f08c379a0000000000000000000000000000000000000000000000000000000008152600401610e7290611f1a565b60405180910390fd5b60008111610ebe576040517f08c379a0000000000000000000000000000000000000000000000000000000008152600401610eb590612060565b60405180910390fd5b80600260008473ffffffffffffffffffffffffffffffffffffffff1673ffffffffffffffffffffffffffffffffffffffff168152602001908152602001600020819055508173ffffffffffffffffffffffffffffffffffffffff167f0d86730737b142fc160892fa8a0f2db687a92a0e294d1ad70624cf5acef03b8482604051610f4891906117aa565b60405180910390a25050565b600160008573ffffffffffffffffffffffffffffffffffffffff1673ffffffffffffffffffffffffffffffffffffffff16815260200190815260200160002060009054906101000a900460ff16610fe0576040517f08c379a0000000000000000000000000000000000000000000000000000000008152600401610fd790611f1a565b60405180910390fd5b60008111611023576040517f08c379a000000000000000000000000000000000000000000000000000000000815260040161101a906120cc565b60405180910390fd5b600073ffffffffffffffffffffffffffffffffffffffff168273ffffffffffffffffffffffffffffffffffffffff1603611092576040517f08c379a000000000000000000000000000000000000000000000000000000000815260040161108990612138565b60405180910390fd5b6110bf8383838773ffffffffffffffffffffffffffffffffffffffff166113db909392919063ffffffff16565b8373ffffffffffffffffffffffffffffffffffffffff168273ffffffffffffffffffffffffffffffffffffffff168473ffffffffffffffffffffffffffffffffffffffff167fa48793584600905a3386f996bb7d0e3d8bd0cf62dce1ad2469c2e550207c3e348460405161113391906117aa565b60405180910390a450505050565b6000600160008373ffffffffffffffffffffffffffffffffffffffff1673ffffffffffffffffffffffffffffffffffffffff16815260200190815260200160002060009054906101000a900460ff166111cf576040517f08c379a00000000000000000000000000000000000000000000000000000000081526004016111c690611f1a565b60405180910390fd5b600260008373ffffffffffffffffffffffffffffffffffffffff1673ffffffffffffffffffffffffffffffffffffffff168152602001908152602001600020549050919050565b61121e611299565b600073ffffffffffffffffffffffffffffffffffffffff168173ffffffffffffffffffffffffffffffffffffffff160361128d576040517f08c379a0000000000000000000000000000000000000000000000000000000008152600401611284906121ca565b60405180910390fd5b61129681611317565b50565b6112a1611464565b73ffffffffffffffffffffffffffffffffffffffff166112bf610cd9565b73ffffffffffffffffffffffffffffffffffffffff1614611315576040517f08c379a000000000000000000000000000000000000000000000000000000000815260040161130c90612236565b60405180910390fd5b565b60008060009054906101000a900473ffffffffffffffffffffffffffffffffffffffff169050816000806101000a81548173ffffffffffffffffffffffffffffffffffffffff021916908373ffffffffffffffffffffffffffffffffffffffff1602179055508173ffffffffffffffffffffffffffffffffffffffff168173ffffffffffffffffffffffffffffffffffffffff167f8be0079c531659141344cd1fd0a4f28419497f9722a3daafe3b4186f6b6457e060405160405180910390a35050565b61145e846323b872dd60e01b8585856040516024016113fc93929190612256565b604051602081830303815290604052907bffffffffffffffffffffffffffffffffffffffffffffffffffffffff19166020820180517bffffffffffffffffffffffffffffffffffffffffffffffffffffffff838183161783525050505061146c565b50505050565b600033905090565b60006114ce826040518060400160405280602081526020017f5361666545524332303a206c6f772d6c6576656c2063616c6c206661696c65648152508573ffffffffffffffffffffffffffffffffffffffff166115349092919063ffffffff16565b90506000815114806114f05750808060200190518101906114ef91906122b9565b5b61152f576040517f08c379a000000000000000000000000000000000000000000000000000000000815260040161152690612358565b60405180910390fd5b505050565b6060611543848460008561154c565b90509392505050565b606082471015611591576040517f08c379a0000000000000000000000000000000000000000000000000000000008152600401611588906123ea565b60405180910390fd5b6000808673ffffffffffffffffffffffffffffffffffffffff1685876040516115ba919061247b565b60006040518083038185875af1925050503d80600081146115f7576040519150601f19603f3d011682016040523d82523d6000602084013e6115fc565b606091505b509150915061160d87838387611619565b92505050949350505050565b6060831561167b576000835103611673576116338561168e565b611672576040517f08c379a0000000000000000000000000000000000000000000000000000000008152600401611669906124de565b60405180910390fd5b5b829050611686565b61168583836116b1565b5b949350505050565b6000808273ffffffffffffffffffffffffffffffffffffffff163b119050919050565b6000825111156116c45781518083602001fd5b806040517f08c379a00000000000000000000000000000000000000000000000000000000081526004016116f89190612553565b60405180910390fd5b600080fd5b600073ffffffffffffffffffffffffffffffffffffffff82169050919050565b600061173182611706565b9050919050565b61174181611726565b811461174c57600080fd5b50565b60008135905061175e81611738565b92915050565b60006020828403121561177a57611779611701565b5b60006117888482850161174f565b91505092915050565b6000819050919050565b6117a481611791565b82525050565b60006020820190506117bf600083018461179b565b92915050565b60008115159050919050565b6117da816117c5565b82525050565b60006020820190506117f560008301846117d1565b92915050565b61180481611791565b811461180f57600080fd5b50565b600081359050611821816117fb565b92915050565b6000806000606084860312156118405761183f611701565b5b600061184e8682870161174f565b935050602061185f8682870161174f565b925050604061187086828701611812565b9150509250925092565b61188381611726565b82525050565b600060208201905061189e600083018461187a565b92915050565b6000602082840312156118ba576118b9611701565b5b60006118c884828501611812565b91505092915050565b600081519050919050565b600082825260208201905092915050565b6000819050602082019050919050565b61190681611726565b82525050565b600061191883836118fd565b60208301905092915050565b6000602082019050919050565b600061193c826118d1565b61194681856118dc565b9350611951836118ed565b8060005b83811015611982578151611969888261190c565b975061197483611924565b925050600181019050611955565b5085935050505092915050565b600060208201905081810360008301526119a98184611931565b905092915050565b600080604083850312156119c8576119c7611701565b5b60006119d68582860161174f565b92505060206119e785828601611812565b9150509250929050565b60008060008060808587031215611a0b57611a0a611701565b5b6000611a198782880161174f565b9450506020611a2a8782880161174f565b9350506040611a3b8782880161174f565b9250506060611a4c87828801611812565b91505092959194509250565b600082825260208201905092915050565b7f46726f6d20746f6b656e206e6f7420737570706f727465640000000000000000600082015250565b6000611a9f601883611a58565b9150611aaa82611a69565b602082019050919050565b60006020820190508181036000830152611ace81611a92565b9050919050565b7f546f20746f6b656e206e6f7420737570706f7274656400000000000000000000600082015250565b6000611b0b601683611a58565b9150611b1682611ad5565b602082019050919050565b60006020820190508181036000830152611b3a81611afe565b9050919050565b7f4e487b7100000000000000000000000000000000000000000000000000000000600052601160045260246000fd5b60008160011c9050919050565b6000808291508390505b6001851115611bc757808604811115611ba357611ba2611b41565b5b6001851615611bb25780820291505b8081029050611bc085611b70565b9450611b87565b94509492505050565b600082611be05760019050611c9c565b81611bee5760009050611c9c565b8160018114611c045760028114611c0e57611c3d565b6001915050611c9c565b60ff841115611c2057611c1f611b41565b5b8360020a915084821115611c3757611c36611b41565b5b50611c9c565b5060208310610133831016604e8410600b8410161715611c725782820a905083811115611c6d57611c6c611b41565b5b611c9c565b611c7f8484846001611b7d565b92509050818404811115611c9657611c95611b41565b5b81810290505b9392505050565b6000611cae82611791565b9150611cb983611791565b9250611ce67fffffffffffffffffffffffffffffffffffffffffffffffffffffffffffffffff8484611bd0565b905092915050565b6000611cf982611791565b9150611d0483611791565b9250828202611d1281611791565b91508282048414831517611d2957611d28611b41565b5b5092915050565b7f4e487b7100000000000000000000000000000000000000000000000000000000600052601260045260246000fd5b6000611d6a82611791565b9150611d7583611791565b925082611d8557611d84611d30565b5b828204905092915050565b7f496e76616c696420746f6b656e20616464726573730000000000000000000000600082015250565b6000611dc6601583611a58565b9150611dd182611d90565b602082019050919050565b60006020820190508181036000830152611df581611db9565b9050919050565b7f546f6b656e20616c726561647920737570706f72746564000000000000000000600082015250565b6000611e32601783611a58565b9150611e3d82611dfc565b602082019050919050565b60006020820190508181036000830152611e6181611e25565b9050919050565b600060ff82169050919050565b611e7e81611e68565b8114611e8957600080fd5b50565b600081519050611e9b81611e75565b92915050565b600060208284031215611eb757611eb6611701565b5b6000611ec584828501611e8c565b91505092915050565b7f546f6b656e206e6f7420737570706f7274656400000000000000000000000000600082015250565b6000611f04601383611a58565b9150611f0f82611ece565b602082019050919050565b60006020820190508181036000830152611f3381611ef7565b9050919050565b7f4e487b7100000000000000000000000000000000000000000000000000000000600052603260045260246000fd5b6000611f7482611791565b9150611f7f83611791565b9250828203905081811115611f9757611f96611b41565b5b92915050565b7f4e487b7100000000000000000000000000000000000000000000000000000000600052603160045260246000fd5b6000611fd782611791565b91507fffffffffffffffffffffffffffffffffffffffffffffffffffffffffffffffff820361200957612008611b41565b5b600182019050919050565b7f496e76616c696420707269636500000000000000000000000000000000000000600082015250565b600061204a600d83611a58565b915061205582612014565b602082019050919050565b600060208201905081810360008301526120798161203d565b9050919050565b7f416d6f756e74206d7573742062652067726561746572207468616e2030000000600082015250565b60006120b6601d83611a58565b91506120c182612080565b602082019050919050565b600060208201905081810360008301526120e5816120a9565b9050919050565b7f496e76616c696420726563697069656e74000000000000000000000000000000600082015250565b6000612122601183611a58565b915061212d826120ec565b602082019050919050565b6000602082019050818103600083015261215181612115565b9050919050565b7f4f776e61626c653a206e6577206f776e657220697320746865207a65726f206160008201527f6464726573730000000000000000000000000000000000000000000000000000602082015250565b60006121b4602683611a58565b91506121bf82612158565b604082019050919050565b600060208201905081810360008301526121e3816121a7565b9050919050565b7f4f776e61626c653a2063616c6c6572206973206e6f7420746865206f776e6572600082015250565b6000612220602083611a58565b915061222b826121ea565b602082019050919050565b6000602082019050818103600083015261224f81612213565b9050919050565b600060608201905061226b600083018661187a565b612278602083018561187a565b612285604083018461179b565b949350505050565b612296816117c5565b81146122a157600080fd5b50565b6000815190506122b38161228d565b92915050565b6000602082840312156122cf576122ce611701565b5b60006122dd848285016122a4565b91505092915050565b7f5361666545524332303a204552433230206f7065726174696f6e20646964206e60008201527f6f74207375636365656400000000000000000000000000000000000000000000602082015250565b6000612342602a83611a58565b915061234d826122e6565b604082019050919050565b6000602082019050818103600083015261237181612335565b9050919050565b7f416464726573733a20696e73756666696369656e742062616c616e636520666f60008201527f722063616c6c0000000000000000000000000000000000000000000000000000602082015250565b60006123d4602683611a58565b91506123df82612378565b604082019050919050565b60006020820190508181036000830152612403816123c7565b9050919050565b600081519050919050565b600081905092915050565b60005b8381101561243e578082015181840152602081019050612423565b60008484015250505050565b60006124558261240a565b61245f8185612415565b935061246f818560208601612420565b80840191505092915050565b6000612487828461244a565b915081905092915050565b7f416464726573733a2063616c6c20746f206e6f6e2d636f6e7472616374000000600082015250565b60006124c8601d83611a58565b91506124d382612492565b602082019050919050565b600060208201905081810360008301526124f7816124bb565b9050919050565b600081519050919050565b6000601f19601f8301169050919050565b6000612525826124fe565b61252f8185611a58565b935061253f818560208601612420565b61254881612509565b840191505092915050565b6000602082019050818103600083015261256d818461251a565b90509291505056fea2646970667358221220fe8a7d349028926f07344aba3eb74c241df5dc56ce6978fac6e77a390b27d05964736f6c63430008140033",
  "linkReferences": {},
  "deployedLinkReferences": {}
}